{"abi":[{"type":"constructor","inputs":[{"name":"_stakedTokenAddress","type":"address","internalType":"address"},{"name":"bal","type":"uint256","internalType":"uint256"}],"stateMutability":"nonpayable"},{"type":"function","name":"allowance","inputs":[{"name":"","type":"address","internalType":"address"},{"name":"","type":"address","internalType":"address"}],"outputs":[{"name":"","type":"uint256","internalType":"uint256"}],"stateMutability":"view"},{"type":"function","name":"approve","inputs":[{"name":"spender","type":"address","internalType":"address"},{"name":"amount","type":"uint256","internalType":"uint256"}],"outputs":[{"name":"","type":"bool","internalType":"bool"}],"stateMutability":"nonpayable"},{"type":"function","name":"balanceOf","inputs":[{"name":"","type":"address","internalType":"address"}],"outputs":[{"name":"","type":"uint256","internalType":"uint256"}],"stateMutability":"view"},{"type":"function","name":"burn","inputs":[{"name":"sender","type":"address","internalType":"address"},{"name":"amount","type":"uint256","internalType":"uint256"}],"outputs":[],"stateMutability":"nonpayable"},{"type":"function","name":"decimals","inputs":[],"outputs":[{"name":"","type":"uint8","internalType":"uint8"}],"stateMutability":"view"},{"type":"function","name":"mint","inputs":[{"name":"amount","type":"uint256","internalType":"uint256"}],"outputs":[],"stateMutability":"nonpayable"},{"type":"function","name":"scaledBalanceOf","inputs":[{"name":"user","type":"address","internalType":"address"}],"outputs":[{"name":"","type":"uint256","internalType":"uint256"}],"stateMutability":"pure"},{"type":"function","name":"scaledBalanceToBal","inputs":[],"outputs":[{"name":"","type":"uint256","internalType":"uint256"}],"stateMutability":"view"},{"type":"function","name":"scaledBalanceToBalance","inputs":[{"name":"a","type":"uint256","internalType":"uint256"}],"outputs":[{"name":"","type":"uint256","internalType":"uint256"}],"stateMutability":"nonpayable"},{"type":"function","name":"stakedTokenAddr","inputs":[],"outputs":[{"name":"","type":"address","internalType":"address"}],"stateMutability":"view"},{"type":"function","name":"stakedTokenAddress","inputs":[],"outputs":[{"name":"","type":"address","internalType":"address"}],"stateMutability":"nonpayable"},{"type":"function","name":"totalSupply","inputs":[],"outputs":[{"name":"","type":"uint256","internalType":"uint256"}],"stateMutability":"view"},{"type":"function","name":"transferFrom","inputs":[{"name":"sender","type":"address","internalType":"address"},{"name":"recipient","type":"address","internalType":"address"},{"name":"amount","type":"uint256","internalType":"uint256"}],"outputs":[{"name":"","type":"bool","internalType":"bool"}],"stateMutability":"nonpayable"},{"type":"event","name":"Approval","inputs":[{"name":"owner","type":"address","indexed":true,"internalType":"address"},{"name":"spender","type":"address","indexed":true,"internalType":"address"},{"name":"value","type":"uint256","indexed":false,"internalType":"uint256"}],"anonymous":false},{"type":"event","name":"Transfer","inputs":[{"name":"from","type":"address","indexed":true,"internalType":"address"},{"name":"to","type":"address","indexed":true,"internalType":"address"},{"name":"value","type":"uint256","indexed":false,"internalType":"uint256"}],"anonymous":false}],"bytecode":{"object":"0x60806040526003805460ff19166012179055348015601b575f5ffd5b506040516106753803806106758339810160408190526038916066565b600380546001600160a01b0390931661010002610100600160a81b031990931692909217909155600455609b565b5f5f604083850312156076575f5ffd5b82516001600160a01b0381168114608b575f5ffd5b6020939093015192949293505050565b6105cd806100a85f395ff3fe608060405234801561000f575f5ffd5b50600436106100cb575f3560e01c8063417cf3df116100885780639dc29fac116100635780639dc29fac146101bf578063a0712d68146101d4578063dd62ed3e146101e7578063ff333a7614610211575f5ffd5b8063417cf3df1461015b57806370a08231146101705780638a5f88cc1461018f575f5ffd5b8063095ea7b3146100cf57806318160ddd146100f75780631da24f3e1461010d57806320a8e3f91461012057806323b872dd14610129578063313ce5671461013c575b5f5ffd5b6100e26100dd366004610493565b610227565b60405190151581526020015b60405180910390f35b6100ff5f5481565b6040519081526020016100ee565b6100ff61011b3660046104bb565b505f90565b6100ff60045481565b6100e26101373660046104db565b610293565b6003546101499060ff1681565b60405160ff90911681526020016100ee565b6100ff610169366004610515565b5060045490565b6100ff61017e3660046104bb565b60016020525f908152604090205481565b6003546101a79061010090046001600160a01b031681565b6040516001600160a01b0390911681526020016100ee565b6101d26101cd366004610493565b61037d565b005b6101d26101e2366004610515565b610404565b6100ff6101f536600461052c565b600260209081525f928352604080842090915290825290205481565b60035461010090046001600160a01b03166101a7565b335f8181526002602090815260408083206001600160a01b038716808552925280832085905551919290917f8c5be1e5ebec7d5bd14f71427d1e84f3dd0314c0f7b2291e5b200ac8c7c3b925906102819086815260200190565b60405180910390a35060015b92915050565b6001600160a01b0383165f9081526002602090815260408083203384529091528120805483919083906102c7908490610571565b90915550506001600160a01b0384165f90815260016020526040812080548492906102f3908490610571565b90915550506001600160a01b0383165f908152600160205260408120805484929061031f908490610584565b92505081905550826001600160a01b0316846001600160a01b03167fddf252ad1be2c89b69c2b068fc378daa952ba7f163c4a11628f55a4df523b3ef8460405161036b91815260200190565b60405180910390a35060019392505050565b6001600160a01b0382165f90815260016020526040812080548392906103a4908490610571565b92505081905550805f5f8282546103bb9190610571565b90915550506040518181525f906001600160a01b038416907fddf252ad1be2c89b69c2b068fc378daa952ba7f163c4a11628f55a4df523b3ef9060200160405180910390a35050565b335f9081526001602052604081208054839290610422908490610584565b92505081905550805f5f8282546104399190610584565b909155505060405181815233905f907fddf252ad1be2c89b69c2b068fc378daa952ba7f163c4a11628f55a4df523b3ef9060200160405180910390a350565b80356001600160a01b038116811461048e575f5ffd5b919050565b5f5f604083850312156104a4575f5ffd5b6104ad83610478565b946020939093013593505050565b5f602082840312156104cb575f5ffd5b6104d482610478565b9392505050565b5f5f5f606084860312156104ed575f5ffd5b6104f684610478565b925061050460208501610478565b929592945050506040919091013590565b5f60208284031215610525575f5ffd5b5035919050565b5f5f6040838503121561053d575f5ffd5b61054683610478565b915061055460208401610478565b90509250929050565b634e487b7160e01b5f52601160045260245ffd5b8181038181111561028d5761028d61055d565b8082018082111561028d5761028d61055d56fea2646970667358221220bea35fe65fded70c188adb0247f589abb31c1863a8f413a58297b7151b8889d664736f6c634300081c0033","linkReferences":{}},"methodIdentifiers":{"allowance(address,address)":"dd62ed3e","approve(address,uint256)":"095ea7b3","balanceOf(address)":"70a08231","burn(address,uint256)":"9dc29fac","decimals()":"313ce567","mint(uint256)":"a0712d68","scaledBalanceOf(address)":"1da24f3e","scaledBalanceToBal()":"20a8e3f9","scaledBalanceToBalance(uint256)":"417cf3df","stakedTokenAddr()":"8a5f88cc","stakedTokenAddress()":"ff333a76","totalSupply()":"18160ddd","transferFrom(address,address,uint256)":"23b872dd"},"id":315}