{"abi":[{"type":"function","name":"claimCvgCvxMultiple","inputs":[{"name":"account","type":"address","internalType":"address"}],"outputs":[{"name":"","type":"uint256","internalType":"uint256"},{"name":"","type":"tuple[]","internalType":"struct ICommonStruct.TokenAmount[]","components":[{"name":"token","type":"address","internalType":"contract IERC20"},{"name":"amount","type":"uint256","internalType":"uint256"}]}],"stateMutability":"nonpayable"}],"bytecode":{"object":"0x60806040525f80546001600160a01b0319167397effb790f2fbb701d88f89db4521348a2b77be81790553480156033575f5ffd5b50610222806100415f395ff3fe608060405234801561000f575f5ffd5b5060043610610029575f3560e01c8063011f20bf1461002d575b5f5ffd5b61004061003b366004610121565b610057565b60405161004e92919061014e565b60405180910390f35b604080515f80825260208201909252606090829081610097565b604080518082019091525f80825260208201528152602001906001900390816100715790505b5090505f5f9054906101000a90046001600160a01b03166001600160a01b03166318160ddd6040518163ffffffff1660e01b8152600401602060405180830381865afa1580156100e9573d5f5f3e3d5ffd5b505050506040513d601f19601f8201168201806040525081019061010d91906101b0565b610118905f196101c7565b94909350915050565b5f60208284031215610131575f5ffd5b81356001600160a01b0381168114610147575f5ffd5b9392505050565b5f60408201848352604060208401528084518083526060850191506020860192505f5b818110156101a457835180516001600160a01b031684526020908101518185015290930192604090920191600101610171565b50909695505050505050565b5f602082840312156101c0575f5ffd5b5051919050565b818103818111156101e657634e487b7160e01b5f52601160045260245ffd5b9291505056fea2646970667358221220daa06929c558fa089764879b881c3ea38de1a59b8d291a835bb6614d538ea29e64736f6c634300081c0033","linkReferences":{}},"methodIdentifiers":{"claimCvgCvxMultiple(address)":"011f20bf"},"id":529}