{"abi":[{"type":"function","name":"borrow","inputs":[{"name":"asset","type":"address","internalType":"contract IERC20"},{"name":"collateralAmount","type":"uint256","internalType":"uint256"},{"name":"debtAmount","type":"uint256","internalType":"uint256"}],"outputs":[],"stateMutability":"nonpayable"},{"type":"function","name":"onERC721Received","inputs":[{"name":"","type":"address","internalType":"address"},{"name":"","type":"address","internalType":"address"},{"name":"","type":"uint256","internalType":"uint256"},{"name":"","type":"bytes","internalType":"bytes"}],"outputs":[{"name":"","type":"bytes4","internalType":"bytes4"}],"stateMutability":"nonpayable"}],"bytecode":{"object":"0x60806040525f80546001600160a01b031990811673c374f7ec85f8c7de3207a10bb1978ba104bda3b21790915560018054821673b40b073d7e47986d3a45ca7fd30772c25a2ad57f1790556002805482167337e49bf3749513a02fa535f0cbc383796e8107e4179055600380548216737f39c581f595b53c5cb19bd0b3f8da6c935e2ca017905560048054821673c02aaa39b223fe8d0a0e5c4f27ead9083c756cc2179055600580549091167332e0a7f7c4b1a19594d25bd9b63eba912b1a5f6117905534801560cd575f5ffd5b5061065d806100db5f395ff3fe608060405234801561000f575f5ffd5b5060043610610034575f3560e01c8063150b7a0214610038578063c1bce0b714610073575b5f5ffd5b6100566100463660046104d7565b630a85bd0160e11b949350505050565b6040516001600160e01b0319909116815260200160405180910390f35b6100866100813660046105b8565b610088565b005b6005546040805163c814d2d160e01b815290515f926001600160a01b03169163c814d2d1916004808301926020929190829003018187875af11580156100d0573d5f5f3e3d5ffd5b505050506040513d601f19601f820116820180604052508101906100f491906105ea565b60015460025460405163095ea7b360e01b81526001600160a01b0391821660048201525f196024820152929350169063095ea7b3906044016020604051808303815f875af1158015610148573d5f5f3e3d5ffd5b505050506040513d601f19601f8201168201806040525081019061016c9190610601565b50600254600154604051636987b14960e11b8152600481018490526001600160a01b0391821660248201526044810186905291169063d30f6292906064016020604051808303815f875af11580156101c6573d5f5f3e3d5ffd5b505050506040513d601f19601f820116820180604052508101906101ea91906105ea565b5060025460405163c7c5c4a760e01b8152600481018390526001600160a01b038681166024830152604482018590529091169063c7c5c4a7906064016020604051808303815f875af1158015610242573d5f5f3e3d5ffd5b505050506040513d601f19601f8201168201806040525081019061026691906105ea565b50600254600180546040516377cfd4a560e01b8152600481018590526001600160a01b0391821660248201526044810192909252909116906377cfd4a5906064016020604051808303815f875af11580156102c3573d5f5f3e3d5ffd5b505050506040513d601f19601f820116820180604052508101906102e791906105ea565b506040516370a0823160e01b81523060048201526001600160a01b0385169063a9059cbb90339083906370a0823190602401602060405180830381865afa158015610334573d5f5f3e3d5ffd5b505050506040513d601f19601f8201168201806040525081019061035891906105ea565b6040516001600160e01b031960e085901b1681526001600160a01b03909216600483015260248201526044016020604051808303815f875af11580156103a0573d5f5f3e3d5ffd5b505050506040513d601f19601f820116820180604052508101906103c49190610601565b506001546040516370a0823160e01b81523060048201526001600160a01b039091169063a9059cbb90339083906370a0823190602401602060405180830381865afa158015610415573d5f5f3e3d5ffd5b505050506040513d601f19601f8201168201806040525081019061043991906105ea565b6040516001600160e01b031960e085901b1681526001600160a01b03909216600483015260248201526044016020604051808303815f875af1158015610481573d5f5f3e3d5ffd5b505050506040513d601f19601f820116820180604052508101906104a59190610601565b5050505050565b6001600160a01b03811681146104c0575f5ffd5b50565b634e487b7160e01b5f52604160045260245ffd5b5f5f5f5f608085870312156104ea575f5ffd5b84356104f5816104ac565b93506020850135610505816104ac565b925060408501359150606085013567ffffffffffffffff811115610527575f5ffd5b8501601f81018713610537575f5ffd5b803567ffffffffffffffff811115610551576105516104c3565b604051601f8201601f19908116603f0116810167ffffffffffffffff81118282101715610580576105806104c3565b604052818152828201602001891015610597575f5ffd5b816020840160208301375f6020838301015280935050505092959194509250565b5f5f5f606084860312156105ca575f5ffd5b83356105d5816104ac565b95602085013595506040909401359392505050565b5f602082840312156105fa575f5ffd5b5051919050565b5f60208284031215610611575f5ffd5b81518015158114610620575f5ffd5b939250505056fea2646970667358221220c407ea13d165ee308cf5051d9646128a71bb46eadc8889ab72689aae8e120efe64736f6c634300081c0033","linkReferences":{}},"methodIdentifiers":{"borrow(address,uint256,uint256)":"c1bce0b7","onERC721Received(address,address,uint256,bytes)":"150b7a02"},"id":418}