{"abi":[{"type":"constructor","inputs":[],"stateMutability":"nonpayable"},{"type":"receive","stateMutability":"payable"},{"type":"function","name":"claim","inputs":[],"outputs":[],"stateMutability":"nonpayable"},{"type":"function","name":"remove","inputs":[],"outputs":[],"stateMutability":"nonpayable"}],"bytecode":{"object":"0x6080604052348015600e575f5ffd5b5060405163095ea7b360e01b81523360048201525f19602482015273fee55f16fd5aec503b73146045b1474925a74dec9063095ea7b3906044016020604051808303815f875af11580156063573d5f5f3e3d5ffd5b505050506040513d601f19601f8201168201806040525081019060859190608a565b5060ae565b5f602082840312156099575f5ffd5b8151801515811460a7575f5ffd5b9392505050565b610759806100bb5f395ff3fe60806040526004361061002b575f3560e01c80634e71d92d14610036578063a7f437791461004c575f5ffd5b3661003257005b5f5ffd5b348015610041575f5ffd5b5061004a610060565b005b348015610057575f5ffd5b5061004a6101ac565b73b38c2d2d6a168d41aa8eb4cead47e01badbdcf576001600160a01b031663d2a8b4406040518163ffffffff1660e01b81526004015f604051808303815f87803b1580156100ac575f5ffd5b505af11580156100be573d5f5f3e3d5ffd5b50506040516370a0823160e01b81523060048201527355d398326f99059ff775485246999027b3197955925063a9059cbb9150339083906370a0823190602401602060405180830381865afa158015610119573d5f5f3e3d5ffd5b505050506040513d601f19601f8201168201806040525081019061013d919061063d565b6040516001600160e01b031960e085901b1681526001600160a01b03909216600483015260248201526044016020604051808303815f875af1158015610185573d5f5f3e3d5ffd5b505050506040513d601f19601f820116820180604052508101906101a99190610654565b50565b60405163095ea7b360e01b81527310ed43c718714eb63d5aa57b78b54704e256024e60048201525f19602482015273fee55f16fd5aec503b73146045b1474925a74dec9063095ea7b3906044016020604051808303815f875af1158015610215573d5f5f3e3d5ffd5b505050506040513d601f19601f820116820180604052508101906102399190610654565b5060405163095ea7b360e01b81527310ed43c718714eb63d5aa57b78b54704e256024e60048201525f19602482015273b38c2d2d6a168d41aa8eb4cead47e01badbdcf579063095ea7b3906044016020604051808303815f875af11580156102a3573d5f5f3e3d5ffd5b505050506040513d601f19601f820116820180604052508101906102c79190610654565b506040516370a0823160e01b81523060048201527310ed43c718714eb63d5aa57b78b54704e256024e9063af2979eb9073b38c2d2d6a168d41aa8eb4cead47e01badbdcf579073fee55f16fd5aec503b73146045b1474925a74dec906370a0823190602401602060405180830381865afa158015610347573d5f5f3e3d5ffd5b505050506040513d601f19601f8201168201806040525081019061036b919061063d565b5f803061037942600a61067a565b60405160e088901b6001600160e01b03191681526001600160a01b039687166004820152602481019590955260448501939093526064840191909152909216608482015260a481019190915260c4016020604051808303815f875af11580156103e4573d5f5f3e3d5ffd5b505050506040513d601f19601f82011682018060405250810190610408919061063d565b506104116104aa565b6040515f90339047908381818185875af1925050503d805f8114610450576040519150601f19603f3d011682016040523d82523d5f602084013e610455565b606091505b50509050806101a95760405162461bcd60e51b815260206004820152601e60248201527f5472616e73666572696e6720424e42206e6f74207375636365737366756c0000604482015260640160405180910390fd5b6040805160028082526060820183525f9260208301908036833701905050905073b38c2d2d6a168d41aa8eb4cead47e01badbdcf57815f815181106104f1576104f161069f565b60200260200101906001600160a01b031690816001600160a01b03168152505073bb4cdb9cbd36b01bd1cbaebf2de08d9173bc095c816001815181106105395761053961069f565b6001600160a01b0392909216602092830291909101909101526040516370a0823160e01b81523060048201527310ed43c718714eb63d5aa57b78b54704e256024e9063791ac9479073b38c2d2d6a168d41aa8eb4cead47e01badbdcf57906370a0823190602401602060405180830381865afa1580156105bb573d5f5f3e3d5ffd5b505050506040513d601f19601f820116820180604052508101906105df919061063d565b5f84336105ed42600a61067a565b6040518663ffffffff1660e01b815260040161060d9594939291906106b3565b5f604051808303815f87803b158015610624575f5ffd5b505af1158015610636573d5f5f3e3d5ffd5b5050505050565b5f6020828403121561064d575f5ffd5b5051919050565b5f60208284031215610664575f5ffd5b81518015158114610673575f5ffd5b9392505050565b8082018082111561069957634e487b7160e01b5f52601160045260245ffd5b92915050565b634e487b7160e01b5f52603260045260245ffd5b5f60a0820187835286602084015260a0604084015280865180835260c0850191506020880192505f5b818110156107035783516001600160a01b03168352602093840193909201916001016106dc565b50506001600160a01b03959095166060840152505060800152939250505056fea2646970667358221220f72e558bd700d8c99449641a566d6b2cefb6a4bfa9beb274f5bbf243c7be068064736f6c634300081c0033","linkReferences":{}},"methodIdentifiers":{"claim()":"4e71d92d","remove()":"a7f43779"},"id":409}