{"abi":[{"type":"constructor","inputs":[],"stateMutability":"nonpayable"},{"type":"fallback","stateMutability":"payable"},{"type":"function","name":"subscribe","inputs":[],"outputs":[],"stateMutability":"nonpayable"},{"type":"function","name":"withdrawRewards","inputs":[],"outputs":[],"stateMutability":"nonpayable"}],"bytecode":{"object":"0x60806040525f80546001600160a01b0319908116731bf7fe7568211ecff68b6bc7ccad31ecd8fe809217909155600180548216738f52e0c41164169818c1fb04b263fdc7c1e560881790556002805490911673d88ca08d8eec1e9e09562213ae83a7853ebb5d281790553480156073575f5ffd5b50600380546001600160a01b03191633179055610375806100935f395ff3fe608060405260043610610028575f3560e01c80638f449a051461002a578063c7b8981c1461003e575b005b348015610035575f5ffd5b50610028610052565b348015610049575f5ffd5b5061002861017f565b6003546001600160a01b0316331461009e5760405162461bcd60e51b815260206004820152600a60248201526937b7363c9037bbb732b960b11b60448201526064015b60405180910390fd5b6040805160c0810182526001546001600160a01b03908116825247602083018181526127108486019081527d0172ebad6ddc73c86d67c5faa71c245689c1079502400000000000000000606086019081525f6080870181815260a0880182815291549851631513ea9960e21b815288518816600482015294516024860152925160448501529051606484015290511515608483015251831660a482015290939091169063544faa6490600b9060c4015f604051808303818588803b158015610164575f5ffd5b505af1158015610176573d5f5f3e3d5ffd5b50505050505050565b6003546001600160a01b031633146101c65760405162461bcd60e51b815260206004820152600a60248201526937b7363c9037bbb732b960b11b6044820152606401610095565b5f805460408051632c07f74f60e01b815290516001600160a01b0390921692632c07f74f9260048084019382900301818387803b158015610205575f5ffd5b505af1158015610217573d5f5f3e3d5ffd5b50506002546003546040516370a0823160e01b81523060048201526001600160a01b03928316945063a9059cbb935091169083906370a0823190602401602060405180830381865afa15801561026f573d5f5f3e3d5ffd5b505050506040513d601f19601f820116820180604052508101906102939190610302565b6040516001600160e01b031960e085901b1681526001600160a01b03909216600483015260248201526044016020604051808303815f875af11580156102db573d5f5f3e3d5ffd5b505050506040513d601f19601f820116820180604052508101906102ff9190610319565b50565b5f60208284031215610312575f5ffd5b5051919050565b5f60208284031215610329575f5ffd5b81518015158114610338575f5ffd5b939250505056fea264697066735822122051ddbed9293fcc4880cc08bb6232f383b05d77f7df6d47248224fec06d474d8b64736f6c634300081c0033","linkReferences":{}},"methodIdentifiers":{"subscribe()":"8f449a05","withdrawRewards()":"c7b8981c"},"id":42}