{"abi":[{"type":"function","name":"liquidate","inputs":[{"name":"liquidator","type":"address","internalType":"address"},{"name":"violator","type":"address","internalType":"address"}],"outputs":[],"stateMutability":"nonpayable"}],"bytecode":{"object":"0x60806040525f80546001600160a01b0319908116736b175474e89094c44da98b954eedeac495271d0f1790915560018054821673e025e3ca2be02316033184551d4d3aa22024d9dc179055600280548216736085bc95f506c326dcbcd7a6dd6c79fbc18d468617905560038054821673f43ce1d09050bafd6980dd43cde2ab9f18c85b34179055600480549091167327182842e098f60e3d576794a5bffb0777e025d317905534801560af575f5ffd5b50610440806100bd5f395ff3fe608060405234801561000f575f5ffd5b5060043610610029575f3560e01c806386b9d81f1461002d575b5f5ffd5b61004061003b366004610319565b610042565b005b6003545f8054604051631a96d9d560e01b81526001600160a01b038681166004830152858116602483015291821660448201819052606482015291921690631a96d9d59060840160c0604051808303815f875af11580156100a5573d5f5f3e3d5ffd5b505050506040513d601f19601f820116820180604052508101906100c9919061034a565b6003545f5482516020840151604051636f70e66f60e01b81526001600160a01b038881166004830152938416602482018190526044820152606481019290925260848201529293501690636f70e66f9060a4015f604051808303815f87803b158015610133575f5ffd5b505af1158015610145573d5f5f3e3d5ffd5b50506001545f8054600480546040516370a0823160e01b81526001600160a01b0391821692810192909252938416955063441a3e709450919216906370a0823190602401602060405180830381865afa1580156101a4573d5f5f3e3d5ffd5b505050506040513d601f19601f820116820180604052508101906101c891906103cd565b6040516001600160e01b031960e085901b168152600481019290925260248201526044015f604051808303815f87803b158015610203575f5ffd5b505af1158015610215573d5f5f3e3d5ffd5b50505f546040516370a0823160e01b81523060048201526001600160a01b03909116925063a9059cbb9150339083906370a0823190602401602060405180830381865afa158015610268573d5f5f3e3d5ffd5b505050506040513d601f19601f8201168201806040525081019061028c91906103cd565b6040516001600160e01b031960e085901b1681526001600160a01b03909216600483015260248201526044016020604051808303815f875af11580156102d4573d5f5f3e3d5ffd5b505050506040513d601f19601f820116820180604052508101906102f891906103e4565b50505050565b80356001600160a01b0381168114610314575f5ffd5b919050565b5f5f6040838503121561032a575f5ffd5b610333836102fe565b9150610341602084016102fe565b90509250929050565b5f60c082840312801561035b575f5ffd5b5060405160c0810167ffffffffffffffff8111828210171561038b57634e487b7160e01b5f52604160045260245ffd5b604090815283518252602080850151908301528381015190820152606080840151908201526080808401519082015260a0928301519281019290925250919050565b5f602082840312156103dd575f5ffd5b5051919050565b5f602082840312156103f4575f5ffd5b81518015158114610403575f5ffd5b939250505056fea2646970667358221220821835e310576fe86114fa671720252888732cf35bee5b12a835114241889d0f64736f6c634300081c0033","linkReferences":{}},"methodIdentifiers":{"liquidate(address,address)":"86b9d81f"},"id":193}