{"abi":[{"type":"function","name":"bind","inputs":[{"name":"invitor","type":"address","internalType":"address"}],"outputs":[],"stateMutability":"nonpayable"},{"type":"function","name":"stakeAndClaimReward","inputs":[{"name":"amount","type":"uint256","internalType":"uint256"}],"outputs":[],"stateMutability":"nonpayable"},{"type":"function","name":"withdraw","inputs":[{"name":"receiver","type":"address","internalType":"address"}],"outputs":[],"stateMutability":"nonpayable"}],"bytecode":{"object":"0x60806040525f80546001600160a01b03199081167302d841b976298dcd37ed6cc59f75d9dd39a3690c17909155600180549091167355d398326f99059ff775485246999027b31979551790553480156055575f5ffd5b50610373806100635f395ff3fe608060405234801561000f575f5ffd5b506004361061003f575f3560e01c806351cff8d91461004357806381bac14f14610058578063f7e9e8131461006b575b5f5ffd5b6100566100513660046102c3565b61007e565b005b6100566100663660046102c3565b610162565b6100566100793660046102f0565b6101bf565b6001546040516370a0823160e01b81523060048201526001600160a01b039091169063a9059cbb90839083906370a0823190602401602060405180830381865afa1580156100ce573d5f5f3e3d5ffd5b505050506040513d601f19601f820116820180604052508101906100f29190610307565b6040516001600160e01b031960e085901b1681526001600160a01b03909216600483015260248201526044016020604051808303815f875af115801561013a573d5f5f3e3d5ffd5b505050506040513d601f19601f8201168201806040525081019061015e919061031e565b5050565b5f54604051639e8beb2b60e01b81526001600160a01b03838116600483015290911690639e8beb2b906024015b5f604051808303815f87803b1580156101a6575f5ffd5b505af11580156101b8573d5f5f3e3d5ffd5b5050505050565b6001545f5460405163095ea7b360e01b81526001600160a01b0391821660048201525f19602482015291169063095ea7b3906044016020604051808303815f875af1158015610210573d5f5f3e3d5ffd5b505050506040513d601f19601f82011682018060405250810190610234919061031e565b505f80546040516307b0472f60e41b81526004810192909252602482018390526001600160a01b031690637b0472f0906044015f604051808303815f87803b15801561027e575f5ffd5b505af1158015610290573d5f5f3e3d5ffd5b50505f5460405163260581b760e01b81523060048201526001600160a01b03909116925063260581b7915060240161018f565b5f602082840312156102d3575f5ffd5b81356001600160a01b03811681146102e9575f5ffd5b9392505050565b5f60208284031215610300575f5ffd5b5035919050565b5f60208284031215610317575f5ffd5b5051919050565b5f6020828403121561032e575f5ffd5b815180151581146102e9575f5ffdfea2646970667358221220d56f5c6d8559e02ad544398b943c9fad137e9c582bb9242caf21c3515531d4e364736f6c634300081c0033","linkReferences":{}},"methodIdentifiers":{"bind(address)":"81bac14f","stakeAndClaimReward(uint256)":"f7e9e813","withdraw(address)":"51cff8d9"},"id":145}