{"abi":[{"type":"constructor","inputs":[],"stateMutability":"nonpayable"},{"type":"receive","stateMutability":"payable"},{"type":"function","name":"buy","inputs":[{"name":"_srcAddr","type":"address","internalType":"address"},{"name":"_destAddr","type":"address","internalType":"address"},{"name":"_destAmount","type":"uint256","internalType":"uint256"}],"outputs":[],"stateMutability":"nonpayable"},{"type":"function","name":"f_0x4e515153","inputs":[{"name":"varg0","type":"address","internalType":"address"},{"name":"varg1","type":"address","internalType":"address"},{"name":"varg2","type":"uint256","internalType":"uint256"}],"outputs":[],"stateMutability":"nonpayable"},{"type":"function","name":"f_0xf986351d","inputs":[{"name":"varg0","type":"address","internalType":"address"},{"name":"varg1","type":"address","internalType":"address"},{"name":"varg2","type":"uint256","internalType":"uint256"}],"outputs":[],"stateMutability":"nonpayable"}],"bytecode":{"object":"0x6080604052348015600e575f5ffd5b505f80546001600160a01b031916321790556105ab8061002d5f395ff3fe608060405260043610610036575f3560e01c8063153e66e6146100415780638d598717146100625780639ac3247a14610081575f5ffd5b3661003d57005b5f5ffd5b34801561004c575f5ffd5b5061006061005b366004610428565b6100a0565b005b34801561006d575f5ffd5b5061006061007c366004610428565b6101a2565b34801561008c575f5ffd5b5061006061009b366004610428565b61022d565b5f546001600160a01b031632146100b5575f5ffd5b60405163a9059cbb60e01b81526001600160a01b0383811660048301526024820183905284169063a9059cbb906044016020604051808303815f875af1158015610101573d5f5f3e3d5ffd5b505050506040513d601f19601f820116820180604052508101906101259190610461565b5060405163022c0d9f60e01b8152680340aad21b3b70000060048201525f602482018190523060448301526080606483015260848201526001600160a01b0383169063022c0d9f9060a4015f604051808303815f87803b158015610187575f5ffd5b505af1158015610199573d5f5f3e3d5ffd5b50505050505050565b5f546001600160a01b031632146101b7575f5ffd5b60405163a9059cbb60e01b81526001600160a01b0383811660048301526024820183905284169063a9059cbb906044016020604051808303815f875af1158015610203573d5f5f3e3d5ffd5b505050506040513d601f19601f820116820180604052508101906102279190610461565b50505050565b5f546001600160a01b03163214610242575f5ffd5b5f5f5f846001600160a01b0316630902f1ac6040518163ffffffff1660e01b8152600401606060405180830381865afa158015610281573d5f5f3e3d5ffd5b505050506040513d601f19601f820116820180604052508101906102a5919061049d565b919450925090505f6102b88560556104fd565b90505f60646102c9836126f76104fd565b6102d3919061051a565b90505f6102e96001600160701b038716836104fd565b90505f6102f886612710610539565b60405163a9059cbb60e01b81526001600160a01b038b81166004830152602482018b90526001600160701b03929092169250908b169063a9059cbb906044016020604051808303815f875af1158015610353573d5f5f3e3d5ffd5b505050506040513d601f19601f820116820180604052508101906103779190610461565b506001600160a01b03891663022c0d9f6103918386610562565b61039b908561051a565b6040516001600160e01b031960e084901b16815260048101919091525f6024820181905233604483015260806064830152608482015260a4015f604051808303815f87803b1580156103eb575f5ffd5b505af11580156103fd573d5f5f3e3d5ffd5b5050505050505050505050505050565b80356001600160a01b0381168114610423575f5ffd5b919050565b5f5f5f6060848603121561043a575f5ffd5b6104438461040d565b92506104516020850161040d565b9150604084013590509250925092565b5f60208284031215610471575f5ffd5b81518015158114610480575f5ffd5b9392505050565b80516001600160701b0381168114610423575f5ffd5b5f5f5f606084860312156104af575f5ffd5b6104b884610487565b92506104c660208501610487565b9150604084015163ffffffff811681146104de575f5ffd5b809150509250925092565b634e487b7160e01b5f52601160045260245ffd5b8082028115828204841417610514576105146104e9565b92915050565b5f8261053457634e487b7160e01b5f52601260045260245ffd5b500490565b6001600160701b03818116838216029081169081811461055b5761055b6104e9565b5092915050565b80820180821115610514576105146104e956fea264697066735822122099b5e3a8fb27df580472c2b9f18e1ab34e3cfd9b3dad2add56b864ce7a32cca664736f6c634300081c0033","linkReferences":{}},"methodIdentifiers":{"buy(address,address,uint256)":"153e66e6","f_0x4e515153(address,address,uint256)":"8d598717","f_0xf986351d(address,address,uint256)":"9ac3247a"},"id":379}