{"abi":[{"type":"constructor","inputs":[],"stateMutability":"nonpayable"},{"type":"function","name":"addLiq","inputs":[{"name":"value","type":"uint256","internalType":"uint256"}],"outputs":[],"stateMutability":"nonpayable"},{"type":"function","name":"cc","inputs":[],"outputs":[],"stateMutability":"nonpayable"}],"bytecode":{"object":"0x60806040525f80546001600160a01b03199081167310ed43c718714eb63d5aa57b78b54704e256024e179091556001805482167355d398326f99059ff775485246999027b319795517905560028054821673810f4c6ae97bcc66da5ae6383cc31bd3670f6d1317905560038054909116734eeddcc7c8714a684311f8b01154b5686a0f612f179055348015610092575f5ffd5b50600480546001600160a01b031916331790556003545f546001600160a01b039182169163095ea7b391166100c960015f19610307565b6040516001600160e01b031960e085901b1681526001600160a01b03909216600483015260248201526044016020604051808303815f875af1158015610111573d5f5f3e3d5ffd5b505050506040513d601f19601f82011682018060405250810190610135919061032c565b50600180545f546001600160a01b039182169263095ea7b3929091169061015d905f19610307565b6040516001600160e01b031960e085901b1681526001600160a01b03909216600483015260248201526044016020604051808303815f875af11580156101a5573d5f5f3e3d5ffd5b505050506040513d601f19601f820116820180604052508101906101c9919061032c565b506002545f546001600160a01b039182169163095ea7b391166101ee60015f19610307565b6040516001600160e01b031960e085901b1681526001600160a01b03909216600483015260248201526044016020604051808303815f875af1158015610236573d5f5f3e3d5ffd5b505050506040513d601f19601f8201168201806040525081019061025a919061032c565b505f805460015460025460405162e8e33760e81b81526001600160a01b0392831660048201529082166024820152620186a06044820181905260648201526084810184905260a48101939093523060c48401524260e4840152169063e8e3370090610104016060604051808303815f875af11580156102db573d5f5f3e3d5ffd5b505050506040513d601f19601f820116820180604052508101906102ff9190610352565b50505061037d565b8181038181111561032657634e487b7160e01b5f52601160045260245ffd5b92915050565b5f6020828403121561033c575f5ffd5b8151801515811461034b575f5ffd5b9392505050565b5f5f5f60608486031215610364575f5ffd5b5050815160208301516040909301519094929350919050565b6103d78061038a5f395ff3fe608060405234801561000f575f5ffd5b5060043610610034575f3560e01c8063a2cdd47114610038578063b931074714610042575b5f5ffd5b610040610055565b005b610040610050366004610300565b6101e5565b5f805460015460025460405162e8e33760e81b81526001600160a01b0392831660048201529082166024820152620186a06044820181905260648201526084810184905260a48101939093523060c48401524260e4840152169063e8e3370090610104016060604051808303815f875af11580156100d5573d5f5f3e3d5ffd5b505050506040513d601f19601f820116820180604052508101906100f99190610317565b5050600154600480546040516370a0823160e01b815230928101929092526001600160a01b03928316935063a9059cbb92169083906370a0823190602401602060405180830381865afa158015610152573d5f5f3e3d5ffd5b505050506040513d601f19601f820116820180604052508101906101769190610342565b6040516001600160e01b031960e085901b1681526001600160a01b03909216600483015260248201526044016020604051808303815f875af11580156101be573d5f5f3e3d5ffd5b505050506040513d601f19601f820116820180604052508101906101e29190610359565b50565b5f8054600154600254604051635d5155ef60e11b81526001600160a01b0392831660048201529082166024820152618ac460448201526064810184905260848101939093523060a48401524260c4840152169063baa2abde9060e40160408051808303815f875af115801561025c573d5f5f3e3d5ffd5b505050506040513d601f19601f82011682018060405250810190610280919061037f565b50506003546004805460405163a9059cbb60e01b81526001600160a01b0391821692810192909252602482018490529091169063a9059cbb906044016020604051808303815f875af11580156102d8573d5f5f3e3d5ffd5b505050506040513d601f19601f820116820180604052508101906102fc9190610359565b5050565b5f60208284031215610310575f5ffd5b5035919050565b5f5f5f60608486031215610329575f5ffd5b5050815160208301516040909301519094929350919050565b5f60208284031215610352575f5ffd5b5051919050565b5f60208284031215610369575f5ffd5b81518015158114610378575f5ffd5b9392505050565b5f5f60408385031215610390575f5ffd5b50508051602090910151909290915056fea264697066735822122034dcc0eb8b68b60f701b9ebfa414ced395c03c4b9b7091ccf4c423aba76c2cb964736f6c634300081c0033","linkReferences":{}},"methodIdentifiers":{"addLiq(uint256)":"b9310747","cc()":"a2cdd471"},"id":493}