{"abi":[{"type":"constructor","inputs":[{"name":"_silo","type":"address","internalType":"contract ISilo"}],"stateMutability":"nonpayable"},{"type":"function","name":"LINK","inputs":[],"outputs":[{"name":"","type":"address","internalType":"contract IERC20"}],"stateMutability":"view"},{"type":"function","name":"WETH","inputs":[],"outputs":[{"name":"","type":"address","internalType":"contract IERC20"}],"stateMutability":"view"},{"type":"function","name":"depositLinkAndBorrowWETH","inputs":[],"outputs":[],"stateMutability":"nonpayable"}],"bytecode":{"object":"0x60a060405234801561000f575f5ffd5b506040516104e93803806104e983398101604081905261002e91610050565b5f80546001600160a01b031916331790556001600160a01b031660805261007d565b5f60208284031215610060575f5ffd5b81516001600160a01b0381168114610076575f5ffd5b9392505050565b6080516104466100a35f395f818161013e0152818161020401526102ae01526104465ff3fe608060405234801561000f575f5ffd5b506004361061003f575f3560e01c80631b6b6d231461004357806358919cf21461007a578063ad5c464814610084575b5f5ffd5b61005e73514910771af9ca656af840dff83e8264ecf986ca81565b6040516001600160a01b03909116815260200160405180910390f35b61008261009f565b005b61005e73c02aaa39b223fe8d0a0e5c4f27ead9083c756cc281565b5f546001600160a01b031633146100b4575f5ffd5b6040516370a0823160e01b81523060048201525f9073514910771af9ca656af840dff83e8264ecf986ca906370a0823190602401602060405180830381865afa158015610103573d5f5f3e3d5ffd5b505050506040513d601f19601f8201168201806040525081019061012791906103b1565b60405163095ea7b360e01b81526001600160a01b037f00000000000000000000000000000000000000000000000000000000000000001660048201526024810182905290915073514910771af9ca656af840dff83e8264ecf986ca9063095ea7b3906044016020604051808303815f875af11580156101a8573d5f5f3e3d5ffd5b505050506040513d601f19601f820116820180604052508101906101cc91906103c8565b506040516307dba22560e31b815273514910771af9ca656af840dff83e8264ecf986ca600482015260248101829052600160448201527f00000000000000000000000000000000000000000000000000000000000000006001600160a01b031690633edd11289060640160408051808303815f875af1158015610251573d5f5f3e3d5ffd5b505050506040513d601f19601f8201168201806040525081019061027591906103ee565b5050604051634b8a352960e01b815273c02aaa39b223fe8d0a0e5c4f27ead9083c756cc26004820152670de0b6b3a764000060248201527f00000000000000000000000000000000000000000000000000000000000000006001600160a01b031690634b8a35299060440160408051808303815f875af11580156102fb573d5f5f3e3d5ffd5b505050506040513d601f19601f8201168201806040525081019061031f91906103ee565b50505f5460405163a9059cbb60e01b81526001600160a01b039091166004820152670de0b6b3a7640000602482015273c02aaa39b223fe8d0a0e5c4f27ead9083c756cc29063a9059cbb906044016020604051808303815f875af1158015610389573d5f5f3e3d5ffd5b505050506040513d601f19601f820116820180604052508101906103ad91906103c8565b5050565b5f602082840312156103c1575f5ffd5b5051919050565b5f602082840312156103d8575f5ffd5b815180151581146103e7575f5ffd5b9392505050565b5f5f604083850312156103ff575f5ffd5b50508051602090910151909290915056fea2646970667358221220ed1b037f0d33c65dad1f2b91915c89446e6db2bb50c6f86257db3e1cd8e933ff64736f6c634300081c0033","linkReferences":{}},"methodIdentifiers":{"LINK()":"1b6b6d23","WETH()":"ad5c4648","depositLinkAndBorrowWETH()":"58919cf2"},"id":212}