{"abi":[{"type":"function","name":"ack","inputs":[],"outputs":[],"stateMutability":"nonpayable"},{"type":"function","name":"preStartTimeRewards","inputs":[],"outputs":[],"stateMutability":"nonpayable"}],"bytecode":{"object":"0x60806040525f80546001600160a01b031916739601313572ecd84b6b42dbc3e47bc54f8177558e1790553480156033575f5ffd5b50610587806100415f395ff3fe608060405234801561000f575f5ffd5b5060043610610034575f3560e01c80636478e9ce14610038578063fa2190e614610042575b5f5ffd5b61004061004a565b005b61004061030a565b60405163bc25cf7760e01b81523060048201527394bb269518ad17f1c10c85e600bde481d4999bff9063bc25cf77906024015f604051808303815f87803b158015610093575f5ffd5b505af11580156100a5573d5f5f3e3d5ffd5b50505f546040516370a0823160e01b81523060048201526001600160a01b03909116925063a9059cbb91507394bb269518ad17f1c10c85e600bde481d4999bff9060649084906370a0823190602401602060405180830381865afa15801561010f573d5f5f3e3d5ffd5b505050506040513d601f19601f8201168201806040525081019061013391906104cc565b61013e9060056104e3565b610148919061050c565b6040516001600160e01b031960e085901b1681526001600160a01b03909216600483015260248201526044016020604051808303815f875af1158015610190573d5f5f3e3d5ffd5b505050506040513d601f19601f820116820180604052508101906101b4919061052b565b505f546040516370a0823160e01b81523060048201526001600160a01b039091169063a9059cbb90339083906370a0823190602401602060405180830381865afa158015610204573d5f5f3e3d5ffd5b505050506040513d601f19601f8201168201806040525081019061022891906104cc565b6040516001600160e01b031960e085901b1681526001600160a01b03909216600483015260248201526044016020604051808303815f875af1158015610270573d5f5f3e3d5ffd5b505050506040513d601f19601f82011682018060405250810190610294919061052b565b505f805460405163253eb94160e01b81523060048201526001600160a01b039091169063253eb94190602401602060405180830381865afa1580156102db573d5f5f3e3d5ffd5b505050506040513d601f19601f820116820180604052508101906102ff91906104cc565b11610308575f5ffd5b565b5f546040516370a0823160e01b81523060048201526001600160a01b039091169063a9059cbb90339083906370a0823190602401602060405180830381865afa158015610359573d5f5f3e3d5ffd5b505050506040513d601f19601f8201168201806040525081019061037d91906104cc565b6040516001600160e01b031960e085901b1681526001600160a01b03909216600483015260248201526044016020604051808303815f875af11580156103c5573d5f5f3e3d5ffd5b505050506040513d601f19601f820116820180604052508101906103e9919061052b565b505f546040516370a0823160e01b81523060048201526001600160a01b039091169063a9059cbb90339083906370a0823190602401602060405180830381865afa158015610439573d5f5f3e3d5ffd5b505050506040513d601f19601f8201168201806040525081019061045d91906104cc565b6040516001600160e01b031960e085901b1681526001600160a01b03909216600483015260248201526044016020604051808303815f875af11580156104a5573d5f5f3e3d5ffd5b505050506040513d601f19601f820116820180604052508101906104c9919061052b565b50565b5f602082840312156104dc575f5ffd5b5051919050565b808202811582820484141761050657634e487b7160e01b5f52601160045260245ffd5b92915050565b5f8261052657634e487b7160e01b5f52601260045260245ffd5b500490565b5f6020828403121561053b575f5ffd5b8151801515811461054a575f5ffd5b939250505056fea26469706673582212209d2e709c50f6f131c2c8ec2af2f7331a093fdb1ee1bf6ff8564fc57b6b1a303864736f6c634300081c0033","linkReferences":{}},"methodIdentifiers":{"ack()":"fa2190e6","preStartTimeRewards()":"6478e9ce"},"id":509}