{"abi":[{"type":"receive","stateMutability":"payable"},{"type":"function","name":"start","inputs":[],"outputs":[],"stateMutability":"nonpayable"}],"bytecode":{"object":"0x6080604052348015600e575f5ffd5b50610ba98061001c5f395ff3fe608060405260043610610020575f3560e01c8063be9a65551461002b575f5ffd5b3661002757005b5f5ffd5b348015610036575f5ffd5b5061003f610041565b005b60405163095ea7b360e01b81525f516020610b545f395f51905f5260048201525f196024820152736982508145454ce325ddbe47a25d4ec3d23119339063095ea7b3906044016020604051808303815f875af11580156100a3573d5f5f3e3d5ffd5b505050506040513d601f19601f820116820180604052508101906100c79190610923565b5060405163140e25ad60e31b8152670de0b6b3a764000060048201525f516020610b545f395f51905f529063a0712d68906024016020604051808303815f875af1158015610117573d5f5f3e3d5ffd5b505050506040513d601f19601f8201168201806040525081019061013b9190610949565b505f516020610b545f395f51905f526001600160a01b031663db006a7560025f516020610b545f395f51905f526001600160a01b03166318160ddd6040518163ffffffff1660e01b8152600401602060405180830381865afa1580156101a3573d5f5f3e3d5ffd5b505050506040513d601f19601f820116820180604052508101906101c79190610949565b6101d19190610974565b6040518263ffffffff1660e01b81526004016101ef91815260200190565b6020604051808303815f875af115801561020b573d5f5f3e3d5ffd5b505050506040513d601f19601f8201168201806040525081019061022f9190610949565b506040516370a0823160e01b81523060048201525f90600190736982508145454ce325ddbe47a25d4ec3d2311933906370a0823190602401602060405180830381865afa158015610282573d5f5f3e3d5ffd5b505050506040513d601f19601f820116820180604052508101906102a69190610949565b6102b09190610974565b6040516370a0823160e01b8152306004820152909150736982508145454ce325ddbe47a25d4ec3d23119339063a9059cbb905f516020610b545f395f51905f529083906370a0823190602401602060405180830381865afa158015610317573d5f5f3e3d5ffd5b505050506040513d601f19601f8201168201806040525081019061033b9190610949565b6040516001600160e01b031960e085901b1681526001600160a01b03909216600483015260248201526044016020604051808303815f875af1158015610383573d5f5f3e3d5ffd5b505050506040513d601f19601f820116820180604052508101906103a79190610923565b506040805160018082528183019092525f91602080830190803683370190505090505f516020610b545f395f51905f52815f815181106103e9576103e96109a1565b6001600160a01b0390921660209283029190910190910152604051631853304760e31b8152737d61ed92a6778f5abf5c94085739f1edabec28009063c2998238906104389084906004016109b5565b5f604051808303815f875af1158015610453573d5f5f3e3d5ffd5b505050506040513d5f823e601f3d908101601f1916820160405261047a9190810190610a00565b5073714bd93ab6ab2f0bcfd2aeaf46a46719991d0d796001600160a01b031663c5ebeaec600173714bd93ab6ab2f0bcfd2aeaf46a46719991d0d796001600160a01b0316633b1d21a26040518163ffffffff1660e01b8152600401602060405180830381865afa1580156104f0573d5f5f3e3d5ffd5b505050506040513d601f19601f820116820180604052508101906105149190610949565b61051e9190610974565b6040518263ffffffff1660e01b815260040161053c91815260200190565b6020604051808303815f875af1158015610558573d5f5f3e3d5ffd5b505050506040513d601f19601f8201168201806040525081019061057c9190610949565b506040515f90339047908381818185875af1925050503d805f81146105bc576040519150601f19603f3d011682016040523d82523d5f602084013e6105c1565b606091505b50509050806106165760405162461bcd60e51b815260206004820152601b60248201527f5472616e7366657220455448206e6f74207375636365737366756c0000000000604482015260640160405180910390fd5b60405163852a12e360e01b8152600481018490525f516020610b545f395f51905f529063852a12e3906024016020604051808303815f875af115801561065e573d5f5f3e3d5ffd5b505050506040513d601f19601f820116820180604052508101906106829190610949565b506040516361bfb47160e11b81523060048201525f905f516020610b545f395f51905f529063c37f68e290602401608060405180830381865afa1580156106cb573d5f5f3e3d5ffd5b505050506040513d601f19601f820116820180604052508101906106ef9190610ac8565b60405163c488847b60e01b815273714bd93ab6ab2f0bcfd2aeaf46a46719991d0d7960048201525f516020610b545f395f51905f526024820152600160448201529094505f9350737d61ed92a6778f5abf5c94085739f1edabec2800925063c488847b91506064016040805180830381865afa158015610771573d5f5f3e3d5ffd5b505050506040513d601f19601f820116820180604052508101906107959190610afb565b91505f90506002826107af670de0b6b3a764000086610b1d565b6107b99190610b3c565b6107c39190610974565b60405163140e25ad60e31b8152600481018290529091505f516020610b545f395f51905f529063a0712d68906024016020604051808303815f875af115801561080e573d5f5f3e3d5ffd5b505050506040513d601f19601f820116820180604052508101906108329190610949565b506040516370a0823160e01b8152306004820152736982508145454ce325ddbe47a25d4ec3d23119339063a9059cbb90339083906370a0823190602401602060405180830381865afa15801561088a573d5f5f3e3d5ffd5b505050506040513d601f19601f820116820180604052508101906108ae9190610949565b6040516001600160e01b031960e085901b1681526001600160a01b03909216600483015260248201526044016020604051808303815f875af11580156108f6573d5f5f3e3d5ffd5b505050506040513d601f19601f8201168201806040525081019061091a9190610923565b50505050505050565b5f60208284031215610933575f5ffd5b81518015158114610942575f5ffd5b9392505050565b5f60208284031215610959575f5ffd5b5051919050565b634e487b7160e01b5f52601160045260245ffd5b8181038181111561098757610987610960565b92915050565b634e487b7160e01b5f52604160045260245ffd5b634e487b7160e01b5f52603260045260245ffd5b602080825282518282018190525f918401906040840190835b818110156109f55783516001600160a01b03168352602093840193909201916001016109ce565b509095945050505050565b5f60208284031215610a10575f5ffd5b815167ffffffffffffffff811115610a26575f5ffd5b8201601f81018413610a36575f5ffd5b805167ffffffffffffffff811115610a5057610a5061098d565b8060051b604051601f19603f830116810181811067ffffffffffffffff82111715610a7d57610a7d61098d565b604052918252602081840181019290810187841115610a9a575f5ffd5b6020850194505b83851015610abd57845180825260209586019590935001610aa1565b509695505050505050565b5f5f5f5f60808587031215610adb575f5ffd5b505082516020840151604085015160609095015191969095509092509050565b5f5f60408385031215610b0c575f5ffd5b505080516020909101519092909150565b5f82610b3757634e487b7160e01b5f52601260045260245ffd5b500490565b80820281158282048414176109875761098761096056fe0000000000000000000000005fdbcd61bc9bd4b6d3fd1f49a5d253165ea11750a2646970667358221220cb35ef096fc3f7d6f3c11b6d548570258e59ac804fa8dc80e4348d2d6a90829f64736f6c634300081c0033","linkReferences":{}},"methodIdentifiers":{"start()":"be9a6555"},"id":366}