{"abi":[{"type":"receive","stateMutability":"payable"},{"type":"function","name":"start","inputs":[{"name":"onyxToken","type":"address","internalType":"contract ICErc20Delegate"}],"outputs":[],"stateMutability":"nonpayable"}],"bytecode":{"object":"0x6080604052348015600e575f5ffd5b50610fb88061001c5f395ff3fe608060405260043610610020575f3560e01c8063dd0b281e1461002b575f5ffd5b3661002757005b5f5ffd5b348015610036575f5ffd5b5061004a610045366004610cfc565b61004c565b005b60405163095ea7b360e01b81525f516020610f635f395f51905f5260048201525f196024820152736982508145454ce325ddbe47a25d4ec3d23119339063095ea7b3906044016020604051808303815f875af11580156100ae573d5f5f3e3d5ffd5b505050506040513d601f19601f820116820180604052508101906100d29190610d1e565b5060405163140e25ad60e31b8152670de0b6b3a764000060048201525f516020610f635f395f51905f529063a0712d68906024016020604051808303815f875af1158015610122573d5f5f3e3d5ffd5b505050506040513d601f19601f820116820180604052508101906101469190610d3d565b505f516020610f635f395f51905f526001600160a01b031663db006a7560025f516020610f635f395f51905f526001600160a01b03166318160ddd6040518163ffffffff1660e01b8152600401602060405180830381865afa1580156101ae573d5f5f3e3d5ffd5b505050506040513d601f19601f820116820180604052508101906101d29190610d3d565b6101dc9190610d68565b6040518263ffffffff1660e01b81526004016101fa91815260200190565b6020604051808303815f875af1158015610216573d5f5f3e3d5ffd5b505050506040513d601f19601f8201168201806040525081019061023a9190610d3d565b506040516370a0823160e01b81523060048201525f90600190736982508145454ce325ddbe47a25d4ec3d2311933906370a0823190602401602060405180830381865afa15801561028d573d5f5f3e3d5ffd5b505050506040513d601f19601f820116820180604052508101906102b19190610d3d565b6102bb9190610d68565b6040516370a0823160e01b8152306004820152909150736982508145454ce325ddbe47a25d4ec3d23119339063a9059cbb905f516020610f635f395f51905f529083906370a0823190602401602060405180830381865afa158015610322573d5f5f3e3d5ffd5b505050506040513d601f19601f820116820180604052508101906103469190610d3d565b6040516001600160e01b031960e085901b1681526001600160a01b03909216600483015260248201526044016020604051808303815f875af115801561038e573d5f5f3e3d5ffd5b505050506040513d601f19601f820116820180604052508101906103b29190610d1e565b506040805160018082528183019092525f91602080830190803683370190505090505f516020610f635f395f51905f52815f815181106103f4576103f4610d95565b6001600160a01b0390921660209283029190910190910152604051631853304760e31b8152737d61ed92a6778f5abf5c94085739f1edabec28009063c299823890610443908490600401610da9565b5f604051808303815f875af115801561045e573d5f5f3e3d5ffd5b505050506040513d5f823e601f3d908101601f191682016040526104859190810190610df4565b50826001600160a01b031663c5ebeaec6001856001600160a01b0316633b1d21a26040518163ffffffff1660e01b8152600401602060405180830381865afa1580156104d3573d5f5f3e3d5ffd5b505050506040513d601f19601f820116820180604052508101906104f79190610d3d565b6105019190610d68565b6040518263ffffffff1660e01b815260040161051f91815260200190565b6020604051808303815f875af115801561053b573d5f5f3e3d5ffd5b505050506040513d601f19601f8201168201806040525081019061055f9190610d3d565b5073a0b86991c6218b36c1d19d4a2e9eb0ce3606eb486001600160a01b0316836001600160a01b0316636f307dc36040518163ffffffff1660e01b8152600401602060405180830381865afa1580156105ba573d5f5f3e3d5ffd5b505050506040513d601f19601f820116820180604052508101906105de9190610ebc565b6001600160a01b0316036106d9576040516370a0823160e01b815230600482015273a0b86991c6218b36c1d19d4a2e9eb0ce3606eb489063a9059cbb90339083906370a0823190602401602060405180830381865afa158015610643573d5f5f3e3d5ffd5b505050506040513d601f19601f820116820180604052508101906106679190610d3d565b6040516001600160e01b031960e085901b1681526001600160a01b03909216600483015260248201526044016020604051808303815f875af11580156106af573d5f5f3e3d5ffd5b505050506040513d601f19601f820116820180604052508101906106d39190610d1e565b506109e3565b73dac17f958d2ee523a2206206994597c13d831ec76001600160a01b0316836001600160a01b0316636f307dc36040518163ffffffff1660e01b8152600401602060405180830381865afa158015610733573d5f5f3e3d5ffd5b505050506040513d601f19601f820116820180604052508101906107579190610ebc565b6001600160a01b03160361083e576040516370a0823160e01b815230600482015273dac17f958d2ee523a2206206994597c13d831ec79063a9059cbb90339083906370a0823190602401602060405180830381865afa1580156107bc573d5f5f3e3d5ffd5b505050506040513d601f19601f820116820180604052508101906107e09190610d3d565b6040516001600160e01b031960e085901b1681526001600160a01b03909216600483015260248201526044015f604051808303815f87803b158015610823575f5ffd5b505af1158015610835573d5f5f3e3d5ffd5b505050506109e3565b826001600160a01b0316636f307dc36040518163ffffffff1660e01b8152600401602060405180830381865afa15801561087a573d5f5f3e3d5ffd5b505050506040513d601f19601f8201168201806040525081019061089e9190610ebc565b6001600160a01b031663a9059cbb33856001600160a01b0316636f307dc36040518163ffffffff1660e01b8152600401602060405180830381865afa1580156108e9573d5f5f3e3d5ffd5b505050506040513d601f19601f8201168201806040525081019061090d9190610ebc565b6040516370a0823160e01b81523060048201526001600160a01b0391909116906370a0823190602401602060405180830381865afa158015610951573d5f5f3e3d5ffd5b505050506040513d601f19601f820116820180604052508101906109759190610d3d565b6040516001600160e01b031960e085901b1681526001600160a01b03909216600483015260248201526044016020604051808303815f875af11580156109bd573d5f5f3e3d5ffd5b505050506040513d601f19601f820116820180604052508101906109e19190610d1e565b505b60405163852a12e360e01b8152600481018390525f516020610f635f395f51905f529063852a12e3906024016020604051808303815f875af1158015610a2b573d5f5f3e3d5ffd5b505050506040513d601f19601f82011682018060405250810190610a4f9190610d3d565b506040516361bfb47160e11b81523060048201525f905f516020610f635f395f51905f529063c37f68e290602401608060405180830381865afa158015610a98573d5f5f3e3d5ffd5b505050506040513d601f19601f82011682018060405250810190610abc9190610ed7565b60405163c488847b60e01b81526001600160a01b03891660048201525f516020610f635f395f51905f526024820152600160448201529094505f9350737d61ed92a6778f5abf5c94085739f1edabec2800925063c488847b91506064016040805180830381865afa158015610b33573d5f5f3e3d5ffd5b505050506040513d601f19601f82011682018060405250810190610b579190610f0a565b91505f9050600282610b71670de0b6b3a764000086610f2c565b610b7b9190610f4b565b610b859190610d68565b60405163140e25ad60e31b8152600481018290529091505f516020610f635f395f51905f529063a0712d68906024016020604051808303815f875af1158015610bd0573d5f5f3e3d5ffd5b505050506040513d601f19601f82011682018060405250810190610bf49190610d3d565b506040516370a0823160e01b8152306004820152736982508145454ce325ddbe47a25d4ec3d23119339063a9059cbb90339083906370a0823190602401602060405180830381865afa158015610c4c573d5f5f3e3d5ffd5b505050506040513d601f19601f82011682018060405250810190610c709190610d3d565b6040516001600160e01b031960e085901b1681526001600160a01b03909216600483015260248201526044016020604051808303815f875af1158015610cb8573d5f5f3e3d5ffd5b505050506040513d601f19601f82011682018060405250810190610cdc9190610d1e565b50505050505050565b6001600160a01b0381168114610cf9575f5ffd5b50565b5f60208284031215610d0c575f5ffd5b8135610d1781610ce5565b9392505050565b5f60208284031215610d2e575f5ffd5b81518015158114610d17575f5ffd5b5f60208284031215610d4d575f5ffd5b5051919050565b634e487b7160e01b5f52601160045260245ffd5b81810381811115610d7b57610d7b610d54565b92915050565b634e487b7160e01b5f52604160045260245ffd5b634e487b7160e01b5f52603260045260245ffd5b602080825282518282018190525f918401906040840190835b81811015610de95783516001600160a01b0316835260209384019390920191600101610dc2565b509095945050505050565b5f60208284031215610e04575f5ffd5b815167ffffffffffffffff811115610e1a575f5ffd5b8201601f81018413610e2a575f5ffd5b805167ffffffffffffffff811115610e4457610e44610d81565b8060051b604051601f19603f830116810181811067ffffffffffffffff82111715610e7157610e71610d81565b604052918252602081840181019290810187841115610e8e575f5ffd5b6020850194505b83851015610eb157845180825260209586019590935001610e95565b509695505050505050565b5f60208284031215610ecc575f5ffd5b8151610d1781610ce5565b5f5f5f5f60808587031215610eea575f5ffd5b505082516020840151604085015160609095015191969095509092509050565b5f5f60408385031215610f1b575f5ffd5b505080516020909101519092909150565b5f82610f4657634e487b7160e01b5f52601260045260245ffd5b500490565b8082028115828204841417610d7b57610d7b610d5456fe0000000000000000000000005fdbcd61bc9bd4b6d3fd1f49a5d253165ea11750a264697066735822122066c1f1c4aaf39c697ee0da82697435b529db5043ed2ebf69426e6816ed21cd8564736f6c634300081c0033","linkReferences":{}},"methodIdentifiers":{"start(address)":"dd0b281e"},"id":366}