{"abi":[{"type":"constructor","inputs":[{"name":"target","type":"address","internalType":"address"}],"stateMutability":"nonpayable"},{"type":"function","name":"rekt","inputs":[],"outputs":[],"stateMutability":"nonpayable"}],"bytecode":{"object":"0x6080604052600280546001600160a01b0319908116732de7bbaaab48eac228449584f94636bb20d63e65179091556003805482167342000000000000000000000000000000000000061790556004805490911673d417c28af20884088f600e724441a3bab38b22cc179055348015610075575f5ffd5b506040516102ff3803806102ff833981016040819052610094916100c6565b5f8054336001600160a01b031991821617909155600180549091166001600160a01b03929092169190911790556100f3565b5f602082840312156100d6575f5ffd5b81516001600160a01b03811681146100ec575f5ffd5b9392505050565b6101ff806101005f395ff3fe608060405234801561000f575f5ffd5b5060043610610029575f3560e01c8063d362ae491461002d575b5f5ffd5b610035610037565b005b6003546002545f546040516370a0823160e01b81526001600160a01b0392831660048201819052938316936323b872dd939092169084906370a0823190602401602060405180830381865afa158015610092573d5f5f3e3d5ffd5b505050506040513d601f19601f820116820180604052508101906100b6919061018c565b6040516001600160e01b031960e086901b1681526001600160a01b03938416600482015292909116602483015260448201526064016020604051808303815f875af1158015610107573d5f5f3e3d5ffd5b505050506040513d601f19601f8201168201806040525081019061012b91906101a3565b50600480546001546040516306535d2560e21b81526001600160a01b0391821693810193909352169063194d7494906024015f604051808303815f87803b158015610174575f5ffd5b505af1158015610186573d5f5f3e3d5ffd5b50505050565b5f6020828403121561019c575f5ffd5b5051919050565b5f602082840312156101b3575f5ffd5b815180151581146101c2575f5ffd5b939250505056fea264697066735822122015582a665c3df4a5567fe195342901ea8acf1f23ea9572f28c8227bea1a5717864736f6c634300081c0033","linkReferences":{}},"methodIdentifiers":{"rekt()":"d362ae49"},"id":261}