{"abi":[{"type":"constructor","inputs":[],"stateMutability":"nonpayable"},{"type":"function","name":"allowance","inputs":[{"name":"owner","type":"address","internalType":"address"},{"name":"spender","type":"address","internalType":"address"}],"outputs":[{"name":"","type":"uint256","internalType":"uint256"}],"stateMutability":"view"},{"type":"function","name":"approve","inputs":[{"name":"spender","type":"address","internalType":"address"},{"name":"amount","type":"uint256","internalType":"uint256"}],"outputs":[{"name":"","type":"bool","internalType":"bool"}],"stateMutability":"nonpayable"},{"type":"function","name":"balanceOf","inputs":[{"name":"account","type":"address","internalType":"address"}],"outputs":[{"name":"","type":"uint256","internalType":"uint256"}],"stateMutability":"view"},{"type":"function","name":"burn","inputs":[{"name":"to","type":"address","internalType":"address"}],"outputs":[{"name":"","type":"uint256","internalType":"uint256"},{"name":"","type":"uint256","internalType":"uint256"}],"stateMutability":"nonpayable"},{"type":"function","name":"decreaseAllowance","inputs":[{"name":"spender","type":"address","internalType":"address"},{"name":"subtractedValue","type":"uint256","internalType":"uint256"}],"outputs":[{"name":"","type":"bool","internalType":"bool"}],"stateMutability":"nonpayable"},{"type":"function","name":"increaseAllowance","inputs":[{"name":"spender","type":"address","internalType":"address"},{"name":"addedValue","type":"uint256","internalType":"uint256"}],"outputs":[{"name":"","type":"bool","internalType":"bool"}],"stateMutability":"nonpayable"},{"type":"function","name":"transfer","inputs":[{"name":"to","type":"address","internalType":"address"},{"name":"amount","type":"uint256","internalType":"uint256"}],"outputs":[{"name":"","type":"bool","internalType":"bool"}],"stateMutability":"nonpayable"},{"type":"function","name":"transferFrom","inputs":[{"name":"from","type":"address","internalType":"address"},{"name":"to","type":"address","internalType":"address"},{"name":"amount","type":"uint256","internalType":"uint256"}],"outputs":[{"name":"","type":"bool","internalType":"bool"}],"stateMutability":"nonpayable"},{"type":"function","name":"update","inputs":[{"name":"t0","type":"uint256","internalType":"uint256"},{"name":"t1","type":"uint256","internalType":"uint256"}],"outputs":[],"stateMutability":"nonpayable"}],"bytecode":{"object":"0x608060405234801561000f575f5ffd5b506040805180820182526008808252673330b5b2a830b4b960c11b602080840182905284518086019095529184529083015290600361004e83826101ad565b50600461005b82826101ad565b50505061007f33701d6329f1c35ca4bfabb9f561000000000061008460201b60201c565b61028c565b6001600160a01b0382166100de5760405162461bcd60e51b815260206004820152601f60248201527f45524332303a206d696e7420746f20746865207a65726f206164647265737300604482015260640160405180910390fd5b8060025f8282546100ef9190610267565b90915550506001600160a01b039091165f90815260208190526040902080549091019055565b634e487b7160e01b5f52604160045260245ffd5b600181811c9082168061013d57607f821691505b60208210810361015b57634e487b7160e01b5f52602260045260245ffd5b50919050565b601f8211156101a857805f5260205f20601f840160051c810160208510156101865750805b601f840160051c820191505b818110156101a5575f8155600101610192565b50505b505050565b81516001600160401b038111156101c6576101c6610115565b6101da816101d48454610129565b84610161565b6020601f82116001811461020c575f83156101f55750848201515b5f19600385901b1c1916600184901b1784556101a5565b5f84815260208120601f198516915b8281101561023b578785015182556020948501946001909201910161021b565b508482101561025857868401515f19600387901b60f8161c191681555b50505050600190811b01905550565b8082018082111561028657634e487b7160e01b5f52601160045260245ffd5b92915050565b6106c5806102995f395ff3fe608060405234801561000f575f5ffd5b5060043610610090575f3560e01c806370a082311161006357806370a08231146100fd57806389afcb4414610133578063a457c2d714610161578063a9059cbb14610174578063dd62ed3e14610187575f5ffd5b8063095ea7b31461009457806323b872dd146100bc5780632fb565e8146100cf57806339509351146100ea575b5f5ffd5b6100a76100a236600461059d565b61019a565b60405190151581526020015b60405180910390f35b6100a76100ca3660046105c5565b6101b3565b6100e86100dd3660046105ff565b600591909155600655565b005b6100a76100f836600461059d565b6101d6565b61012561010b36600461061f565b6001600160a01b03165f9081526020819052604090205490565b6040519081526020016100b3565b61014c61014136600461061f565b506005546006549091565b604080519283526020830191909152016100b3565b6100a761016f36600461059d565b6101f7565b6100a761018236600461059d565b610276565b61012561019536600461063f565b610283565b5f336101a78185856102ad565b60019150505b92915050565b5f336101c085828561039b565b6101cb858585610413565b506001949350505050565b5f336101a78185856101e88383610283565b6101f29190610670565b6102ad565b5f33816102048286610283565b9050838110156102695760405162461bcd60e51b815260206004820152602560248201527f45524332303a2064656372656173656420616c6c6f77616e63652062656c6f77604482015264207a65726f60d81b60648201526084015b60405180910390fd5b6101cb82868684036102ad565b5f336101a7818585610413565b6001600160a01b039182165f90815260016020908152604080832093909416825291909152205490565b6001600160a01b03831661030f5760405162461bcd60e51b8152602060048201526024808201527f45524332303a20617070726f76652066726f6d20746865207a65726f206164646044820152637265737360e01b6064820152608401610260565b6001600160a01b0382166103705760405162461bcd60e51b815260206004820152602260248201527f45524332303a20617070726f766520746f20746865207a65726f206164647265604482015261737360f01b6064820152608401610260565b6001600160a01b039283165f9081526001602090815260408083209490951682529290925291902055565b5f6103a68484610283565b90505f19811461040d57818110156104005760405162461bcd60e51b815260206004820152601d60248201527f45524332303a20696e73756666696369656e7420616c6c6f77616e63650000006044820152606401610260565b61040d84848484036102ad565b50505050565b6001600160a01b0383166104775760405162461bcd60e51b815260206004820152602560248201527f45524332303a207472616e736665722066726f6d20746865207a65726f206164604482015264647265737360d81b6064820152608401610260565b6001600160a01b0382166104d95760405162461bcd60e51b815260206004820152602360248201527f45524332303a207472616e7366657220746f20746865207a65726f206164647260448201526265737360e81b6064820152608401610260565b6001600160a01b0383165f90815260208190526040902054818110156105505760405162461bcd60e51b815260206004820152602660248201527f45524332303a207472616e7366657220616d6f756e7420657863656564732062604482015265616c616e636560d01b6064820152608401610260565b6001600160a01b039384165f908152602081905260408082209284900390925592909316825291902080549091019055565b80356001600160a01b0381168114610598575f5ffd5b919050565b5f5f604083850312156105ae575f5ffd5b6105b783610582565b946020939093013593505050565b5f5f5f606084860312156105d7575f5ffd5b6105e084610582565b92506105ee60208501610582565b929592945050506040919091013590565b5f5f60408385031215610610575f5ffd5b50508035926020909101359150565b5f6020828403121561062f575f5ffd5b61063882610582565b9392505050565b5f5f60408385031215610650575f5ffd5b61065983610582565b915061066760208401610582565b90509250929050565b808201808211156101ad57634e487b7160e01b5f52601160045260245ffdfea2646970667358221220db0f663b543f7b99f97d64e5da981c41d4ba16b6bedb01fe69a9d69ffc9c629864736f6c634300081c0033","linkReferences":{}},"methodIdentifiers":{"allowance(address,address)":"dd62ed3e","approve(address,uint256)":"095ea7b3","balanceOf(address)":"70a08231","burn(address)":"89afcb44","decreaseAllowance(address,uint256)":"a457c2d7","increaseAllowance(address,uint256)":"39509351","transfer(address,uint256)":"a9059cbb","transferFrom(address,address,uint256)":"23b872dd","update(uint256,uint256)":"2fb565e8"},"id":239}