{"abi":[{"type":"constructor","inputs":[{"name":"name_","type":"string","internalType":"string"},{"name":"symbol_","type":"string","internalType":"string"}],"stateMutability":"nonpayable"},{"type":"function","name":"allowance","inputs":[{"name":"owner","type":"address","internalType":"address"},{"name":"spender","type":"address","internalType":"address"}],"outputs":[{"name":"","type":"uint256","internalType":"uint256"}],"stateMutability":"view"},{"type":"function","name":"approve","inputs":[{"name":"spender","type":"address","internalType":"address"},{"name":"amount","type":"uint256","internalType":"uint256"}],"outputs":[{"name":"","type":"bool","internalType":"bool"}],"stateMutability":"nonpayable"},{"type":"function","name":"balanceOf","inputs":[{"name":"account","type":"address","internalType":"address"}],"outputs":[{"name":"","type":"uint256","internalType":"uint256"}],"stateMutability":"view"},{"type":"function","name":"decreaseAllowance","inputs":[{"name":"spender","type":"address","internalType":"address"},{"name":"subtractedValue","type":"uint256","internalType":"uint256"}],"outputs":[{"name":"","type":"bool","internalType":"bool"}],"stateMutability":"nonpayable"},{"type":"function","name":"increaseAllowance","inputs":[{"name":"spender","type":"address","internalType":"address"},{"name":"addedValue","type":"uint256","internalType":"uint256"}],"outputs":[{"name":"","type":"bool","internalType":"bool"}],"stateMutability":"nonpayable"},{"type":"function","name":"transfer","inputs":[{"name":"to","type":"address","internalType":"address"},{"name":"amount","type":"uint256","internalType":"uint256"}],"outputs":[{"name":"","type":"bool","internalType":"bool"}],"stateMutability":"nonpayable"},{"type":"function","name":"transferFrom","inputs":[{"name":"from","type":"address","internalType":"address"},{"name":"to","type":"address","internalType":"address"},{"name":"amount","type":"uint256","internalType":"uint256"}],"outputs":[{"name":"","type":"bool","internalType":"bool"}],"stateMutability":"nonpayable"}],"bytecode":{"object":"0x608060405234801561000f575f5ffd5b506040516108e23803806108e283398101604081905261002e916100ec565b600361003a83826101d5565b50600461004782826101d5565b50505061028f565b634e487b7160e01b5f52604160045260245ffd5b5f82601f830112610072575f5ffd5b81516001600160401b0381111561008b5761008b61004f565b604051601f8201601f19908116603f011681016001600160401b03811182821017156100b9576100b961004f565b6040528181528382016020018510156100d0575f5ffd5b8160208501602083015e5f918101602001919091529392505050565b5f5f604083850312156100fd575f5ffd5b82516001600160401b03811115610112575f5ffd5b61011e85828601610063565b602085015190935090506001600160401b0381111561013b575f5ffd5b61014785828601610063565b9150509250929050565b600181811c9082168061016557607f821691505b60208210810361018357634e487b7160e01b5f52602260045260245ffd5b50919050565b601f8211156101d057805f5260205f20601f840160051c810160208510156101ae5750805b601f840160051c820191505b818110156101cd575f81556001016101ba565b50505b505050565b81516001600160401b038111156101ee576101ee61004f565b610202816101fc8454610151565b84610189565b6020601f821160018114610234575f831561021d5750848201515b5f19600385901b1c1916600184901b1784556101cd565b5f84815260208120601f198516915b828110156102635787850151825560209485019460019092019101610243565b508482101561028057868401515f19600387901b60f8161c191681555b50505050600190811b01905550565b6106468061029c5f395ff3fe608060405234801561000f575f5ffd5b506004361061007a575f3560e01c806370a082311161005857806370a08231146100cc578063a457c2d714610102578063a9059cbb14610115578063dd62ed3e14610128575f5ffd5b8063095ea7b31461007e57806323b872dd146100a657806339509351146100b9575b5f5ffd5b61009161008c36600461053e565b61013b565b60405190151581526020015b60405180910390f35b6100916100b4366004610566565b610154565b6100916100c736600461053e565b610177565b6100f46100da3660046105a0565b6001600160a01b03165f9081526020819052604090205490565b60405190815260200161009d565b61009161011036600461053e565b610198565b61009161012336600461053e565b610217565b6100f46101363660046105c0565b610224565b5f3361014881858561024e565b60019150505b92915050565b5f3361016185828561033c565b61016c8585856103b4565b506001949350505050565b5f336101488185856101898383610224565b61019391906105f1565b61024e565b5f33816101a58286610224565b90508381101561020a5760405162461bcd60e51b815260206004820152602560248201527f45524332303a2064656372656173656420616c6c6f77616e63652062656c6f77604482015264207a65726f60d81b60648201526084015b60405180910390fd5b61016c828686840361024e565b5f336101488185856103b4565b6001600160a01b039182165f90815260016020908152604080832093909416825291909152205490565b6001600160a01b0383166102b05760405162461bcd60e51b8152602060048201526024808201527f45524332303a20617070726f76652066726f6d20746865207a65726f206164646044820152637265737360e01b6064820152608401610201565b6001600160a01b0382166103115760405162461bcd60e51b815260206004820152602260248201527f45524332303a20617070726f766520746f20746865207a65726f206164647265604482015261737360f01b6064820152608401610201565b6001600160a01b039283165f9081526001602090815260408083209490951682529290925291902055565b5f6103478484610224565b90505f1981146103ae57818110156103a15760405162461bcd60e51b815260206004820152601d60248201527f45524332303a20696e73756666696369656e7420616c6c6f77616e63650000006044820152606401610201565b6103ae848484840361024e565b50505050565b6001600160a01b0383166104185760405162461bcd60e51b815260206004820152602560248201527f45524332303a207472616e736665722066726f6d20746865207a65726f206164604482015264647265737360d81b6064820152608401610201565b6001600160a01b03821661047a5760405162461bcd60e51b815260206004820152602360248201527f45524332303a207472616e7366657220746f20746865207a65726f206164647260448201526265737360e81b6064820152608401610201565b6001600160a01b0383165f90815260208190526040902054818110156104f15760405162461bcd60e51b815260206004820152602660248201527f45524332303a207472616e7366657220616d6f756e7420657863656564732062604482015265616c616e636560d01b6064820152608401610201565b6001600160a01b039384165f908152602081905260408082209284900390925592909316825291902080549091019055565b80356001600160a01b0381168114610539575f5ffd5b919050565b5f5f6040838503121561054f575f5ffd5b61055883610523565b946020939093013593505050565b5f5f5f60608486031215610578575f5ffd5b61058184610523565b925061058f60208501610523565b929592945050506040919091013590565b5f602082840312156105b0575f5ffd5b6105b982610523565b9392505050565b5f5f604083850312156105d1575f5ffd5b6105da83610523565b91506105e860208401610523565b90509250929050565b8082018082111561014e57634e487b7160e01b5f52601160045260245ffdfea264697066735822122058875478892a72af27924e8491dda91b8afdbefeb8283c13a946f2cb4aa060f564736f6c634300081c0033","linkReferences":{}},"methodIdentifiers":{"allowance(address,address)":"dd62ed3e","approve(address,uint256)":"095ea7b3","balanceOf(address)":"70a08231","decreaseAllowance(address,uint256)":"a457c2d7","increaseAllowance(address,uint256)":"39509351","transfer(address,uint256)":"a9059cbb","transferFrom(address,address,uint256)":"23b872dd"},"id":239}