{"abi":[{"type":"receive","stateMutability":"payable"},{"type":"function","name":"executeOperation","inputs":[{"name":"assets","type":"address[]","internalType":"address[]"},{"name":"amounts","type":"uint256[]","internalType":"uint256[]"},{"name":"premiums","type":"uint256[]","internalType":"uint256[]"},{"name":"initiator","type":"address","internalType":"address"},{"name":"params","type":"bytes","internalType":"bytes"}],"outputs":[{"name":"","type":"bool","internalType":"bool"}],"stateMutability":"payable"},{"type":"function","name":"justDoIt","inputs":[{"name":"paramAddress","type":"address","internalType":"address"}],"outputs":[],"stateMutability":"nonpayable"}],"bytecode":{"object":"0x6080604052600180546001600160a01b0319908116733d5bc3c8d13dcb8bf317092d84783c2697ae925817909155600280548216737d2768de32b0b80b7a3454c06bdac94a69ddc7a91790556003805490911673c02aaa39b223fe8d0a0e5c4f27ead9083c756cc21790553480156074575f5ffd5b506114dd806100825f395ff3fe60806040526004361061002b575f3560e01c8063920f5c8414610036578063e770d97c1461005d575f5ffd5b3661003257005b5f5ffd5b610049610044366004610ff8565b61007e565b604051901515815260200160405180910390f35b348015610068575f5ffd5b5061007c610077366004611105565b610d3c565b005b5f6100a060405180606001604052806029815260200161135060299139610ee6565b6003545f5460405163a9059cbb60e01b81526001600160a01b03918216600482015269014542ba12a337c00000602482015291169063a9059cbb906044016020604051808303815f875af11580156100fa573d5f5f3e3d5ffd5b505050506040513d601f19601f8201168201806040525081019061011e9190611125565b506101406040518060800160405280604e8152602001611435604e9139610ee6565b600354604051696db65d9e69f52998000060248201526001600160a01b039091169060440160408051601f198184030181529181526020820180516001600160e01b0316632e1a7d4d60e01b1790525161019a9190611144565b5f604051808303815f865af19150503d805f81146101d3576040519150601f19603f3d011682016040523d82523d5f602084013e6101d8565b606091505b50505073d06527d5e56a3495252a528c4987003b712860ee6001600160a01b0316631249c58b696db65d9e69f5299800006040518263ffffffff1660e01b81526004015f604051808303818588803b158015610232575f5ffd5b505af1158015610244573d5f5f3e3d5ffd5b505050505061026a60405180606001604052806025815260200161148360259139610ee6565b6040805160018082528183019092525f916020808301908036833701905050905073d06527d5e56a3495252a528c4987003b712860ee815f815181106102b2576102b261115a565b6001600160a01b039283166020918202929092010152600154604051631853304760e31b815291169063c2998238906102ef9084906004016111b1565b5f604051808303815f87803b158015610306575f5ffd5b505af1158015610318573d5f5f3e3d5ffd5b5050505061033d60405180606001604052806021815260200161130a60219139610ee6565b61035e6040518060a00160405280606581526020016113d060659139610ee6565b60405163095ea7b360e01b8152734baa77013ccd6705ab0522853cb0e9d453579dd460048201525f196024820152734b5bfd52124784745c1071dcb244c6688d2533d39063095ea7b3906044016020604051808303815f875af11580156103c7573d5f5f3e3d5ffd5b505050506040513d601f19601f820116820180604052508101906103eb9190611125565b506040516370a0823160e01b8152734baa77013ccd6705ab0522853cb0e9d453579dd4600482018190529063c5ebeaec90734b5bfd52124784745c1071dcb244c6688d2533d3906370a0823190602401602060405180830381865afa158015610456573d5f5f3e3d5ffd5b505050506040513d601f19601f8201168201806040525081019061047a91906111c3565b6040518263ffffffff1660e01b815260040161049891815260200190565b5f604051808303815f87803b1580156104af575f5ffd5b505af11580156104c1573d5f5f3e3d5ffd5b50506040516370a0823160e01b8152306004820152734baa77013ccd6705ab0522853cb0e9d453579dd4925063a0712d689150734b5bfd52124784745c1071dcb244c6688d2533d3906370a0823190602401602060405180830381865afa15801561052e573d5f5f3e3d5ffd5b505050506040513d601f19601f8201168201806040525081019061055291906111c3565b6040518263ffffffff1660e01b815260040161057091815260200190565b5f604051808303815f87803b158015610587575f5ffd5b505af1158015610599573d5f5f3e3d5ffd5b50505f546040516370a0823160e01b8152306004820152734baa77013ccd6705ab0522853cb0e9d453579dd4935063a9059cbb92506001600160a01b039091169083906370a0823190602401602060405180830381865afa158015610600573d5f5f3e3d5ffd5b505050506040513d601f19601f8201168201806040525081019061062491906111c3565b6040516001600160e01b031960e085901b1681526001600160a01b03909216600483015260248201526044016020604051808303815f875af115801561066c573d5f5f3e3d5ffd5b505050506040513d601f19601f820116820180604052508101906106909190611125565b506040516370a0823160e01b8152734baa77013ccd6705ab0522853cb0e9d453579dd4600482018190529063c5ebeaec90734b5bfd52124784745c1071dcb244c6688d2533d3906370a0823190602401602060405180830381865afa1580156106fb573d5f5f3e3d5ffd5b505050506040513d601f19601f8201168201806040525081019061071f91906111c3565b6040518263ffffffff1660e01b815260040161073d91815260200190565b5f604051808303815f87803b158015610754575f5ffd5b505af1158015610766573d5f5f3e3d5ffd5b50506040516370a0823160e01b8152306004820152734baa77013ccd6705ab0522853cb0e9d453579dd4925063a0712d689150734b5bfd52124784745c1071dcb244c6688d2533d3906370a0823190602401602060405180830381865afa1580156107d3573d5f5f3e3d5ffd5b505050506040513d601f19601f820116820180604052508101906107f791906111c3565b6040518263ffffffff1660e01b815260040161081591815260200190565b5f604051808303815f87803b15801561082c575f5ffd5b505af115801561083e573d5f5f3e3d5ffd5b50505f546040516370a0823160e01b8152306004820152734baa77013ccd6705ab0522853cb0e9d453579dd4935063a9059cbb92506001600160a01b039091169083906370a0823190602401602060405180830381865afa1580156108a5573d5f5f3e3d5ffd5b505050506040513d601f19601f820116820180604052508101906108c991906111c3565b6040516001600160e01b031960e085901b1681526001600160a01b03909216600483015260248201526044016020604051808303815f875af1158015610911573d5f5f3e3d5ffd5b505050506040513d601f19601f820116820180604052508101906109359190611125565b506109e460405180606001604052806025815260200161132b602591395f546040516370a0823160e01b81526001600160a01b0390911660048201526305f5e10090734baa77013ccd6705ab0522853cb0e9d453579dd4906370a0823190602401602060405180830381865afa1580156109b1573d5f5f3e3d5ffd5b505050506040513d601f19601f820116820180604052508101906109d591906111c3565b6109df91906111da565b610f2c565b610a056040518060600160405280602c8152602001611379602c9139610ee6565b6040516370a0823160e01b8152734baa77013ccd6705ab0522853cb0e9d453579dd4600482018190529063c5ebeaec90734b5bfd52124784745c1071dcb244c6688d2533d3906370a0823190602401602060405180830381865afa158015610a6f573d5f5f3e3d5ffd5b505050506040513d601f19601f82011682018060405250810190610a9391906111c3565b6040518263ffffffff1660e01b8152600401610ab191815260200190565b5f604051808303815f87803b158015610ac8575f5ffd5b505af1158015610ada573d5f5f3e3d5ffd5b50505f546040516370a0823160e01b8152306004820152734b5bfd52124784745c1071dcb244c6688d2533d3935063a9059cbb92506001600160a01b039091169083906370a0823190602401602060405180830381865afa158015610b41573d5f5f3e3d5ffd5b505050506040513d601f19601f82011682018060405250810190610b6591906111c3565b6040516001600160e01b031960e085901b1681526001600160a01b03909216600483015260248201526044016020604051808303815f875af1158015610bad573d5f5f3e3d5ffd5b505050506040513d601f19601f82011682018060405250810190610bd19190611125565b50610bf36040518060600160405280602b81526020016113a5602b9139610ee6565b5f5460408051600481526024810182526020810180516001600160e01b031663b29f083560e01b17905290516001600160a01b0390921691610c359190611144565b5f604051808303815f865af19150503d805f8114610c6e576040519150601f19603f3d011682016040523d82523d5f602084013e610c73565b606091505b505050610cb46040518060400160405280601a81526020017f5b31352e205265706179204161766520466c6173684c6f616e5d000000000000815250610ee6565b60035460025460405163095ea7b360e01b81526001600160a01b0391821660048201525f19602482015291169063095ea7b3906044016020604051808303815f875af1158015610d06573d5f5f3e3d5ffd5b505050506040513d601f19601f82011682018060405250810190610d2a9190611125565b5060019b9a5050505050505050505050565b5f80546001600160a01b0319166001600160a01b0383161781556040805160018082528183019092529060208083019080368337505060035482519293506001600160a01b0316918391505f90610d9557610d9561115a565b6001600160a01b0392909216602092830291909101909101526040805160018082528183019092525f91816020016020820280368337019050509050696efba0587c9861580000815f81518110610dee57610dee61115a565b60209081029190910101526040805160018082528183019092525f918160200160208202803683370190505090505f815f81518110610e2f57610e2f61115a565b602002602001018181525050610e796040518060400160405280602081526020017f5b372e204161766520466c6173684c6f616e203532345f31303220574554485d815250610ee6565b60025460405163ab9c4b5d60e01b81526001600160a01b039091169063ab9c4b5d90610eb390309087908790879084905f90600401611229565b5f604051808303815f87803b158015610eca575f5ffd5b505af1158015610edc573d5f5f3e3d5ffd5b5050505050505050565b610f2981604051602401610efa91906112d6565b60408051601f198184030181529190526020810180516001600160e01b031663104c13eb60e21b179052610f75565b50565b610f718282604051602401610f429291906112e8565b60408051601f198184030181529190526020810180516001600160e01b03166309710a9d60e41b179052610f75565b5050565b80516a636f6e736f6c652e6c6f67602083015f808483855afa5050505050565b5f5f83601f840112610fa5575f5ffd5b50813567ffffffffffffffff811115610fbc575f5ffd5b6020830191508360208260051b8501011115610fd6575f5ffd5b9250929050565b80356001600160a01b0381168114610ff3575f5ffd5b919050565b5f5f5f5f5f5f5f5f5f60a08a8c031215611010575f5ffd5b893567ffffffffffffffff811115611026575f5ffd5b6110328c828d01610f95565b909a5098505060208a013567ffffffffffffffff811115611051575f5ffd5b61105d8c828d01610f95565b90985096505060408a013567ffffffffffffffff81111561107c575f5ffd5b6110888c828d01610f95565b909650945061109b905060608b01610fdd565b925060808a013567ffffffffffffffff8111156110b6575f5ffd5b8a01601f81018c136110c6575f5ffd5b803567ffffffffffffffff8111156110dc575f5ffd5b8c60208284010111156110ed575f5ffd5b60208201935080925050509295985092959850929598565b5f60208284031215611115575f5ffd5b61111e82610fdd565b9392505050565b5f60208284031215611135575f5ffd5b8151801515811461111e575f5ffd5b5f82518060208501845e5f920191825250919050565b634e487b7160e01b5f52603260045260245ffd5b5f8151808452602084019350602083015f5b828110156111a75781516001600160a01b0316865260209586019590910190600101611180565b5093949350505050565b602081525f61111e602083018461116e565b5f602082840312156111d3575f5ffd5b5051919050565b5f826111f457634e487b7160e01b5f52601260045260245ffd5b500490565b5f8151808452602084019350602083015f5b828110156111a757815186526020958601959091019060010161120b565b6001600160a01b038716815260e0602082018190525f9061124c9083018861116e565b828103604084015261125e81886111f9565b9050828103606084015261127281876111f9565b6001600160a01b03959095166080840152505080830360a08201525f835261ffff9190911660c090910152602001949350505050565b5f81518084528060208401602086015e5f602082860101526020601f19601f83011685010191505092915050565b602081525f61111e60208301846112a8565b604081525f6112fa60408301856112a8565b9050826020830152939250505056fe2d2d2d2d2d2d2d2d2d2d2d2d526563757273696f6e2d2d2d2d2d2d2d2d2d2d2d2d5468652063725955534420616d6f756e7420696e20666972737420636f6e74726163743a205b382e205472616e736665722036303030205745544820746f20666972737420636f6e74726163745d5b31322e20626f72726f77207955534420616e642073656e6420746f20666972737420636f6e74726163745d2d2d2d2d2d2d2d2d2d2d2d2d4a756d7020666972737420636f6e74726163742d2d2d2d2d2d2d2d2d2d2d2d5b31312e2072657065617465646c7920626f72726f77207955534420746f206d696e742063725553442c2073656e6420746f20666972737420636f6e74726163742c206164642074686520666972737420636f6e747261637420636f6e6c6c61746572616c5b392e20436f6e7665727420574554482d3e4554482d3e63724554482c20746865207365636f6e6420636f6e747261637420636f6c6c61746572616c20696e20437265616d2e46696e616e63655d5b31302e20437265616d2e46696e616e636520637245544820656e7465724d61726b65745da264697066735822122057fbb7572ca7dad0124cfaca174a097d20d3da82fe2e314346573848ce1f52e964736f6c634300081c0033","linkReferences":{}},"methodIdentifiers":{"executeOperation(address[],uint256[],uint256[],address,bytes)":"920f5c84","justDoIt(address)":"e770d97c"},"id":51}