{"abi":[{"type":"function","name":"depositPLX","inputs":[],"outputs":[],"stateMutability":"payable"},{"type":"function","name":"sellSDO","inputs":[],"outputs":[],"stateMutability":"nonpayable"},{"type":"function","name":"withdrawPLX","inputs":[],"outputs":[],"stateMutability":"nonpayable"}],"bytecode":{"object":"0x60806040525f80546001600160a01b03199081167386bc05a6f65efdada08528ec66603aef175d967f17909155600180548216730d500b1d8e8ef31e21c99d1db9a6444d3adf1270179055600280548216737a5dc8a09c831251026302c93a778748dd48b4df179055600380548216732791bca1f2de4661ed88a30c99a7a9449aa8417417905560048054821673e5c67ba380fb2f70a47b489e94bced486bb8fb741790556005805482167317684f4d5385fac79e75ceafc93f22d90066ed5c17905560068054909116737109709ecfa91a80626ff3989d68f67f5b1dd12d17905534801560eb575f5ffd5b50610758806100f95f395ff3fe608060405260043610610033575f3560e01c80636d11823014610037578063a852365f1461004d578063e6dbd4d714610061575b5f5ffd5b348015610042575f5ffd5b5061004b610069565b005b348015610058575f5ffd5b5061004b61024d565b61004b61031a565b6040805160028082526060820183525f9260208301908036833750505f805483519394506001600160a01b0316928492506100a6576100a6610653565b6001600160a01b0392831660209182029290920101526003548251911690829060019081106100d7576100d7610653565b6001600160a01b0392831660209182029290920101526003546004805460405163095ea7b360e01b8152908416918101919091525f19602482015291169063095ea7b3906044016020604051808303815f875af115801561013a573d5f5f3e3d5ffd5b505050506040513d601f19601f8201168201806040525081019061015e9190610667565b505f546004805460405163095ea7b360e01b81526001600160a01b03918216928101929092525f1960248301529091169063095ea7b3906044016020604051808303815f875af11580156101b4573d5f5f3e3d5ffd5b505050506040513d601f19601f820116820180604052508101906101d89190610667565b5060048054604051635c11d79560e01b81526001600160a01b0390911691635c11d7959161021d916cfc6f7c40458122964d00000000915f91879130914291016106d0565b5f604051808303815f87803b158015610234575f5ffd5b505af1158015610246573d5f5f3e3d5ffd5b5050505050565b6005546002546040516370a0823160e01b81526001600160a01b03928316600482018190529263441a3e70926009929116906370a0823190602401602060405180830381865afa1580156102a3573d5f5f3e3d5ffd5b505050506040513d601f19601f820116820180604052508101906102c7919061070b565b6040516001600160e01b031960e085901b168152600481019290925260248201526044015f604051808303815f87803b158015610302575f5ffd5b505af1158015610314573d5f5f3e3d5ffd5b50505050565b6001546040516001600160a01b0390911690670de0b6b3a7640000905f81818185875af1925050503d805f811461036c576040519150601f19603f3d011682016040523d82523d5f602084013e610371565b606091505b50506040805160028082526060820183525f93509091602083019080368337505060015482519293506001600160a01b0316918391505f906103b5576103b5610653565b6001600160a01b0392831660209182029290920101526002548251911690829060019081106103e6576103e6610653565b6001600160a01b0392831660209182029290920101526001546004805460405163095ea7b360e01b8152908416918101919091525f19602482015291169063095ea7b3906044016020604051808303815f875af1158015610449573d5f5f3e3d5ffd5b505050506040513d601f19601f8201168201806040525081019061046d9190610667565b5060025460055460405163095ea7b360e01b81526001600160a01b0391821660048201525f19602482015291169063095ea7b3906044016020604051808303815f875af11580156104c0573d5f5f3e3d5ffd5b505050506040513d601f19601f820116820180604052508101906104e49190610667565b50600480546001546040516370a0823160e01b815230938101939093526001600160a01b0391821692635c11d79592909116906370a0823190602401602060405180830381865afa15801561053b573d5f5f3e3d5ffd5b505050506040513d601f19601f8201168201806040525081019061055f919061070b565b5f8430426040518663ffffffff1660e01b81526004016105839594939291906106d0565b5f604051808303815f87803b15801561059a575f5ffd5b505af11580156105ac573d5f5f3e3d5ffd5b50506005546002546040516370a0823160e01b81523060048201526001600160a01b03928316945063e2bbb1589350600992909116906370a0823190602401602060405180830381865afa158015610606573d5f5f3e3d5ffd5b505050506040513d601f19601f8201168201806040525081019061062a919061070b565b6040516001600160e01b031960e085901b1681526004810192909252602482015260440161021d565b634e487b7160e01b5f52603260045260245ffd5b5f60208284031215610677575f5ffd5b81518015158114610686575f5ffd5b9392505050565b5f8151808452602084019350602083015f5b828110156106c65781516001600160a01b031686526020958601959091019060010161069f565b5093949350505050565b85815284602082015260a060408201525f6106ee60a083018661068d565b6001600160a01b0394909416606083015250608001529392505050565b5f6020828403121561071b575f5ffd5b505191905056fea2646970667358221220a475310b9df2ff707164b3e1c25dfecbc89ea60743a5c7fd449ddd0458b152d164736f6c634300081c0033","linkReferences":{}},"methodIdentifiers":{"depositPLX()":"e6dbd4d7","sellSDO()":"6d118230","withdrawPLX()":"a852365f"},"id":41}