{"abi":[{"type":"function","name":"depositSPORE","inputs":[],"outputs":[],"stateMutability":"payable"},{"type":"function","name":"sellZABU","inputs":[],"outputs":[],"stateMutability":"nonpayable"},{"type":"function","name":"withdrawSPORE","inputs":[],"outputs":[],"stateMutability":"nonpayable"}],"bytecode":{"object":"0x60806040525f80546001600160a01b031990811673dd453dbd253fa4e5e745047d93667ce9da93bbcf1790915560018054821673b31f66aa3c1e785363f0875a1b74e27b85fd66c7179055600280548216736e7f5c0b9f4432716bdd0a77a3601291b9d9e98517905560038054821673e54ca86531e17ef3616d22ca28b0d458b6c891061790556004805490911673f61b4f980a1f34b55bbf3b2ef28213efcc6248c417905534801560af575f5ffd5b50610792806100bd5f395ff3fe608060405260043610610033575f3560e01c8063615787ba14610037578063a4db03221461004d578063c12de71c14610061575b5f5ffd5b348015610042575f5ffd5b5061004b610069565b005b348015610058575f5ffd5b5061004b610299565b61004b610364565b6040805160028082526060820183525f9260208301908036833750505f805483519394506001600160a01b0316928492506100a6576100a661069b565b6001600160a01b03928316602091820292909201015260018054835192169183919081106100d6576100d661069b565b6001600160a01b03928316602091820292909201015260015460035460405163095ea7b360e01b815290831660048201525f19602482015291169063095ea7b3906044016020604051808303815f875af1158015610136573d5f5f3e3d5ffd5b505050506040513d601f19601f8201168201806040525081019061015a91906106af565b505f5460035460405163095ea7b360e01b81526001600160a01b0391821660048201525f19602482015291169063095ea7b3906044016020604051808303815f875af11580156101ac573d5f5f3e3d5ffd5b505050506040513d601f19601f820116820180604052508101906101d091906106af565b506003545f546040516370a0823160e01b81523060048201526001600160a01b0392831692635c11d7959216906370a0823190602401602060405180830381865afa158015610221573d5f5f3e3d5ffd5b505050506040513d601f19601f8201168201806040525081019061024591906106d5565b5f8430426040518663ffffffff1660e01b81526004016102699594939291906106ec565b5f604051808303815f87803b158015610280575f5ffd5b505af1158015610292573d5f5f3e3d5ffd5b5050505050565b600480546002546040516370a0823160e01b81526001600160a01b0392831693810184905263441a3e709260269216906370a0823190602401602060405180830381865afa1580156102ed573d5f5f3e3d5ffd5b505050506040513d601f19601f8201168201806040525081019061031191906106d5565b6040516001600160e01b031960e085901b168152600481019290925260248201526044015f604051808303815f87803b15801561034c575f5ffd5b505af115801561035e573d5f5f3e3d5ffd5b50505050565b6001546040516001600160a01b0390911690670de0b6b3a7640000905f81818185875af1925050503d805f81146103b6576040519150601f19603f3d011682016040523d82523d5f602084013e6103bb565b606091505b50506040805160028082526060820183525f93509091602083019080368337505060015482519293506001600160a01b0316918391505f906103ff576103ff61069b565b6001600160a01b0392831660209182029290920101526002548251911690829060019081106104305761043061069b565b6001600160a01b03928316602091820292909201015260015460035460405163095ea7b360e01b815290831660048201525f19602482015291169063095ea7b3906044016020604051808303815f875af1158015610490573d5f5f3e3d5ffd5b505050506040513d601f19601f820116820180604052508101906104b491906106af565b506002546004805460405163095ea7b360e01b81526001600160a01b03918216928101929092525f1960248301529091169063095ea7b3906044016020604051808303815f875af115801561050b573d5f5f3e3d5ffd5b505050506040513d601f19601f8201168201806040525081019061052f91906106af565b506003546001546040516370a0823160e01b81523060048201526001600160a01b0392831692635c11d7959216906370a0823190602401602060405180830381865afa158015610581573d5f5f3e3d5ffd5b505050506040513d601f19601f820116820180604052508101906105a591906106d5565b5f8430426040518663ffffffff1660e01b81526004016105c99594939291906106ec565b5f604051808303815f87803b1580156105e0575f5ffd5b505af11580156105f2573d5f5f3e3d5ffd5b5050600480546002546040516370a0823160e01b815230938101939093526001600160a01b03918216945063e2bbb15893506026929116906370a0823190602401602060405180830381865afa15801561064e573d5f5f3e3d5ffd5b505050506040513d601f19601f8201168201806040525081019061067291906106d5565b6040516001600160e01b031960e085901b16815260048101929092526024820152604401610269565b634e487b7160e01b5f52603260045260245ffd5b5f602082840312156106bf575f5ffd5b815180151581146106ce575f5ffd5b9392505050565b5f602082840312156106e5575f5ffd5b5051919050565b5f60a0820187835286602084015260a0604084015280865180835260c0850191506020880192505f5b8181101561073c5783516001600160a01b0316835260209384019390920191600101610715565b50506001600160a01b03959095166060840152505060800152939250505056fea26469706673582212207681f52ec28f52917cf94af383360b926fa50a1932c61b2a6172c75b1bcc284d64736f6c634300081c0033","linkReferences":{}},"methodIdentifiers":{"depositSPORE()":"c12de71c","sellZABU()":"615787ba","withdrawSPORE()":"a4db0322"},"id":50}