{"abi":[{"type":"constructor","inputs":[],"stateMutability":"nonpayable"},{"type":"function","name":"allowance","inputs":[{"name":"","type":"address","internalType":"address"},{"name":"","type":"address","internalType":"address"}],"outputs":[{"name":"","type":"uint256","internalType":"uint256"}],"stateMutability":"view"},{"type":"function","name":"approve","inputs":[{"name":"spender","type":"address","internalType":"address"},{"name":"amount","type":"uint256","internalType":"uint256"}],"outputs":[{"name":"","type":"bool","internalType":"bool"}],"stateMutability":"nonpayable"},{"type":"function","name":"balanceOf","inputs":[{"name":"","type":"address","internalType":"address"}],"outputs":[{"name":"","type":"uint256","internalType":"uint256"}],"stateMutability":"view"},{"type":"function","name":"transfer","inputs":[{"name":"to","type":"address","internalType":"address"},{"name":"amount","type":"uint256","internalType":"uint256"}],"outputs":[{"name":"","type":"bool","internalType":"bool"}],"stateMutability":"nonpayable"},{"type":"function","name":"transferFrom","inputs":[{"name":"from","type":"address","internalType":"address"},{"name":"to","type":"address","internalType":"address"},{"name":"amount","type":"uint256","internalType":"uint256"}],"outputs":[{"name":"","type":"bool","internalType":"bool"}],"stateMutability":"nonpayable"}],"bytecode":{"object":"0x6080604052348015600e575f5ffd5b50335f90815260208190526040812080546e01ed09bead87c0378d8e64000000009290603a9084906044565b9091555060689050565b80820180821115606257634e487b7160e01b5f52601160045260245ffd5b92915050565b61037f806100755f395ff3fe608060405234801561000f575f5ffd5b5060043610610055575f3560e01c8063095ea7b31461005957806323b872dd1461008157806370a0823114610094578063a9059cbb146100c1578063dd62ed3e146100d4575b5f5ffd5b61006c61006736600461025c565b6100fe565b60405190151581526020015b60405180910390f35b61006c61008f366004610284565b61012b565b6100b36100a23660046102be565b5f6020819052908152604090205481565b604051908152602001610078565b61006c6100cf36600461025c565b6101e7565b6100b36100e23660046102de565b600160209081525f928352604080842090915290825290205481565b335f9081526001602081815260408084206001600160a01b03871685529091529091208290555b92915050565b6001600160a01b0383165f9081526001602090815260408083203384529091528120545f198114610184576101608382610323565b6001600160a01b0386165f9081526001602090815260408083203384529091529020555b6001600160a01b0385165f90815260208190526040812080548592906101ab908490610323565b90915550506001600160a01b0384165f90815260208190526040812080548592906101d7908490610336565b9091555060019695505050505050565b335f90815260208190526040812080548391908390610207908490610323565b90915550506001600160a01b0383165f9081526020819052604081208054849290610233908490610336565b909155506001949350505050565b80356001600160a01b0381168114610257575f5ffd5b919050565b5f5f6040838503121561026d575f5ffd5b61027683610241565b946020939093013593505050565b5f5f5f60608486031215610296575f5ffd5b61029f84610241565b92506102ad60208501610241565b929592945050506040919091013590565b5f602082840312156102ce575f5ffd5b6102d782610241565b9392505050565b5f5f604083850312156102ef575f5ffd5b6102f883610241565b915061030660208401610241565b90509250929050565b634e487b7160e01b5f52601160045260245ffd5b818103818111156101255761012561030f565b808201808211156101255761012561030f56fea2646970667358221220b90b9c3a3c9245b509b73ceb34291d8934bd19818a082f2d91f2c3db85d7987d64736f6c634300081c0033","linkReferences":{}},"methodIdentifiers":{"allowance(address,address)":"dd62ed3e","approve(address,uint256)":"095ea7b3","balanceOf(address)":"70a08231","transfer(address,uint256)":"a9059cbb","transferFrom(address,address,uint256)":"23b872dd"},"id":550}