{"abi":[{"type":"function","name":"liquidate","inputs":[{"name":"receiver","type":"address","internalType":"address"}],"outputs":[],"stateMutability":"payable"}],"bytecode":{"object":"0x60806040525f80546001600160a01b03199081167323f43c1002eeb2b146f286105a9a2fc75bf770a4179091556001805482167362bdc203403e7d44b75f357df0897f2e71f607f317905560028054821673e150e792e0a18c9984a0630f051a607dee3c265d179055600380548216737adf374fa8b636420d41356b1f714f18228e7ae2179055600480548216735aa0197d0d3e05c4aa070dfa2f54cd67a447173a1790556005805490911673e7cea2f6d7b120174bf3a9bc98efaf1ff72c997d17905534801560cd575f5ffd5b50610b95806100db5f395ff3fe60806040526004361061001d575f3560e01c80632f86556814610021575b5f5ffd5b61003461002f366004610ac9565b610036565b005b60015f9054906101000a90046001600160a01b03166001600160a01b0316636f307dc36040518163ffffffff1660e01b8152600401602060405180830381865afa158015610086573d5f5f3e3d5ffd5b505050506040513d601f19601f820116820180604052508101906100aa9190610aeb565b60015460405163095ea7b360e01b81526001600160a01b0391821660048201525f19602482015291169063095ea7b3906044016020604051808303815f875af11580156100f9573d5f5f3e3d5ffd5b505050506040513d601f19601f8201168201806040525081019061011d9190610b06565b5060025f9054906101000a90046001600160a01b03166001600160a01b0316636f307dc36040518163ffffffff1660e01b8152600401602060405180830381865afa15801561016e573d5f5f3e3d5ffd5b505050506040513d601f19601f820116820180604052508101906101929190610aeb565b60025460405163095ea7b360e01b81526001600160a01b0391821660048201525f19602482015291169063095ea7b3906044016020604051808303815f875af11580156101e1573d5f5f3e3d5ffd5b505050506040513d601f19601f820116820180604052508101906102059190610b06565b5060035f9054906101000a90046001600160a01b03166001600160a01b0316636f307dc36040518163ffffffff1660e01b8152600401602060405180830381865afa158015610256573d5f5f3e3d5ffd5b505050506040513d601f19601f8201168201806040525081019061027a9190610aeb565b60035460405163095ea7b360e01b81526001600160a01b0391821660048201525f19602482015291169063095ea7b3906044016020604051808303815f875af11580156102c9573d5f5f3e3d5ffd5b505050506040513d601f19601f820116820180604052508101906102ed9190610b06565b506004805460408051636f307dc360e01b815290516001600160a01b0390921692636f307dc39282820192602092908290030181865afa158015610333573d5f5f3e3d5ffd5b505050506040513d601f19601f820116820180604052508101906103579190610aeb565b6004805460405163095ea7b360e01b81526001600160a01b03918216928101929092525f196024830152919091169063095ea7b3906044016020604051808303815f875af11580156103ab573d5f5f3e3d5ffd5b505050506040513d601f19601f820116820180604052508101906103cf9190610b06565b5060015460408051636f307dc360e01b815290516001600160a01b039092169163f5e3c4629184918491636f307dc39160048083019260209291908290030181865afa158015610421573d5f5f3e3d5ffd5b505050506040513d601f19601f820116820180604052508101906104459190610aeb565b6040516370a0823160e01b81523060048201526001600160a01b0391909116906370a0823190602401602060405180830381865afa158015610489573d5f5f3e3d5ffd5b505050506040513d601f19601f820116820180604052508101906104ad9190610b25565b5f546040516001600160e01b031960e086901b1681526104db9392916001600160a01b031690600401610b3c565b6020604051808303815f875af11580156104f7573d5f5f3e3d5ffd5b505050506040513d601f19601f8201168201806040525081019061051b9190610b25565b5060025460408051636f307dc360e01b815290516001600160a01b039092169163f5e3c4629184918491636f307dc39160048083019260209291908290030181865afa15801561056d573d5f5f3e3d5ffd5b505050506040513d601f19601f820116820180604052508101906105919190610aeb565b6040516370a0823160e01b81523060048201526001600160a01b0391909116906370a0823190602401602060405180830381865afa1580156105d5573d5f5f3e3d5ffd5b505050506040513d601f19601f820116820180604052508101906105f99190610b25565b5f546040516001600160e01b031960e086901b1681526106279392916001600160a01b031690600401610b3c565b6020604051808303815f875af1158015610643573d5f5f3e3d5ffd5b505050506040513d601f19601f820116820180604052508101906106679190610b25565b5060035460408051636f307dc360e01b815290516001600160a01b039092169163f5e3c4629184918491636f307dc39160048083019260209291908290030181865afa1580156106b9573d5f5f3e3d5ffd5b505050506040513d601f19601f820116820180604052508101906106dd9190610aeb565b6040516370a0823160e01b81523060048201526001600160a01b0391909116906370a0823190602401602060405180830381865afa158015610721573d5f5f3e3d5ffd5b505050506040513d601f19601f820116820180604052508101906107459190610b25565b5f546040516001600160e01b031960e086901b1681526107739392916001600160a01b031690600401610b3c565b6020604051808303815f875af115801561078f573d5f5f3e3d5ffd5b505050506040513d601f19601f820116820180604052508101906107b39190610b25565b506004805460408051636f307dc360e01b815290516001600160a01b039092169263f5e3c4629285928592636f307dc39282820192602092908290030181865afa158015610803573d5f5f3e3d5ffd5b505050506040513d601f19601f820116820180604052508101906108279190610aeb565b6040516370a0823160e01b81523060048201526001600160a01b0391909116906370a0823190602401602060405180830381865afa15801561086b573d5f5f3e3d5ffd5b505050506040513d601f19601f8201168201806040525081019061088f9190610b25565b5f546040516001600160e01b031960e086901b1681526108bd9392916001600160a01b031690600401610b3c565b6020604051808303815f875af11580156108d9573d5f5f3e3d5ffd5b505050506040513d601f19601f820116820180604052508101906108fd9190610b25565b505f546040516370a0823160e01b81523060048201526001600160a01b039091169063db006a759082906370a0823190602401602060405180830381865afa15801561094b573d5f5f3e3d5ffd5b505050506040513d601f19601f8201168201806040525081019061096f9190610b25565b6040518263ffffffff1660e01b815260040161098d91815260200190565b6020604051808303815f875af11580156109a9573d5f5f3e3d5ffd5b505050506040513d601f19601f820116820180604052508101906109cd9190610b25565b506005546040516370a0823160e01b81523060048201526001600160a01b039091169063a9059cbb90839083906370a0823190602401602060405180830381865afa158015610a1e573d5f5f3e3d5ffd5b505050506040513d601f19601f82011682018060405250810190610a429190610b25565b6040516001600160e01b031960e085901b1681526001600160a01b03909216600483015260248201526044016020604051808303815f875af1158015610a8a573d5f5f3e3d5ffd5b505050506040513d601f19601f82011682018060405250810190610aae9190610b06565b5050565b6001600160a01b0381168114610ac6575f5ffd5b50565b5f60208284031215610ad9575f5ffd5b8135610ae481610ab2565b9392505050565b5f60208284031215610afb575f5ffd5b8151610ae481610ab2565b5f60208284031215610b16575f5ffd5b81518015158114610ae4575f5ffd5b5f60208284031215610b35575f5ffd5b5051919050565b6001600160a01b039384168152602081019290925290911660408201526060019056fea26469706673582212208f290f9578128172bc1d96f25c806ca91cfc4e517c73f26cf7297cb1ab89b70864736f6c634300081c0033","linkReferences":{}},"methodIdentifiers":{"liquidate(address)":"2f865568"},"id":167}