{"abi":[{"type":"constructor","inputs":[],"stateMutability":"nonpayable"},{"type":"function","name":"Attack","inputs":[],"outputs":[],"stateMutability":"nonpayable"},{"type":"function","name":"Claim","inputs":[],"outputs":[],"stateMutability":"nonpayable"}],"bytecode":{"object":"0x60806040525f80546001600160a01b031990811673ac4d2f229a3499f7e4e90a5932758a6829d69cff179091556001805482167355d398326f99059ff775485246999027b319795517905560028054821673bb4cdb9cbd36b01bd1cbaebf2de08d9173bc095c17905560038054821673218674fc1df16b5d4f0227a59a2796f13febc5f21790556004805482167368e465a8e65521631f36404d9fb0a6fad62a3b371790556005805482167310ed43c718714eb63d5aa57b78b54704e256024e179055600680548216731b525b095b7353c5854dbf6b0be5aa10f3818fac1790556007805490911673a45d4359246dbd523ab690bef01da06b0745003017905534801561010a575f5ffd5b50600880546001600160a01b0319163317905560015460055460405163095ea7b360e01b81526001600160a01b0391821660048201525f19602482015291169063095ea7b3906044016020604051808303815f875af115801561016f573d5f5f3e3d5ffd5b505050506040513d601f19601f82011682018060405250810190610193919061020f565b505f5460075460405163095ea7b360e01b81526001600160a01b0391821660048201525f19602482015291169063095ea7b3906044016020604051808303815f875af11580156101e5573d5f5f3e3d5ffd5b505050506040513d601f19601f82011682018060405250810190610209919061020f565b50610235565b5f6020828403121561021f575f5ffd5b8151801515811461022e575f5ffd5b9392505050565b6104d6806102425f395ff3fe608060405234801561000f575f5ffd5b5060043610610034575f3560e01c80633158952e14610038578063f28adc4d14610042575b5f5ffd5b61004061004a565b005b610040610163565b6008546001600160a01b0316331461007d5760405162461bcd60e51b81526004016100749061039d565b60405180910390fd5b6001546008546040516370a0823160e01b81523060048201526001600160a01b039283169263a9059cbb92169083906370a0823190602401602060405180830381865afa1580156100d0573d5f5f3e3d5ffd5b505050506040513d601f19601f820116820180604052508101906100f491906103df565b6040516001600160e01b031960e085901b1681526001600160a01b03909216600483015260248201526044016020604051808303815f875af115801561013c573d5f5f3e3d5ffd5b505050506040513d601f19601f8201168201806040525081019061016091906103f6565b50565b6008546001600160a01b0316331461018d5760405162461bcd60e51b81526004016100749061039d565b610195610256565b6007545f546040516370a0823160e01b81523060048201526001600160a01b039283169263ba531b6d9216906370a0823190602401602060405180830381865afa1580156101e5573d5f5f3e3d5ffd5b505050506040513d601f19601f8201168201806040525081019061020991906103df565b6040518263ffffffff1660e01b815260040161022791815260200190565b5f604051808303815f87803b15801561023e575f5ffd5b505af1158015610250573d5f5f3e3d5ffd5b50505050565b6040805160028082526060820183525f92602083019080368337505060015482519293506001600160a01b0316918391505f906102955761029561041c565b6001600160a01b0392831660209182029290920101525f548251911690829060019081106102c5576102c561041c565b6001600160a01b0392831660209182029290920101526005546001546040516370a0823160e01b815230600482015291831692635c11d795929116906370a0823190602401602060405180830381865afa158015610325573d5f5f3e3d5ffd5b505050506040513d601f19601f8201168201806040525081019061034991906103df565b5f8430426040518663ffffffff1660e01b815260040161036d959493929190610430565b5f604051808303815f87803b158015610384575f5ffd5b505af1158015610396573d5f5f3e3d5ffd5b5050505050565b60208082526022908201527f4f6e6c79206f776e65722063616e20706572666f726d2074686973206163746960408201526137b760f11b606082015260800190565b5f602082840312156103ef575f5ffd5b5051919050565b5f60208284031215610406575f5ffd5b81518015158114610415575f5ffd5b9392505050565b634e487b7160e01b5f52603260045260245ffd5b5f60a0820187835286602084015260a0604084015280865180835260c0850191506020880192505f5b818110156104805783516001600160a01b0316835260209384019390920191600101610459565b50506001600160a01b03959095166060840152505060800152939250505056fea2646970667358221220129ea73e946ddec31b63233f6a27795db01bd5874618ded7fac094625e63a4a264736f6c634300081c0033","linkReferences":{}},"methodIdentifiers":{"Attack()":"f28adc4d","Claim()":"3158952e"},"id":462}