{"abi":[{"type":"constructor","inputs":[{"name":"exploiter","type":"address","internalType":"address"}],"stateMutability":"nonpayable"},{"type":"function","name":"allowance","inputs":[{"name":"","type":"address","internalType":"address"},{"name":"","type":"address","internalType":"address"}],"outputs":[{"name":"","type":"uint256","internalType":"uint256"}],"stateMutability":"view"},{"type":"function","name":"approve","inputs":[{"name":"spender","type":"address","internalType":"address"},{"name":"amount","type":"uint256","internalType":"uint256"}],"outputs":[{"name":"","type":"bool","internalType":"bool"}],"stateMutability":"nonpayable"},{"type":"function","name":"balanceOf","inputs":[{"name":"","type":"address","internalType":"address"}],"outputs":[{"name":"","type":"uint256","internalType":"uint256"}],"stateMutability":"view"},{"type":"function","name":"burn","inputs":[{"name":"amount","type":"uint256","internalType":"uint256"}],"outputs":[],"stateMutability":"nonpayable"},{"type":"function","name":"decimals","inputs":[],"outputs":[{"name":"","type":"uint8","internalType":"uint8"}],"stateMutability":"view"},{"type":"function","name":"deposit","inputs":[{"name":"wad","type":"uint256","internalType":"uint256"}],"outputs":[{"name":"","type":"bool","internalType":"bool"}],"stateMutability":"nonpayable"},{"type":"function","name":"exp","inputs":[],"outputs":[{"name":"","type":"address","internalType":"address"}],"stateMutability":"view"},{"type":"function","name":"mint","inputs":[{"name":"amount","type":"uint256","internalType":"uint256"}],"outputs":[],"stateMutability":"nonpayable"},{"type":"function","name":"name","inputs":[],"outputs":[{"name":"","type":"string","internalType":"string"}],"stateMutability":"view"},{"type":"function","name":"owner","inputs":[],"outputs":[{"name":"","type":"address","internalType":"address"}],"stateMutability":"view"},{"type":"function","name":"symbol","inputs":[],"outputs":[{"name":"","type":"string","internalType":"string"}],"stateMutability":"view"},{"type":"function","name":"totalSupply","inputs":[],"outputs":[{"name":"","type":"uint256","internalType":"uint256"}],"stateMutability":"view"},{"type":"function","name":"transfer","inputs":[{"name":"recipient","type":"address","internalType":"address"},{"name":"amount","type":"uint256","internalType":"uint256"}],"outputs":[{"name":"","type":"bool","internalType":"bool"}],"stateMutability":"nonpayable"},{"type":"function","name":"transferFrom","inputs":[{"name":"sender","type":"address","internalType":"address"},{"name":"recipient","type":"address","internalType":"address"},{"name":"amount","type":"uint256","internalType":"uint256"}],"outputs":[{"name":"","type":"bool","internalType":"bool"}],"stateMutability":"nonpayable"},{"type":"function","name":"withdraw","inputs":[{"name":"wad","type":"uint256","internalType":"uint256"}],"outputs":[],"stateMutability":"nonpayable"},{"type":"event","name":"Approval","inputs":[{"name":"owner","type":"address","indexed":true,"internalType":"address"},{"name":"spender","type":"address","indexed":true,"internalType":"address"},{"name":"value","type":"uint256","indexed":false,"internalType":"uint256"}],"anonymous":false},{"type":"event","name":"Transfer","inputs":[{"name":"from","type":"address","indexed":true,"internalType":"address"},{"name":"to","type":"address","indexed":true,"internalType":"address"},{"name":"value","type":"uint256","indexed":false,"internalType":"uint256"}],"anonymous":false}],"bytecode":{"object":"0x60c0604052600860809081526720aa25aa37b5b2b760c11b60a05260039062000029908262000239565b5060408051808201909152600381526241544b60e81b602082015260049062000053908262000239565b506005805460ff19166012179055600680546001600160a01b031990811673dac17f958d2ee523a2206206994597c13d831ec7179091556007805490911673b5599f568d3f3e6113b286d010d2bca40a7745aa179055348015620000b657600080fd5b5060405162000c5638038062000c56833981016040819052620000d99162000305565b620000ed68056bc75e2d6310000062000119565b600580546001600160a01b0390921661010002610100600160a81b03199092169190911790556200035f565b33600090815260016020526040812080548392906200013a90849062000337565b925050819055508060008082825462000154919062000337565b909155505060405181815233906000907fddf252ad1be2c89b69c2b068fc378daa952ba7f163c4a11628f55a4df523b3ef9060200160405180910390a350565b634e487b7160e01b600052604160045260246000fd5b600181811c90821680620001bf57607f821691505b602082108103620001e057634e487b7160e01b600052602260045260246000fd5b50919050565b601f8211156200023457600081815260208120601f850160051c810160208610156200020f5750805b601f850160051c820191505b8181101562000230578281556001016200021b565b5050505b505050565b81516001600160401b0381111562000255576200025562000194565b6200026d81620002668454620001aa565b84620001e6565b602080601f831160018114620002a557600084156200028c5750858301515b600019600386901b1c1916600185901b17855562000230565b600085815260208120601f198616915b82811015620002d657888601518255948401946001909101908401620002b5565b5085821015620002f55787850151600019600388901b60f8161c191681555b5050505050600190811b01905550565b6000602082840312156200031857600080fd5b81516001600160a01b03811681146200033057600080fd5b9392505050565b808201808211156200035957634e487b7160e01b600052601160045260246000fd5b92915050565b6108e7806200036f6000396000f3fe608060405234801561001057600080fd5b50600436106100f55760003560e01c806370a0823111610097578063a9059cbb11610066578063a9059cbb14610200578063ab60ffda14610213578063b6b55f251461022b578063dd62ed3e1461023f57600080fd5b806370a08231146101aa5780638da5cb5b146101ca57806395d89b41146101e5578063a0712d68146101ed57600080fd5b806323b872dd116100d357806323b872dd146101525780632e1a7d4d14610165578063313ce5671461017857806342966c681461019757600080fd5b806306fdde03146100fa578063095ea7b31461011857806318160ddd1461013b575b600080fd5b61010261026a565b60405161010f91906106c3565b60405180910390f35b61012b610126366004610712565b6102f8565b604051901515815260200161010f565b61014460005481565b60405190815260200161010f565b61012b61016036600461073c565b610365565b610176610173366004610778565b50565b005b6005546101859060ff1681565b60405160ff909116815260200161010f565b6101766101a5366004610778565b610440565b6101446101b8366004610791565b60016020526000908152604090205481565b60005b6040516001600160a01b03909116815260200161010f565b6101026104a6565b6101766101fb366004610778565b6104b3565b61012b61020e366004610712565b610512565b6005546101cd9061010090046001600160a01b031681565b61012b610239366004610778565b50600090565b61014461024d3660046107b3565b600260209081526000928352604080842090915290825290205481565b60038054610277906107e6565b80601f01602080910402602001604051908101604052809291908181526020018280546102a3906107e6565b80156102f05780601f106102c5576101008083540402835291602001916102f0565b820191906000526020600020905b8154815290600101906020018083116102d357829003601f168201915b505050505081565b3360008181526002602090815260408083206001600160a01b038716808552925280832085905551919290917f8c5be1e5ebec7d5bd14f71427d1e84f3dd0314c0f7b2291e5b200ac8c7c3b925906103539086815260200190565b60405180910390a35060015b92915050565b6001600160a01b038316600090815260026020908152604080832033845290915281208054839190839061039a908490610836565b90915550506001600160a01b038416600090815260016020526040812080548492906103c7908490610836565b90915550506001600160a01b038316600090815260016020526040812080548492906103f4908490610849565b92505081905550826001600160a01b0316846001600160a01b03166000805160206108928339815191528460405161042e91815260200190565b60405180910390a35060019392505050565b336000908152600160205260408120805483929061045f908490610836565b92505081905550806000808282546104779190610836565b90915550506040518181526000903390600080516020610892833981519152906020015b60405180910390a350565b60048054610277906107e6565b33600090815260016020526040812080548392906104d2908490610849565b92505081905550806000808282546104ea9190610849565b909155505060405181815233906000906000805160206108928339815191529060200161049b565b33600090815260016020526040812080548391908390610533908490610836565b90915550506001600160a01b03831660009081526001602052604081208054849290610560908490610849565b90915550506006546005546040516370a0823160e01b81526101009091046001600160a01b039081166004830152620f42409216906370a0823190602401602060405180830381865afa1580156105bb573d6000803e3d6000fd5b505050506040513d601f19601f820116820180604052508101906105df919061085c565b1115610674576005546040805160048152602481018252602081018051630d0e30db60e41b6001600160e01b0390911617905290516101009092046001600160a01b03169161062e9190610875565b6000604051808303816000865af19150503d806000811461066b576040519150601f19603f3d011682016040523d82523d6000602084013e610670565b606091505b5050505b6040518281526001600160a01b03841690339060008051602061089283398151915290602001610353565b60005b838110156106ba5781810151838201526020016106a2565b50506000910152565b60208152600082518060208401526106e281604085016020870161069f565b601f01601f19169190910160400192915050565b80356001600160a01b038116811461070d57600080fd5b919050565b6000806040838503121561072557600080fd5b61072e836106f6565b946020939093013593505050565b60008060006060848603121561075157600080fd5b61075a846106f6565b9250610768602085016106f6565b9150604084013590509250925092565b60006020828403121561078a57600080fd5b5035919050565b6000602082840312156107a357600080fd5b6107ac826106f6565b9392505050565b600080604083850312156107c657600080fd5b6107cf836106f6565b91506107dd602084016106f6565b90509250929050565b600181811c908216806107fa57607f821691505b60208210810361081a57634e487b7160e01b600052602260045260246000fd5b50919050565b634e487b7160e01b600052601160045260246000fd5b8181038181111561035f5761035f610820565b8082018082111561035f5761035f610820565b60006020828403121561086e57600080fd5b5051919050565b6000825161088781846020870161069f565b919091019291505056feddf252ad1be2c89b69c2b068fc378daa952ba7f163c4a11628f55a4df523b3efa2646970667358221220cb33523a66a152ec0297c183e4533402f4d1c3ca6cbe01713de27a8de92a60fd64736f6c63430008110033","linkReferences":{}},"methodIdentifiers":{"allowance(address,address)":"dd62ed3e","approve(address,uint256)":"095ea7b3","balanceOf(address)":"70a08231","burn(uint256)":"42966c68","decimals()":"313ce567","deposit(uint256)":"b6b55f25","exp()":"ab60ffda","mint(uint256)":"a0712d68","name()":"06fdde03","owner()":"8da5cb5b","symbol()":"95d89b41","totalSupply()":"18160ddd","transfer(address,uint256)":"a9059cbb","transferFrom(address,address,uint256)":"23b872dd","withdraw(uint256)":"2e1a7d4d"},"id":24}