{"abi":[{"type":"function","name":"init","inputs":[],"outputs":[{"name":"","type":"uint256","internalType":"uint256"}],"stateMutability":"nonpayable"},{"type":"function","name":"onERC721Received","inputs":[{"name":"","type":"address","internalType":"address"},{"name":"","type":"address","internalType":"address"},{"name":"","type":"uint256","internalType":"uint256"},{"name":"","type":"bytes","internalType":"bytes"}],"outputs":[{"name":"","type":"bytes4","internalType":"bytes4"}],"stateMutability":"nonpayable"},{"type":"function","name":"positionID","inputs":[],"outputs":[{"name":"","type":"uint256","internalType":"uint256"}],"stateMutability":"view"},{"type":"function","name":"recover","inputs":[],"outputs":[],"stateMutability":"nonpayable"}],"bytecode":{"object":"0x60806040525f80546001600160a01b0319908116739d6d4e2afab382ae9b52807a4b36a8d2afc78b07179091556001805482167384524baa1951247b3a2617a843e6ece915bb967417905560028054909116732260fac5e5542a773aa44fbcfedf7c193bc2c5991790553480156073575f5ffd5b506105c9806100815f395ff3fe608060405234801561000f575f5ffd5b506004361061004a575f3560e01c8063150b7a021461004e578063ce05f8c71461008a578063ce746024146100a1578063e1c7392a146100ab575b5f5ffd5b61006c61005c366004610435565b630a85bd0160e11b949350505050565b6040516001600160e01b031990911681526020015b60405180910390f35b61009360035481565b604051908152602001610081565b6100a96100b3565b005b610093610391565b60015460025460405163cfdc148f60e01b81526001600160a01b039182166004820152621e848092919091169063cfdc148f90602401602060405180830381865afa158015610104573d5f5f3e3d5ffd5b505050506040513d601f19601f820116820180604052508101906101289190610512565b11156102ae5760015460025460405163ca7d907360e01b81526001600160a01b0391821660048201525f92919091169063ca7d907390602401602060405180830381865afa15801561017c573d5f5f3e3d5ffd5b505050506040513d601f19601f820116820180604052508101906101a09190610512565b6001805460025460405163cfdc148f60e01b81526001600160a01b03918216600482015291169063cfdc148f90602401602060405180830381865afa1580156101eb573d5f5f3e3d5ffd5b505050506040513d601f19601f8201168201806040525081019061020f9190610512565b6102199190610529565b610223919061054e565b6001546003546002546040516377cfd4a560e01b815260048101929092526001600160a01b039081166024830152604482018490529293509116906377cfd4a5906064016020604051808303815f875af1158015610283573d5f5f3e3d5ffd5b505050506040513d601f19601f820116820180604052508101906102a79190610512565b50506100b3565b6002546040516370a0823160e01b81523060048201526001600160a01b039091169063a9059cbb90339083906370a0823190602401602060405180830381865afa1580156102fe573d5f5f3e3d5ffd5b505050506040513d601f19601f820116820180604052508101906103229190610512565b6040516001600160e01b031960e085901b1681526001600160a01b03909216600483015260248201526044016020604051808303815f875af115801561036a573d5f5f3e3d5ffd5b505050506040513d601f19601f8201168201806040525081019061038e919061056d565b50565b5f805460405163fcd83dd760e01b81523060048201526001600160a01b039091169063fcd83dd7906024016020604051808303815f875af11580156103d8573d5f5f3e3d5ffd5b505050506040513d601f19601f820116820180604052508101906103fc9190610512565b6003819055919050565b80356001600160a01b038116811461041c575f5ffd5b919050565b634e487b7160e01b5f52604160045260245ffd5b5f5f5f5f60808587031215610448575f5ffd5b61045185610406565b935061045f60208601610406565b925060408501359150606085013567ffffffffffffffff811115610481575f5ffd5b8501601f81018713610491575f5ffd5b803567ffffffffffffffff8111156104ab576104ab610421565b604051601f8201601f19908116603f0116810167ffffffffffffffff811182821017156104da576104da610421565b6040528181528282016020018910156104f1575f5ffd5b816020840160208301375f6020838301015280935050505092959194509250565b5f60208284031215610522575f5ffd5b5051919050565b8181038181111561054857634e487b7160e01b5f52601160045260245ffd5b92915050565b5f8261056857634e487b7160e01b5f52601260045260245ffd5b500490565b5f6020828403121561057d575f5ffd5b8151801515811461058c575f5ffd5b939250505056fea26469706673582212206fc10cd05e74adec8b71af15659829d7858eb7f1464b32a37665be78343ac4c564736f6c634300081c0033","linkReferences":{}},"methodIdentifiers":{"init()":"e1c7392a","onERC721Received(address,address,uint256,bytes)":"150b7a02","positionID()":"ce05f8c7","recover()":"ce746024"},"id":327}