{"abi":[{"type":"constructor","inputs":[],"stateMutability":"nonpayable"},{"type":"function","name":"getReward","inputs":[],"outputs":[],"stateMutability":"nonpayable"},{"type":"function","name":"stake","inputs":[],"outputs":[],"stateMutability":"nonpayable"}],"bytecode":{"object":"0x6080604052600180546001600160a01b03199081167399c486b908434ae4adf567e9990a929854d0c9551790915560028054821673a2ca18fc541b7b101c64e64bbc2834b05066248b179055600380548216732c6cf65f3cd32a9be1822855abf2321f6f8f6b241790556004805490911673706065716569f20971f9cf8c66d092824c2845841790553480156092575f5ffd5b505f80546001600160a01b0319163317905561057c806100b15f395ff3fe608060405234801561000f575f5ffd5b5060043610610034575f3560e01c80633a4b66f1146100385780633d18b91214610042575b5f5ffd5b61004061004a565b005b610040610348565b60025460035460405163095ea7b360e01b81526001600160a01b0391821660048201525f19602482015291169063095ea7b3906044016020604051808303815f875af115801561009c573d5f5f3e3d5ffd5b505050506040513d601f19601f820116820180604052508101906100c09190610485565b506040805160028082526060820183525f92602083019080368337505060025482519293506001600160a01b0316918391505f90610100576101006104ab565b6001600160a01b0392831660209182029290920101526001805483519216918391908110610130576101306104ab565b6001600160a01b0392831660209182029290920101526003546002546040516370a0823160e01b815230600482015291831692635c11d795929116906370a0823190602401602060405180830381865afa158015610190573d5f5f3e3d5ffd5b505050506040513d601f19601f820116820180604052508101906101b491906104bf565b5f8430426040518663ffffffff1660e01b81526004016101d89594939291906104d6565b5f604051808303815f87803b1580156101ef575f5ffd5b505af1158015610201573d5f5f3e3d5ffd5b50506001546004805460405163095ea7b360e01b81526001600160a01b03918216928101929092525f196024830152909116925063095ea7b391506044016020604051808303815f875af115801561025b573d5f5f3e3d5ffd5b505050506040513d601f19601f8201168201806040525081019061027f9190610485565b50600480546001546040516370a0823160e01b815230938101939093526001600160a01b039182169263a694fc3a92909116906370a0823190602401602060405180830381865afa1580156102d6573d5f5f3e3d5ffd5b505050506040513d601f19601f820116820180604052508101906102fa91906104bf565b6040518263ffffffff1660e01b815260040161031891815260200190565b5f604051808303815f87803b15801561032f575f5ffd5b505af1158015610341573d5f5f3e3d5ffd5b5050505050565b6004805460408051631e8c5c8960e11b815290516001600160a01b0390921692633d18b91292828201925f929082900301818387803b158015610389575f5ffd5b505af115801561039b573d5f5f3e3d5ffd5b50506001545f546040516370a0823160e01b81523060048201526001600160a01b03928316945063a9059cbb935091169083906370a0823190602401602060405180830381865afa1580156103f2573d5f5f3e3d5ffd5b505050506040513d601f19601f8201168201806040525081019061041691906104bf565b6040516001600160e01b031960e085901b1681526001600160a01b03909216600483015260248201526044016020604051808303815f875af115801561045e573d5f5f3e3d5ffd5b505050506040513d601f19601f820116820180604052508101906104829190610485565b50565b5f60208284031215610495575f5ffd5b815180151581146104a4575f5ffd5b9392505050565b634e487b7160e01b5f52603260045260245ffd5b5f602082840312156104cf575f5ffd5b5051919050565b5f60a0820187835286602084015260a0604084015280865180835260c0850191506020880192505f5b818110156105265783516001600160a01b03168352602093840193909201916001016104ff565b50506001600160a01b03959095166060840152505060800152939250505056fea2646970667358221220f117d61728f9b3f5ed23b7459b831010e02138a92af6ff4b6cf537dee1fc96f164736f6c634300081c0033","linkReferences":{}},"methodIdentifiers":{"getReward()":"3d18b912","stake()":"3a4b66f1"},"id":158}