{"abi":[{"type":"function","name":"algebraFlashCallback","inputs":[{"name":"","type":"uint256","internalType":"uint256"},{"name":"fee1","type":"uint256","internalType":"uint256"},{"name":"data","type":"bytes","internalType":"bytes"}],"outputs":[],"stateMutability":"nonpayable"},{"type":"function","name":"algebraSwapCallback","inputs":[{"name":"amount0Delta","type":"int256","internalType":"int256"},{"name":"amount1Delta","type":"int256","internalType":"int256"},{"name":"data","type":"bytes","internalType":"bytes"}],"outputs":[],"stateMutability":"nonpayable"},{"type":"function","name":"attack","inputs":[],"outputs":[],"stateMutability":"nonpayable"},{"type":"function","name":"executeOperation","inputs":[{"name":"pool","type":"address","internalType":"address"},{"name":"token","type":"address","internalType":"address"},{"name":"amount","type":"uint256","internalType":"uint256"},{"name":"fee","type":"uint256","internalType":"uint256"},{"name":"params","type":"bytes","internalType":"bytes"}],"outputs":[],"stateMutability":"nonpayable"},{"type":"function","name":"executeOperation","inputs":[{"name":"assets","type":"address[]","internalType":"address[]"},{"name":"amounts","type":"uint256[]","internalType":"uint256[]"},{"name":"premiums","type":"uint256[]","internalType":"uint256[]"},{"name":"initiator","type":"address","internalType":"address"},{"name":"params","type":"bytes","internalType":"bytes"}],"outputs":[{"name":"","type":"bool","internalType":"bool"}],"stateMutability":"nonpayable"},{"type":"function","name":"receiveFlashLoan","inputs":[{"name":"tokens","type":"address[]","internalType":"address[]"},{"name":"amounts","type":"uint256[]","internalType":"uint256[]"},{"name":"feeAmounts","type":"uint256[]","internalType":"uint256[]"},{"name":"userData","type":"bytes","internalType":"bytes"}],"outputs":[],"stateMutability":"nonpayable"},{"type":"function","name":"uniswapV3FlashCallback","inputs":[{"name":"fee0","type":"uint256","internalType":"uint256"},{"name":"fee1","type":"uint256","internalType":"uint256"},{"name":"data","type":"bytes","internalType":"bytes"}],"outputs":[],"stateMutability":"nonpayable"},{"type":"function","name":"uniswapV3SwapCallback","inputs":[{"name":"amount0Delta","type":"int256","internalType":"int256"},{"name":"amount1Delta","type":"int256","internalType":"int256"},{"name":"data","type":"bytes","internalType":"bytes"}],"outputs":[],"stateMutability":"nonpayable"}],"bytecode":{"object":"0x6080604052348015600e575f5ffd5b506130b68061001c5f395ff3fe608060405234801561000f575f5ffd5b5060043610610085575f3560e01c8063a60b0d3c11610058578063a60b0d3c146100e0578063e9cbafb0146100f3578063f04f270714610106578063fa461e3314610119575f5ffd5b80632c8958f614610089578063405b019d1461009e578063920f5c84146100b15780639e5faafc146100d8575b5f5ffd5b61009c610097366004612529565b61012c565b005b61009c6100ac366004612592565b6101c0565b6100c46100bf366004612644565b6103e5565b604051901515815260200160405180910390f35b61009c6106a2565b61009c6100ee366004612529565b610b13565b61009c610101366004612529565b610e3e565b61009c61011436600461285c565b610e8c565b61009c610127366004612529565b61239b565b60405163a9059cbb60e01b815273af88d065e77c8cc2239327c5edb3a432268e58319063a9059cbb906101799073c86eb7b85807020b4548ee05b54bfc956eebbfcd90889060040161296f565b6020604051808303815f875af1158015610195573d5f5f3e3d5ffd5b505050506040513d601f19601f820116820180604052508101906101b99190612988565b5050505050565b6040516370a0823160e01b815273ba12222222228d8ba445958a75a0704d566bf2c860048201525f905f5160206130615f395f51905f52906370a0823190602401602060405180830381865afa15801561021c573d5f5f3e3d5ffd5b505050506040513d601f19601f8201168201806040525081019061024091906129ae565b6040805160018082528183019092529192505f9190602080830190803683370190505090505f5160206130615f395f51905f52815f81518110610285576102856129c5565b6001600160a01b0392909216602092830291909101909101526040805160018082528183019092525f9181602001602082028036833701905050905082815f815181106102d4576102d46129c5565b6020908102919091010152604051632e1c224f60e11b815273ba12222222228d8ba445958a75a0704d566bf2c890635c38449e9061031a90309086908690600401612a4c565b5f604051808303815f87803b158015610331575f5ffd5b505af1158015610343573d5f5f3e3d5ffd5b505f5160206130615f395f51905f52925063a9059cbb9150739dd329f5411466d9e0c488ff72519ca9fef0cb40905061037c898b612ab0565b6040518363ffffffff1660e01b815260040161039992919061296f565b6020604051808303815f875af11580156103b5573d5f5f3e3d5ffd5b505050506040513d601f19601f820116820180604052508101906103d99190612988565b50505050505050505050565b6040516370a0823160e01b8152739dd329f5411466d9e0c488ff72519ca9fef0cb4060048201525f9081905f5160206130615f395f51905f52906370a0823190602401602060405180830381865afa158015610443573d5f5f3e3d5ffd5b505050506040513d601f19601f8201168201806040525081019061046791906129ae565b604051632e7ff4ef60e11b81523060048201525f5160206130615f395f51905f526024820152629896806044820152608060648201525f6084820152909150739dd329f5411466d9e0c488ff72519ca9fef0cb4090635cffe9de9060a4015f604051808303815f87803b1580156104dc575f5ffd5b505af11580156104ee573d5f5f3e3d5ffd5b505060405163095ea7b360e01b81525f5160206130615f395f51905f52925063095ea7b391506105399073794a61358d6845594f94dc1db02a252b5b4814ad905f199060040161296f565b6020604051808303815f875af1158015610555573d5f5f3e3d5ffd5b505050506040513d601f19601f820116820180604052508101906105799190612988565b5060405163095ea7b360e01b81525f5160206130415f395f51905f529063095ea7b3906105c19073794a61358d6845594f94dc1db02a252b5b4814ad905f199060040161296f565b6020604051808303815f875af11580156105dd573d5f5f3e3d5ffd5b505050506040513d601f19601f820116820180604052508101906106019190612988565b5060405163095ea7b360e01b815273af88d065e77c8cc2239327c5edb3a432268e58319063095ea7b3906106509073794a61358d6845594f94dc1db02a252b5b4814ad905f199060040161296f565b6020604051808303815f875af115801561066c573d5f5f3e3d5ffd5b505050506040513d601f19601f820116820180604052508101906106909190612988565b5060019b9a5050505050505050505050565b5f80546001600160a01b031916331781556040516370a0823160e01b8152738cc8093218bcac8b1896a1eed4d925f6f6ab289f60048201525f5160206130615f395f51905f52906370a0823190602401602060405180830381865afa15801561070d573d5f5f3e3d5ffd5b505050506040513d601f19601f8201168201806040525081019061073191906129ae565b6040516312439b2f60e21b81523060048201525f60248201526044810182905260806064820152602060848201526502653038614a60a4820152909150738cc8093218bcac8b1896a1eed4d925f6f6ab289f9063490e6cbc9060c4015f604051808303815f87803b1580156107a4575f5ffd5b505af11580156107b6573d5f5f3e3d5ffd5b50506040516370a0823160e01b81523060048201525f5160206130615f395f51905f52925063a9059cbb9150339083906370a0823190602401602060405180830381865afa15801561080a573d5f5f3e3d5ffd5b505050506040513d601f19601f8201168201806040525081019061082e91906129ae565b6040518363ffffffff1660e01b815260040161084b92919061296f565b6020604051808303815f875af1158015610867573d5f5f3e3d5ffd5b505050506040513d601f19601f8201168201806040525081019061088b9190612988565b506040516370a0823160e01b815230600482015273af88d065e77c8cc2239327c5edb3a432268e58319063a9059cbb90339083906370a0823190602401602060405180830381865afa1580156108e3573d5f5f3e3d5ffd5b505050506040513d601f19601f8201168201806040525081019061090791906129ae565b6040518363ffffffff1660e01b815260040161092492919061296f565b6020604051808303815f875af1158015610940573d5f5f3e3d5ffd5b505050506040513d601f19601f820116820180604052508101906109649190612988565b506040516370a0823160e01b8152306004820152732f2a2543b76a4166549f7aab2e75bef0aefc5b0f9063a9059cbb90339083906370a0823190602401602060405180830381865afa1580156109bc573d5f5f3e3d5ffd5b505050506040513d601f19601f820116820180604052508101906109e091906129ae565b6040518363ffffffff1660e01b81526004016109fd92919061296f565b6020604051808303815f875af1158015610a19573d5f5f3e3d5ffd5b505050506040513d601f19601f82011682018060405250810190610a3d9190612988565b506040516370a0823160e01b81523060048201525f5160206130415f395f51905f529063a9059cbb90339083906370a0823190602401602060405180830381865afa158015610a8e573d5f5f3e3d5ffd5b505050506040513d601f19601f82011682018060405250810190610ab291906129ae565b6040518363ffffffff1660e01b8152600401610acf92919061296f565b6020604051808303815f875af1158015610aeb573d5f5f3e3d5ffd5b505050506040513d601f19601f82011682018060405250810190610b0f9190612988565b5050565b6040516370a0823160e01b815273625e7708f30ca75bfd92586e17077590c60eb4cd60048201525f905f5160206130615f395f51905f52906370a0823190602401602060405180830381865afa158015610b6f573d5f5f3e3d5ffd5b505050506040513d601f19601f82011682018060405250810190610b9391906129ae565b604080516003808252608082019092529192505f9190602082016060803683370190505090505f5160206130415f395f51905f52815f81518110610bd957610bd96129c5565b60200260200101906001600160a01b031690816001600160a01b03168152505073af88d065e77c8cc2239327c5edb3a432268e583181600181518110610c2157610c216129c5565b60200260200101906001600160a01b031690816001600160a01b0316815250505f5160206130615f395f51905f5281600281518110610c6257610c626129c5565b6001600160a01b0392909216602092830291909101820152604080516003808252608082019092525f929091908201606080368337019050509050685150ae84a8cdf00000815f81518110610cb957610cb96129c5565b602002602001018181525050650746a528800081600181518110610cdf57610cdf6129c5565b6020908102919091010152610cf8637735940084612ac9565b81600281518110610d0b57610d0b6129c5565b60209081029190910101526040805160038082526080820190925273794a61358d6845594f94dc1db02a252b5b4814ad9163ab9c4b5d9130918691869181602001602082028036833701905050305f6040518763ffffffff1660e01b8152600401610d7b96959493929190612adc565b5f604051808303815f87803b158015610d92575f5ffd5b505af1158015610da4573d5f5f3e3d5ffd5b505060405163a9059cbb60e01b81525f5160206130615f395f51905f52925063a9059cbb9150610df490738cc8093218bcac8b1896a1eed4d925f6f6ab289f906502653feaf8a69060040161296f565b6020604051808303815f875af1158015610e10573d5f5f3e3d5ffd5b505050506040513d601f19601f82011682018060405250810190610e349190612988565b5050505050505050565b60405163a9059cbb60e01b81525f5160206130415f395f51905f529063a9059cbb906101799073c31e54c7a869b9fcbecc14363cf510d1c41fa4439067120a871cc00200009060040161296f565b6040516370a0823160e01b81523060048201525f905f5160206130615f395f51905f52906370a0823190602401602060405180830381865afa158015610ed4573d5f5f3e3d5ffd5b505050506040513d601f19601f82011682018060405250810190610ef891906129ae565b60405163095ea7b360e01b81529091505f5160206130615f395f51905f529063095ea7b390610f3b905f5160206130215f395f51905f52905f199060040161296f565b6020604051808303815f875af1158015610f57573d5f5f3e3d5ffd5b505050506040513d601f19601f82011682018060405250810190610f7b9190612988565b5060405163095ea7b360e01b81525f5160206130415f395f51905f529063095ea7b390610fbc905f5160206130215f395f51905f52905f199060040161296f565b6020604051808303815f875af1158015610fd8573d5f5f3e3d5ffd5b505050506040513d601f19601f82011682018060405250810190610ffc9190612988565b506040516370a0823160e01b81523060048201525f905f5160206130615f395f51905f52906370a0823190602401602060405180830381865afa158015611045573d5f5f3e3d5ffd5b505050506040513d601f19601f8201168201806040525081019061106991906129ae565b6040516370a0823160e01b81523060048201529091505f905f5160206130415f395f51905f52906370a0823190602401602060405180830381865afa1580156110b4573d5f5f3e3d5ffd5b505050506040513d601f19601f820116820180604052508101906110d891906129ae565b604051632505c3d960e01b8152684c1a5d2aebeb3c5d006004820152650343703cd00060248201525f6044820181905260648201529091505f5160206130215f395f51905f5290632505c3d9906084015f604051808303815f87803b15801561113f575f5ffd5b505af1158015611151573d5f5f3e3d5ffd5b505060405163095ea7b360e01b81525f5160206130215f395f51905f52925063095ea7b3915061119c90733ff516b89ea72585af520b64285eca5e4a0a8986905f199060040161296f565b6020604051808303815f875af11580156111b8573d5f5f3e3d5ffd5b505050506040513d601f19601f820116820180604052508101906111dc9190612988565b506040516370a0823160e01b81523060048201525f905f5160206130215f395f51905f52906370a0823190602401602060405180830381865afa158015611225573d5f5f3e3d5ffd5b505050506040513d601f19601f8201168201806040525081019061124991906129ae565b60405163e8eda9df60e01b81525f5160206130215f395f51905f526004820152602481018290523060448201525f6064820152909150733ff516b89ea72585af520b64285eca5e4a0a89869063e8eda9df906084015f604051808303815f87803b1580156112b5575f5ffd5b505af11580156112c7573d5f5f3e3d5ffd5b5050604051632fe4a15f60e21b8152306004820152733ff516b89ea72585af520b64285eca5e4a0a8986925063bf92857c915060240160c0604051808303815f875af1158015611319573d5f5f3e3d5ffd5b505050506040513d601f19601f8201168201806040525081019061133d9190612b5b565b505060405163b3596f0760e01b81525f5160206130615f395f51905f5260048201527311a8598c4430c7663fda224c877f231895c8ca69945063b3596f07935060240191506113899050565b602060405180830381865afa1580156113a4573d5f5f3e3d5ffd5b505050506040513d601f19601f820116820180604052508101906113c891906129ae565b505f6040516113d6906124d8565b604051809103905ff0801580156113ef573d5f5f3e3d5ffd5b5060405163a9059cbb60e01b815290915073af88d065e77c8cc2239327c5edb3a432268e58319063a9059cbb906114329084906505e79b47f3769060040161296f565b6020604051808303815f875af115801561144e573d5f5f3e3d5ffd5b505050506040513d601f19601f820116820180604052508101906114729190612988565b50806001600160a01b0316639e5faafc6040518163ffffffff1660e01b81526004015f604051808303815f87803b1580156114ab575f5ffd5b505af11580156114bd573d5f5f3e3d5ffd5b50506040516370a0823160e01b8152732254898d99e3bbb1d10f784e2678d59d88f70f1e60048201525f92505f5160206130215f395f51905f5291506370a0823190602401602060405180830381865afa15801561151d573d5f5f3e3d5ffd5b505050506040513d601f19601f8201168201806040525081019061154191906129ae565b604051631a4ca37b60e21b81525f5160206130215f395f51905f52600482015260248101829052306044820152909150733ff516b89ea72585af520b64285eca5e4a0a8986906369328dec906064016020604051808303815f875af11580156115ac573d5f5f3e3d5ffd5b505050506040513d601f19601f820116820180604052508101906115d091906129ae565b506040516370a0823160e01b81523060048201525f905f5160206130615f395f51905f52906370a0823190602401602060405180830381865afa158015611619573d5f5f3e3d5ffd5b505050506040513d601f19601f8201168201806040525081019061163d91906129ae565b6040516370a0823160e01b81523060048201529091505f905f5160206130415f395f51905f52906370a0823190602401602060405180830381865afa158015611688573d5f5f3e3d5ffd5b505050506040513d601f19601f820116820180604052508101906116ac91906129ae565b90505f5160206130215f395f51905f526001600160a01b031663f69e20466040518163ffffffff1660e01b81526004015f604051808303815f87803b1580156116f3575f5ffd5b505af1158015611705573d5f5f3e3d5ffd5b5050604051632e1a7d4d60e01b8152600481018890525f5160206130215f395f51905f529250632e1a7d4d91506024015f604051808303815f87803b15801561174c575f5ffd5b505af115801561175e573d5f5f3e3d5ffd5b5050604051632505c3d960e01b8152671f2bf9ecb777b324600482015264015632118960248201525f6044820181905260648201525f5160206130215f395f51905f529250632505c3d991506084015f604051808303815f87803b1580156117c4575f5ffd5b505af11580156117d6573d5f5f3e3d5ffd5b505060405163095ea7b360e01b81525f5160206130615f395f51905f52925063095ea7b391506118219073c31e54c7a869b9fcbecc14363cf510d1c41fa443905f199060040161296f565b6020604051808303815f875af115801561183d573d5f5f3e3d5ffd5b505050506040513d601f19601f820116820180604052508101906118619190612988565b5060405163095ea7b360e01b81525f5160206130415f395f51905f529063095ea7b3906118a99073c31e54c7a869b9fcbecc14363cf510d1c41fa443905f199060040161296f565b6020604051808303815f875af11580156118c5573d5f5f3e3d5ffd5b505050506040513d601f19601f820116820180604052508101906118e99190612988565b506040516370a0823160e01b81523060048201525f905f5160206130415f395f51905f52906370a0823190602401602060405180830381865afa158015611932573d5f5f3e3d5ffd5b505050506040513d601f19601f8201168201806040525081019061195691906129ae565b604051630251596160e31b815290915073c31e54c7a869b9fcbecc14363cf510d1c41fa4439063128acb08906119a290309060019086906a02e21a772e0eac5f27cbc290600401612ba1565b60408051808303815f875af11580156119bd573d5f5f3e3d5ffd5b505050506040513d601f19601f820116820180604052508101906119e19190612bda565b50506040516312439b2f60e21b8152306004820152670de0b6b3a764000060248201525f6044820181905260806064830152608482015273c31e54c7a869b9fcbecc14363cf510d1c41fa4439063490e6cbc9060a4015f604051808303815f87803b158015611a4e575f5ffd5b505af1158015611a60573d5f5f3e3d5ffd5b50506040516370a0823160e01b81523060048201525f92505f5160206130215f395f51905f5291506370a0823190602401602060405180830381865afa158015611aac573d5f5f3e3d5ffd5b505050506040513d601f19601f82011682018060405250810190611ad091906129ae565b604051632e1a7d4d60e01b8152600481018290529091505f5160206130215f395f51905f5290632e1a7d4d906024015f604051808303815f87803b158015611b16575f5ffd5b505af1158015611b28573d5f5f3e3d5ffd5b5050604051630251596160e31b815273c31e54c7a869b9fcbecc14363cf510d1c41fa443925063128acb089150611b829030905f9064cd4a5eb21c9073fffd8963efd1fc6a506488495d951d5263988bd090600401612ba1565b60408051808303815f875af1158015611b9d573d5f5f3e3d5ffd5b505050506040513d601f19601f82011682018060405250810190611bc19190612bda565b50506040516370a0823160e01b81527356ea05c0c3b665f67538909343fb3becb4fe571460048201525f9073af88d065e77c8cc2239327c5edb3a432268e5831906370a0823190602401602060405180830381865afa158015611c26573d5f5f3e3d5ffd5b505050506040513d601f19601f82011682018060405250810190611c4a91906129ae565b60405163a415bcad60e01b8152909150733ff516b89ea72585af520b64285eca5e4a0a89869063a415bcad90611ca19073af88d065e77c8cc2239327c5edb3a432268e58319085906002905f903090600401612bfc565b5f604051808303815f87803b158015611cb8575f5ffd5b505af1158015611cca573d5f5f3e3d5ffd5b50506040516370a0823160e01b8152735e166a3a9ebcafe9cf62cc2bd2cf41a109de18af60048201525f9250732f2a2543b76a4166549f7aab2e75bef0aefc5b0f91506370a0823190602401602060405180830381865afa158015611d31573d5f5f3e3d5ffd5b505050506040513d601f19601f82011682018060405250810190611d5591906129ae565b60405163a415bcad60e01b8152909150733ff516b89ea72585af520b64285eca5e4a0a89869063a415bcad90611dac90732f2a2543b76a4166549f7aab2e75bef0aefc5b0f9085906002905f903090600401612bfc565b5f604051808303815f87803b158015611dc3575f5ffd5b505af1158015611dd5573d5f5f3e3d5ffd5b50506040516370a0823160e01b8152737cb47f4f634fa0f8165de2fe3528471bd127533a60048201525f92505f5160206130415f395f51905f5291506370a0823190602401602060405180830381865afa158015611e35573d5f5f3e3d5ffd5b505050506040513d601f19601f82011682018060405250810190611e5991906129ae565b60405163a415bcad60e01b8152909150733ff516b89ea72585af520b64285eca5e4a0a89869063a415bcad90611ea9905f5160206130415f395f51905f529085906002905f903090600401612bfc565b5f604051808303815f87803b158015611ec0575f5ffd5b505af1158015611ed2573d5f5f3e3d5ffd5b50506040516370a0823160e01b815273e879a4b54396aebb3416bc72a1ab1d360c2caff660048201525f92505f5160206130615f395f51905f5291506370a0823190602401602060405180830381865afa158015611f32573d5f5f3e3d5ffd5b505050506040513d601f19601f82011682018060405250810190611f5691906129ae565b60405163a415bcad60e01b8152909150733ff516b89ea72585af520b64285eca5e4a0a89869063a415bcad90611fa6905f5160206130615f395f51905f529085906002905f903090600401612bfc565b5f604051808303815f87803b158015611fbd575f5ffd5b505af1158015611fcf573d5f5f3e3d5ffd5b50506040516370a0823160e01b81523060048201525f92505f5160206130415f395f51905f5291506370a0823190602401602060405180830381865afa15801561201b573d5f5f3e3d5ffd5b505050506040513d601f19601f8201168201806040525081019061203f91906129ae565b60405163095ea7b360e01b815290915073af88d065e77c8cc2239327c5edb3a432268e58319063095ea7b390612090907368b3465833fb72a70ecdf485e0e4c7bd8665fc45905f199060040161296f565b6020604051808303815f875af11580156120ac573d5f5f3e3d5ffd5b505050506040513d601f19601f820116820180604052508101906120d09190612988565b506040805160e08101825273af88d065e77c8cc2239327c5edb3a432268e583181525f5160206130415f395f51905f52602082019081526101f4828401908152306060840190815267185d492f0cc98b8e608085019081525f1960a0860190815273fffd8963efd1fc6a506488495d951d5263988bd060c087019081529651635023b4df60e01b815286516001600160a01b039081166004830152955186166024820152935162ffffff1660448501529151841660648401525160848301525160a482015292511660c4830152907368b3465833fb72a70ecdf485e0e4c7bd8665fc4590635023b4df9060e4016020604051808303815f875af11580156121d9573d5f5f3e3d5ffd5b505050506040513d601f19601f820116820180604052508101906121fd91906129ae565b506040516370a0823160e01b81523060048201525f905f5160206130615f395f51905f52906370a0823190602401602060405180830381865afa158015612246573d5f5f3e3d5ffd5b505050506040513d601f19601f8201168201806040525081019061226a91906129ae565b604051630251596160e31b815290915073c86eb7b85807020b4548ee05b54bfc956eebbfcd9063128acb08906122b69030906001906401066a5b3d19906401000277a890600401612ba1565b60408051808303815f875af11580156122d1573d5f5f3e3d5ffd5b505050506040513d601f19601f820116820180604052508101906122f59190612bda565b505060405163a9059cbb60e01b81525f5160206130615f395f51905f529063a9059cbb906123439073ba12222222228d8ba445958a75a0704d566bf2c89065012456de4b359060040161296f565b6020604051808303815f875af115801561235f573d5f5f3e3d5ffd5b505050506040513d601f19601f820116820180604052508101906123839190612988565b50505050505050505050505050505050505050505050565b6001545f0361242c5760405163a9059cbb60e01b81525f5160206130415f395f51905f529063a9059cbb906123ea9073c31e54c7a869b9fcbecc14363cf510d1c41fa44390889060040161296f565b6020604051808303815f875af1158015612406573d5f5f3e3d5ffd5b505050506040513d601f19601f8201168201806040525081019061242a9190612988565b505b6001546001036124be5760405163a9059cbb60e01b81525f5160206130615f395f51905f529063a9059cbb9061247c9073c31e54c7a869b9fcbecc14363cf510d1c41fa44390879060040161296f565b6020604051808303815f875af1158015612498573d5f5f3e3d5ffd5b505050506040513d601f19601f820116820180604052508101906124bc9190612988565b505b60018054905f6124cd83612c30565b919050555050505050565b6103d880612c4983390190565b5f5f83601f8401126124f5575f5ffd5b5081356001600160401b0381111561250b575f5ffd5b602083019150836020828501011115612522575f5ffd5b9250929050565b5f5f5f5f6060858703121561253c575f5ffd5b843593506020850135925060408501356001600160401b0381111561255f575f5ffd5b61256b878288016124e5565b95989497509550505050565b80356001600160a01b038116811461258d575f5ffd5b919050565b5f5f5f5f5f5f60a087890312156125a7575f5ffd5b6125b087612577565b95506125be60208801612577565b9450604087013593506060870135925060808701356001600160401b038111156125e6575f5ffd5b6125f289828a016124e5565b979a9699509497509295939492505050565b5f5f83601f840112612614575f5ffd5b5081356001600160401b0381111561262a575f5ffd5b6020830191508360208260051b8501011115612522575f5ffd5b5f5f5f5f5f5f5f5f5f60a08a8c03121561265c575f5ffd5b89356001600160401b03811115612671575f5ffd5b61267d8c828d01612604565b909a5098505060208a01356001600160401b0381111561269b575f5ffd5b6126a78c828d01612604565b90985096505060408a01356001600160401b038111156126c5575f5ffd5b6126d18c828d01612604565b90965094506126e4905060608b01612577565b925060808a01356001600160401b038111156126fe575f5ffd5b61270a8c828d016124e5565b915080935050809150509295985092959850929598565b634e487b7160e01b5f52604160045260245ffd5b604051601f8201601f191681016001600160401b038111828210171561275d5761275d612721565b604052919050565b5f6001600160401b0382111561277d5761277d612721565b5060051b60200190565b5f82601f830112612796575f5ffd5b81356127a96127a482612765565b612735565b8082825260208201915060208360051b8601019250858311156127ca575f5ffd5b602085015b838110156127e75780358352602092830192016127cf565b5095945050505050565b5f82601f830112612800575f5ffd5b81356001600160401b0381111561281957612819612721565b61282c601f8201601f1916602001612735565b818152846020838601011115612840575f5ffd5b816020850160208301375f918101602001919091529392505050565b5f5f5f5f6080858703121561286f575f5ffd5b84356001600160401b03811115612884575f5ffd5b8501601f81018713612894575f5ffd5b80356128a26127a482612765565b8082825260208201915060208360051b8501019250898311156128c3575f5ffd5b6020840193505b828410156128ec576128db84612577565b8252602093840193909101906128ca565b965050505060208501356001600160401b03811115612909575f5ffd5b61291587828801612787565b93505060408501356001600160401b03811115612930575f5ffd5b61293c87828801612787565b92505060608501356001600160401b03811115612957575f5ffd5b612963878288016127f1565b91505092959194509250565b6001600160a01b03929092168252602082015260400190565b5f60208284031215612998575f5ffd5b815180151581146129a7575f5ffd5b9392505050565b5f602082840312156129be575f5ffd5b5051919050565b634e487b7160e01b5f52603260045260245ffd5b5f8151808452602084019350602083015f5b82811015612a125781516001600160a01b03168652602095860195909101906001016129eb565b5093949350505050565b5f8151808452602084019350602083015f5b82811015612a12578151865260209586019590910190600101612a2e565b6001600160a01b03841681526080602082018190525f90612a6f908301856129d9565b8281036040840152612a818185612a1c565b83810360609094019390935250505f81526020019392505050565b634e487b7160e01b5f52601160045260245ffd5b80820180821115612ac357612ac3612a9c565b92915050565b81810381811115612ac357612ac3612a9c565b6001600160a01b038716815260e0602082018190525f90612aff908301886129d9565b8281036040840152612b118188612a1c565b90508281036060840152612b258187612a1c565b6001600160a01b03959095166080840152505080830360a08201525f835261ffff9190911660c090910152602001949350505050565b5f5f5f5f5f5f60c08789031215612b70575f5ffd5b50508451602086015160408701516060880151608089015160a090990151939a929950909790965094509092509050565b6001600160a01b03948516815292151560208401526040830191909152909116606082015260a0608082018190525f9082015260c00190565b5f5f60408385031215612beb575f5ffd5b505080516020909101519092909150565b6001600160a01b0395861681526020810194909452604084019290925261ffff166060830152909116608082015260a00190565b5f60018201612c4157612c41612a9c565b506001019056fe6080604052348015600e575f5ffd5b506103bc8061001c5f395ff3fe608060405234801561000f575f5ffd5b5060043610610029575f3560e01c80639e5faafc1461002d575b5f5ffd5b610035610037565b005b60405163095ea7b360e01b8152733ff516b89ea72585af520b64285eca5e4a0a898660048201525f19602482015273af88d065e77c8cc2239327c5edb3a432268e58319063095ea7b3906044016020604051808303815f875af11580156100a0573d5f5f3e3d5ffd5b505050506040513d601f19601f820116820180604052508101906100c49190610349565b506040516370a0823160e01b81523060048201525f9073af88d065e77c8cc2239327c5edb3a432268e5831906370a0823190602401602060405180830381865afa158015610114573d5f5f3e3d5ffd5b505050506040513d601f19601f82011682018060405250810190610138919061036f565b60405163e8eda9df60e01b815273af88d065e77c8cc2239327c5edb3a432268e58316004820152602481018290523060448201525f6064820152909150733ff516b89ea72585af520b64285eca5e4a0a89869063e8eda9df906084015f604051808303815f87803b1580156101ab575f5ffd5b505af11580156101bd573d5f5f3e3d5ffd5b505060405163a415bcad60e01b8152736700b021a8bcfae25a2493d16d7078c928c1315160048201526705f9e23d0ad3d94c6024820152600260448201525f6064820152306084820152733ff516b89ea72585af520b64285eca5e4a0a8986925063a415bcad915060a4015f604051808303815f87803b15801561023f575f5ffd5b505af1158015610251573d5f5f3e3d5ffd5b50506040516370a0823160e01b81523060048201525f9250736700b021a8bcfae25a2493d16d7078c928c1315191506370a0823190602401602060405180830381865afa1580156102a4573d5f5f3e3d5ffd5b505050506040513d601f19601f820116820180604052508101906102c8919061036f565b60405163a9059cbb60e01b815233600482015260248101829052909150736700b021a8bcfae25a2493d16d7078c928c131519063a9059cbb906044016020604051808303815f875af1158015610320573d5f5f3e3d5ffd5b505050506040513d601f19601f820116820180604052508101906103449190610349565b505050565b5f60208284031215610359575f5ffd5b81518015158114610368575f5ffd5b9392505050565b5f6020828403121561037f575f5ffd5b505191905056fea26469706673582212209901e3640f19013d2ee49223dcc8e3b37466f77a8e61b860aaf64784f6a8800f64736f6c634300081c00330000000000000000000000006700b021a8bcfae25a2493d16d7078c928c1315100000000000000000000000082af49447d8a07e3bd95bd0d56f35241523fbab1000000000000000000000000ff970a61a04b1ca14834a43f5de4533ebddb5cc8a2646970667358221220bd3c34fbbc966185bad7a28c56ff868b120951e346499f5a2c96ddc07eeed9ac64736f6c634300081c0033","linkReferences":{}},"methodIdentifiers":{"algebraFlashCallback(uint256,uint256,bytes)":"a60b0d3c","algebraSwapCallback(int256,int256,bytes)":"2c8958f6","attack()":"9e5faafc","executeOperation(address,address,uint256,uint256,bytes)":"405b019d","executeOperation(address[],uint256[],uint256[],address,bytes)":"920f5c84","receiveFlashLoan(address[],uint256[],uint256[],bytes)":"f04f2707","uniswapV3FlashCallback(uint256,uint256,bytes)":"e9cbafb0","uniswapV3SwapCallback(int256,int256,bytes)":"fa461e33"},"id":548}