{"abi":[{"type":"function","name":"borrow","inputs":[],"outputs":[],"stateMutability":"nonpayable"}],"bytecode":{"object":"0x6080604052348015600e575f5ffd5b506109008061001c5f395ff3fe608060405234801561000f575f5ffd5b5060043610610029575f3560e01c8063e68d35691461002d575b5f5ffd5b610035610037565b005b60408051600580825260c082019092525f916020820160a08036833701905050905073ff970a61a04b1ca14834a43f5de4533ebddb5cc8815f8151811061008057610080610879565b60200260200101906001600160a01b031690816001600160a01b03168152505073af88d065e77c8cc2239327c5edb3a432268e5831816001815181106100c8576100c8610879565b60200260200101906001600160a01b031690816001600160a01b03168152505073fd086bc7cd5c481dcc9c85ebe478a1c0b69fcbb98160028151811061011057610110610879565b60200260200101906001600160a01b031690816001600160a01b0316815250507382af49447d8a07e3bd95bd0d56f35241523fbab18160038151811061015857610158610879565b60200260200101906001600160a01b031690816001600160a01b031681525050735979d7b546e38e414f7e9822514be443a4800529816004815181106101a0576101a0610879565b6001600160a01b039290921660209283029190910182015260408051600580825260c082019092525f92909190820160a0803683370190505090507316cba9a6a9bb38e339d4250da0afd919c6bdbdfe815f8151811061020257610202610879565b60200260200101906001600160a01b031690816001600160a01b0316815250507316cb622cae7ad9fd2b0780b2026ed301414781fe8160018151811061024a5761024a610879565b60200260200101906001600160a01b031690816001600160a01b031681525050738da6bc74b2534030cd38c996c395b914990fa6848160028151811061029257610292610879565b60200260200101906001600160a01b031690816001600160a01b03168152505073ec9b99c8262b72d846f0f80fce76af7d3c7c6af6816003815181106102da576102da610879565b60200260200101906001600160a01b031690816001600160a01b03168152505073cb1332663a39f238bcd1cc7621e3e24a50251b948160048151811061032257610322610879565b60200260200101906001600160a01b031690816001600160a01b0316815250505f5b82518110156108745773fd086bc7cd5c481dcc9c85ebe478a1c0b69fcbb96001600160a01b031683828151811061037d5761037d610879565b60200260200101516001600160a01b0316036105f35773403049e886b13e42c149f15450ceb795216cddc66001600160a01b031663a415bcad8483815181106103c8576103c8610879565b60200260200101518584815181106103e2576103e2610879565b60200260200101516001600160a01b03166370a0823186868151811061040a5761040a610879565b60200260200101516040518263ffffffff1660e01b815260040161043d91906001600160a01b0391909116815260200190565b602060405180830381865afa158015610458573d5f5f3e3d5ffd5b505050506040513d601f19601f8201168201806040525081019061047c919061088d565b6040516001600160e01b031960e085901b1681526001600160a01b0390921660048301526024820152600260448201525f606482015230608482015260a4015f604051808303815f87803b1580156104d2575f5ffd5b505af11580156104e4573d5f5f3e3d5ffd5b505050508281815181106104fa576104fa610879565b60200260200101516001600160a01b031663a9059cbb3385848151811061052357610523610879565b60209081029190910101516040516370a0823160e01b81523060048201526001600160a01b03909116906370a0823190602401602060405180830381865afa158015610571573d5f5f3e3d5ffd5b505050506040513d601f19601f82011682018060405250810190610595919061088d565b6040516001600160e01b031960e085901b1681526001600160a01b03909216600483015260248201526044015f604051808303815f87803b1580156105d8575f5ffd5b505af11580156105ea573d5f5f3e3d5ffd5b5050505061086c565b5f83828151811061060657610606610879565b60200260200101516001600160a01b03166370a0823184848151811061062e5761062e610879565b60200260200101516040518263ffffffff1660e01b815260040161066191906001600160a01b0391909116815260200190565b602060405180830381865afa15801561067c573d5f5f3e3d5ffd5b505050506040513d601f19601f820116820180604052508101906106a0919061088d565b905073403049e886b13e42c149f15450ceb795216cddc66001600160a01b031663a415bcad8584815181106106d7576106d7610879565b60209081029190910101516040516001600160e01b031960e084901b1681526001600160a01b03909116600482015260248101849052600260448201525f606482015230608482015260a4015f604051808303815f87803b15801561073a575f5ffd5b505af115801561074c573d5f5f3e3d5ffd5b5050505083828151811061076257610762610879565b60200260200101516001600160a01b031663a9059cbb3386858151811061078b5761078b610879565b60209081029190910101516040516370a0823160e01b81523060048201526001600160a01b03909116906370a0823190602401602060405180830381865afa1580156107d9573d5f5f3e3d5ffd5b505050506040513d601f19601f820116820180604052508101906107fd919061088d565b6040516001600160e01b031960e085901b1681526001600160a01b03909216600483015260248201526044016020604051808303815f875af1158015610845573d5f5f3e3d5ffd5b505050506040513d601f19601f8201168201806040525081019061086991906108a4565b50505b600101610344565b505050565b634e487b7160e01b5f52603260045260245ffd5b5f6020828403121561089d575f5ffd5b5051919050565b5f602082840312156108b4575f5ffd5b815180151581146108c3575f5ffd5b939250505056fea26469706673582212205fd1fe0ec7a30dbc37194748796ea6aab626ddc1dabf45921116685651e88a4b64736f6c634300081c0033","linkReferences":{}},"methodIdentifiers":{"borrow()":"e68d3569"},"id":450}