{"abi":[{"type":"constructor","inputs":[],"stateMutability":"nonpayable"},{"type":"function","name":"execute","inputs":[{"name":"_sender","type":"address","internalType":"address"}],"outputs":[],"stateMutability":"nonpayable"}],"bytecode":{"object":"0x60a0604052348015600e575f5ffd5b503360805260805161057561002b5f395f6102a301526105755ff3fe608060405234801561000f575f5ffd5b5060043610610029575f3560e01c80634b64e4921461002d575b5f5ffd5b61004061003b366004610366565b610042565b005b60405163095ea7b360e01b81527310ed43c718714eb63d5aa57b78b54704e256024e60048201525f19602482015273bb4cdb9cbd36b01bd1cbaebf2de08d9173bc095c9063095ea7b3906044016020604051808303815f875af11580156100ab573d5f5f3e3d5ffd5b505050506040513d601f19601f820116820180604052508101906100cf9190610393565b506040805160028082526060820183525f9260208301908036833701905050905073bb4cdb9cbd36b01bd1cbaebf2de08d9173bc095c815f81518110610117576101176103c6565b60200260200101906001600160a01b031690816001600160a01b0316815250507355d398326f99059ff775485246999027b31979558160018151811061015f5761015f6103c6565b6001600160a01b0392909216602092830291909101909101526040516370a0823160e01b81523060048201527310ed43c718714eb63d5aa57b78b54704e256024e906338ed17399073bb4cdb9cbd36b01bd1cbaebf2de08d9173bc095c906370a0823190602401602060405180830381865afa1580156101e1573d5f5f3e3d5ffd5b505050506040513d601f19601f8201168201806040525081019061020591906103da565b60018433426040518663ffffffff1660e01b815260040161022a9594939291906103f1565b5f604051808303815f875af1158015610245573d5f5f3e3d5ffd5b505050506040513d5f823e601f3d908101601f1916820160405261026c9190810190610461565b5060408051600481526024810182526020810180516001600160e01b031663e68d356960e01b17905290515f916001600160a01b037f000000000000000000000000000000000000000000000000000000000000000016916102ce9190610529565b5f604051808303815f865af19150503d805f8114610307576040519150601f19603f3d011682016040523d82523d5f602084013e61030c565b606091505b50509050806103615760405162461bcd60e51b815260206004820152601d60248201527f43616c6c20746f20626f72726f77206e6f74207375636365737366756c000000604482015260640160405180910390fd5b505050565b5f60208284031215610376575f5ffd5b81356001600160a01b038116811461038c575f5ffd5b9392505050565b5f602082840312156103a3575f5ffd5b8151801515811461038c575f5ffd5b634e487b7160e01b5f52604160045260245ffd5b634e487b7160e01b5f52603260045260245ffd5b5f602082840312156103ea575f5ffd5b5051919050565b5f60a0820187835286602084015260a0604084015280865180835260c0850191506020880192505f5b818110156104415783516001600160a01b031683526020938401939092019160010161041a565b50506001600160a01b039590951660608401525050608001529392505050565b5f60208284031215610471575f5ffd5b815167ffffffffffffffff811115610487575f5ffd5b8201601f81018413610497575f5ffd5b805167ffffffffffffffff8111156104b1576104b16103b2565b8060051b604051601f19603f830116810181811067ffffffffffffffff821117156104de576104de6103b2565b6040529182526020818401810192908101878411156104fb575f5ffd5b6020850194505b8385101561051e57845180825260209586019590935001610502565b509695505050505050565b5f82518060208501845e5f92019182525091905056fea26469706673582212209579dc6fecfef0fdbed28fe54d45bb8c0eda73da1244330663228f2bffd7829f64736f6c634300081c0033","linkReferences":{}},"methodIdentifiers":{"execute(address)":"4b64e492"},"id":472}