{"abi":[{"type":"constructor","inputs":[{"name":"owner","type":"address","internalType":"address"}],"stateMutability":"nonpayable"},{"type":"function","name":"deposit","inputs":[{"name":"amount","type":"uint256","internalType":"uint256"}],"outputs":[],"stateMutability":"nonpayable"},{"type":"function","name":"withdraw","inputs":[{"name":"amount","type":"uint256","internalType":"uint256"}],"outputs":[],"stateMutability":"nonpayable"}],"bytecode":{"object":"0x60806040525f80546001600160a01b0319908116735c0d0111ffc638802c9efccf55934d5c63ab3f79179091556001805490911673a7b5eabc3ee82c585f5f4ccc26b81c3bd62ff3a9179055348015610056575f5ffd5b506040516103e83803806103e883398101604081905261007591610109565b600280546001600160a01b0319166001600160a01b03838116919091179091555f5460015460405163095ea7b360e01b815290831660048201525f19602482015291169063095ea7b3906044016020604051808303815f875af11580156100de573d5f5f3e3d5ffd5b505050506040513d601f19601f820116820180604052508101906101029190610136565b5050610155565b5f60208284031215610119575f5ffd5b81516001600160a01b038116811461012f575f5ffd5b9392505050565b5f60208284031215610146575f5ffd5b8151801515811461012f575f5ffd5b610286806101625f395ff3fe608060405234801561000f575f5ffd5b5060043610610034575f3560e01c80632e1a7d4d14610038578063b6b55f251461004d575b5f5ffd5b61004b6100463660046101fc565b610060565b005b61004b61005b3660046101fc565b6101a0565b60015460405163db006a7560e01b8152600481018390526001600160a01b039091169063db006a75906024015f604051808303815f87803b1580156100a3575f5ffd5b505af11580156100b5573d5f5f3e3d5ffd5b50505f546002546040516370a0823160e01b81523060048201526001600160a01b03928316945063a9059cbb935091169083906370a0823190602401602060405180830381865afa15801561010c573d5f5f3e3d5ffd5b505050506040513d601f19601f820116820180604052508101906101309190610213565b6040516001600160e01b031960e085901b1681526001600160a01b03909216600483015260248201526044016020604051808303815f875af1158015610178573d5f5f3e3d5ffd5b505050506040513d601f19601f8201168201806040525081019061019c919061022a565b5050565b60015460405163b6b55f2560e01b8152600481018390526001600160a01b039091169063b6b55f25906024015f604051808303815f87803b1580156101e3575f5ffd5b505af11580156101f5573d5f5f3e3d5ffd5b5050505050565b5f6020828403121561020c575f5ffd5b5035919050565b5f60208284031215610223575f5ffd5b5051919050565b5f6020828403121561023a575f5ffd5b81518015158114610249575f5ffd5b939250505056fea264697066735822122005dbbb0e33a6135625a055c678a774274ecf3471f0ea3398d5987c43d0593ca964736f6c634300081c0033","linkReferences":{}},"methodIdentifiers":{"deposit(uint256)":"b6b55f25","withdraw(uint256)":"2e1a7d4d"},"id":178}