{"abi":[{"type":"constructor","inputs":[{"name":"_masterchef","type":"address","internalType":"contract IMasterChef"}],"stateMutability":"nonpayable"},{"type":"function","name":"allowance","inputs":[{"name":"owner","type":"address","internalType":"address"},{"name":"spender","type":"address","internalType":"address"}],"outputs":[{"name":"","type":"uint256","internalType":"uint256"}],"stateMutability":"view"},{"type":"function","name":"balanceOf","inputs":[{"name":"account","type":"address","internalType":"address"}],"outputs":[{"name":"","type":"uint256","internalType":"uint256"}],"stateMutability":"view"},{"type":"function","name":"redeem","inputs":[],"outputs":[],"stateMutability":"nonpayable"},{"type":"function","name":"transferFrom","inputs":[{"name":"from","type":"address","internalType":"address"},{"name":"to","type":"address","internalType":"address"},{"name":"amount","type":"uint256","internalType":"uint256"}],"outputs":[{"name":"","type":"bool","internalType":"bool"}],"stateMutability":"nonpayable"}],"bytecode":{"object":"0x6080604052600180546001600160a01b03199081167355d398326f99059ff775485246999027b3197955179091556002805490911673e9e7cea3dedca5984780bafc599bd69add087d561790553480156056575f5ffd5b5060405161083c38038061083c8339810160408190526073916096565b5f80546001600160a01b0319166001600160a01b039290921691909117905560c1565b5f6020828403121560a5575f5ffd5b81516001600160a01b038116811460ba575f5ffd5b9392505050565b61076e806100ce5f395ff3fe608060405234801561000f575f5ffd5b506004361061004a575f3560e01c806323b872dd1461004e57806370a0823114610076578063be040fb014610099578063dd62ed3e146100a3575b5f5ffd5b61006161005c3660046105ec565b6100b9565b60405190151581526020015b60405180910390f35b61008b610084366004610625565b5061045790565b60405190815260200161006d565b6100a1610330565b005b61008b6100b1366004610645565b5f1992915050565b5f80546001600160a01b0316158015906100dd57505f546001600160a01b03163314155b15610326576001545f5460405163095ea7b360e01b81526001600160a01b0391821660048201525f19602482015291169063095ea7b3906044016020604051808303815f875af1158015610133573d5f5f3e3d5ffd5b505050506040513d601f19601f820116820180604052508101906101579190610676565b506002545f5460405163095ea7b360e01b81526001600160a01b0391821660048201525f19602482015291169063095ea7b3906044016020604051808303815f875af11580156101a9573d5f5f3e3d5ffd5b505050506040513d601f19601f820116820180604052508101906101cd9190610676565b505f546040805180820182526001546001600160a01b03908116808352600254821660208401528351808501948590526370a0823160e01b90945230604485015293169263ff09731b926012929181906370a0823160648301602060405180830381865afa158015610241573d5f5f3e3d5ffd5b505050506040513d601f19601f820116820180604052508101906102659190610695565b81526002546040516370a0823160e01b81523060048201526020909201916001600160a01b03909116906370a0823190602401602060405180830381865afa1580156102b3573d5f5f3e3d5ffd5b505050506040513d601f19601f820116820180604052508101906102d79190610695565b8152506040518463ffffffff1660e01b81526004016102f8939291906106ac565b5f604051808303815f87803b15801561030f575f5ffd5b505af1158015610321573d5f5f3e3d5ffd5b505050505b5060019392505050565b5f80546040516393f1a40b60e01b8152601260048201523060248201526001600160a01b03909116906393f1a40b906044016040805180830381865afa15801561037c573d5f5f3e3d5ffd5b505050506040513d601f19601f820116820180604052508101906103a09190610716565b505f80546040516303fe904160e21b8152601260048201526024810184905260448101929092529192506001600160a01b0390911690630ffa4104906064015f604051808303815f87803b1580156103f6575f5ffd5b505af1158015610408573d5f5f3e3d5ffd5b50506001546040516370a0823160e01b81523060048201526001600160a01b03909116925063a9059cbb9150339083906370a0823190602401602060405180830381865afa15801561045c573d5f5f3e3d5ffd5b505050506040513d601f19601f820116820180604052508101906104809190610695565b6040516001600160e01b031960e085901b1681526001600160a01b03909216600483015260248201526044016020604051808303815f875af11580156104c8573d5f5f3e3d5ffd5b505050506040513d601f19601f820116820180604052508101906104ec9190610676565b506002546040516370a0823160e01b81523060048201526001600160a01b039091169063a9059cbb90339083906370a0823190602401602060405180830381865afa15801561053d573d5f5f3e3d5ffd5b505050506040513d601f19601f820116820180604052508101906105619190610695565b6040516001600160e01b031960e085901b1681526001600160a01b03909216600483015260248201526044016020604051808303815f875af11580156105a9573d5f5f3e3d5ffd5b505050506040513d601f19601f820116820180604052508101906105cd9190610676565b5050565b80356001600160a01b03811681146105e7575f5ffd5b919050565b5f5f5f606084860312156105fe575f5ffd5b610607846105d1565b9250610615602085016105d1565b9150604084013590509250925092565b5f60208284031215610635575f5ffd5b61063e826105d1565b9392505050565b5f5f60408385031215610656575f5ffd5b61065f836105d1565b915061066d602084016105d1565b90509250929050565b5f60208284031215610686575f5ffd5b8151801515811461063e575f5ffd5b5f602082840312156106a5575f5ffd5b5051919050565b83815260a0810160208201845f5b60028110156106e25781516001600160a01b03168352602092830192909101906001016106ba565b50505060608201835f5b600281101561070b5781518352602092830192909101906001016106ec565b505050949350505050565b5f5f60408385031215610727575f5ffd5b50508051602090910151909290915056fea2646970667358221220253f7afd97144fdc6091a351eeea9d0d197e79280208471185620a543a5c165c64736f6c634300081c0033","linkReferences":{}},"methodIdentifiers":{"allowance(address,address)":"dd62ed3e","balanceOf(address)":"70a08231","redeem()":"be040fb0","transferFrom(address,address,uint256)":"23b872dd"},"id":64}