{"abi":[{"type":"receive","stateMutability":"payable"},{"type":"function","name":"attack","inputs":[],"outputs":[],"stateMutability":"nonpayable"},{"type":"function","name":"pancakeV3FlashCallback","inputs":[{"name":"fee0","type":"uint256","internalType":"uint256"},{"name":"fee1","type":"uint256","internalType":"uint256"},{"name":"data","type":"bytes","internalType":"bytes"}],"outputs":[],"stateMutability":"nonpayable"}],"bytecode":{"object":"0x6080604052348015600e575f5ffd5b5061052e8061001c5f395ff3fe60806040526004361061002b575f3560e01c80639e5faafc14610036578063a1d483361461004c575f5ffd5b3661003257005b5f5ffd5b348015610041575f5ffd5b5061004a61006b565b005b348015610057575f5ffd5b5061004a61006636600461043f565b6101d8565b6040516312439b2f60e21b81523060048201525f602482018190526901b1ae4d6e2ef500000060448301526080606483015260848201527336696169c63e42cd08ce11f5deebbcebae6520509063490e6cbc9060a4015f604051808303815f87803b1580156100d8575f5ffd5b505af11580156100ea573d5f5f3e3d5ffd5b50506040516370a0823160e01b815230600482015273bb4cdb9cbd36b01bd1cbaebf2de08d9173bc095c925063a9059cbb9150339083906370a0823190602401602060405180830381865afa158015610145573d5f5f3e3d5ffd5b505050506040513d601f19601f8201168201806040525081019061016991906104bb565b6040516001600160e01b031960e085901b1681526001600160a01b03909216600483015260248201526044016020604051808303815f875af11580156101b1573d5f5f3e3d5ffd5b505050506040513d601f19601f820116820180604052508101906101d591906104d2565b50565b604051632e1a7d4d60e01b81526901b1ae4d6e2ef5000000600482015273bb4cdb9cbd36b01bd1cbaebf2de08d9173bc095c90632e1a7d4d906024015f604051808303815f87803b15801561022b575f5ffd5b505af115801561023d573d5f5f3e3d5ffd5b505060405173be779d420b7d573c08eee226b9958737b621888892506901b1ae4d6e2ef500000091505f81818185875af1925050503d805f811461029c576040519150601f19603f3d011682016040523d82523d5f602084013e6102a1565b606091505b5050505f5b60c781101561033c5760405163a9059cbb60e01b815273be779d420b7d573c08eee226b9958737b6218888600482018190526a032c931835d1b6948c000060248301529063a9059cbb906044016020604051808303815f875af115801561030f573d5f5f3e3d5ffd5b505050506040513d601f19601f8201168201806040525081019061033391906104d2565b506001016102a6565b5073bb4cdb9cbd36b01bd1cbaebf2de08d9173bc095c6001600160a01b031663d0e30db0476040518263ffffffff1660e01b81526004015f604051808303818588803b15801561038a575f5ffd5b505af115801561039c573d5f5f3e3d5ffd5b505060405163a9059cbb60e01b81527336696169c63e42cd08ce11f5deebbcebae65205060048201526901b1e7338e75f01a0000602482015273bb4cdb9cbd36b01bd1cbaebf2de08d9173bc095c935063a9059cbb925060440190506020604051808303815f875af1158015610414573d5f5f3e3d5ffd5b505050506040513d601f19601f8201168201806040525081019061043891906104d2565b5050505050565b5f5f5f5f60608587031215610452575f5ffd5b8435935060208501359250604085013567ffffffffffffffff811115610476575f5ffd5b8501601f81018713610486575f5ffd5b803567ffffffffffffffff81111561049c575f5ffd5b8760208284010111156104ad575f5ffd5b949793965060200194505050565b5f602082840312156104cb575f5ffd5b5051919050565b5f602082840312156104e2575f5ffd5b815180151581146104f1575f5ffd5b939250505056fea264697066735822122016d8c5dcc200f24f609f03a9e20ad077c481d39ed6b828d9a7210861464b8c5964736f6c634300081c0033","linkReferences":{}},"methodIdentifiers":{"attack()":"9e5faafc","pancakeV3FlashCallback(uint256,uint256,bytes)":"a1d48336"},"id":543}