{"abi":[{"type":"constructor","inputs":[{"name":"token","type":"address","internalType":"contract IERC20"}],"stateMutability":"nonpayable"},{"type":"function","name":"approve","inputs":[{"name":"","type":"address","internalType":"address"},{"name":"","type":"uint256","internalType":"uint256"}],"outputs":[{"name":"","type":"bool","internalType":"bool"}],"stateMutability":"nonpayable"},{"type":"function","name":"balanceOf","inputs":[{"name":"","type":"address","internalType":"address"}],"outputs":[{"name":"","type":"uint256","internalType":"uint256"}],"stateMutability":"nonpayable"},{"type":"function","name":"decimals","inputs":[],"outputs":[{"name":"","type":"uint256","internalType":"uint256"}],"stateMutability":"nonpayable"},{"type":"function","name":"deposit","inputs":[{"name":"amount","type":"uint256","internalType":"uint256"}],"outputs":[],"stateMutability":"nonpayable"},{"type":"function","name":"getRatio","inputs":[],"outputs":[{"name":"","type":"uint256","internalType":"uint256"}],"stateMutability":"nonpayable"},{"type":"function","name":"token","inputs":[],"outputs":[{"name":"","type":"address","internalType":"contract IERC20"}],"stateMutability":"view"},{"type":"function","name":"transfer","inputs":[{"name":"to","type":"address","internalType":"address"},{"name":"amnt","type":"uint256","internalType":"uint256"}],"outputs":[{"name":"","type":"bool","internalType":"bool"}],"stateMutability":"nonpayable"},{"type":"function","name":"transferFrom","inputs":[{"name":"","type":"address","internalType":"address"},{"name":"","type":"address","internalType":"address"},{"name":"","type":"uint256","internalType":"uint256"}],"outputs":[{"name":"","type":"bool","internalType":"bool"}],"stateMutability":"nonpayable"},{"type":"function","name":"withdraw","inputs":[{"name":"","type":"uint256","internalType":"uint256"}],"outputs":[],"stateMutability":"nonpayable"}],"bytecode":{"object":"0x6080604052348015600e575f5ffd5b50604051610343380380610343833981016040819052602b91604e565b5f80546001600160a01b0319166001600160a01b03929092169190911790556079565b5f60208284031215605d575f5ffd5b81516001600160a01b03811681146072575f5ffd5b9392505050565b6102bd806100865f395ff3fe608060405234801561000f575f5ffd5b5060043610610090575f3560e01c806370a082311161006357806370a08231146100f9578063a9059cbb14610094578063b6b55f251461010c578063ec1ebd7a146100e9578063fc0c546a1461011f575f5ffd5b8063095ea7b31461009457806323b872dd146100bf5780632e1a7d4d146100d6578063313ce567146100e9575b5f5ffd5b6100aa6100a23660046101cf565b600192915050565b60405190151581526020015b60405180910390f35b6100aa6100cd3660046101f7565b60019392505050565b6100e76100e4366004610231565b50565b005b5f5b6040519081526020016100b6565b6100eb610107366004610248565b505f90565b6100e761011a366004610231565b610139565b5f546040516001600160a01b0390911681526020016100b6565b5f546040516323b872dd60e01b8152336004820152326024820152604481018390526001600160a01b03909116906323b872dd906064016020604051808303815f875af115801561018c573d5f5f3e3d5ffd5b505050506040513d601f19601f820116820180604052508101906101b09190610268565b5050565b80356001600160a01b03811681146101ca575f5ffd5b919050565b5f5f604083850312156101e0575f5ffd5b6101e9836101b4565b946020939093013593505050565b5f5f5f60608486031215610209575f5ffd5b610212846101b4565b9250610220602085016101b4565b929592945050506040919091013590565b5f60208284031215610241575f5ffd5b5035919050565b5f60208284031215610258575f5ffd5b610261826101b4565b9392505050565b5f60208284031215610278575f5ffd5b81518015158114610261575f5ffdfea2646970667358221220093307f5ed54f02b0ace9267da60df1bc2c2f10675ef53133c18a92a40a2583c64736f6c634300081c0033","linkReferences":{}},"methodIdentifiers":{"approve(address,uint256)":"095ea7b3","balanceOf(address)":"70a08231","decimals()":"313ce567","deposit(uint256)":"b6b55f25","getRatio()":"ec1ebd7a","token()":"fc0c546a","transfer(address,uint256)":"a9059cbb","transferFrom(address,address,uint256)":"23b872dd","withdraw(uint256)":"2e1a7d4d"},"id":30}