{"abi":[{"type":"constructor","inputs":[{"name":"_fake_underlying","type":"address","internalType":"address"},{"name":"_attackerC","type":"address","internalType":"address"}],"stateMutability":"nonpayable"},{"type":"receive","stateMutability":"payable"},{"type":"function","name":"balanceOf","inputs":[{"name":"","type":"address","internalType":"address"}],"outputs":[{"name":"","type":"uint256","internalType":"uint256"}],"stateMutability":"nonpayable"},{"type":"function","name":"borrowBalanceCurrent","inputs":[{"name":"","type":"address","internalType":"address"}],"outputs":[{"name":"","type":"uint256","internalType":"uint256"}],"stateMutability":"nonpayable"},{"type":"function","name":"liquidateBorrow","inputs":[{"name":"","type":"address","internalType":"address"},{"name":"","type":"uint256","internalType":"uint256"},{"name":"","type":"address","internalType":"address"}],"outputs":[{"name":"","type":"uint256","internalType":"uint256"}],"stateMutability":"nonpayable"},{"type":"function","name":"mint","inputs":[{"name":"","type":"uint256","internalType":"uint256"}],"outputs":[{"name":"","type":"bool","internalType":"bool"}],"stateMutability":"nonpayable"},{"type":"function","name":"transfer","inputs":[{"name":"","type":"address","internalType":"address"},{"name":"","type":"uint256","internalType":"uint256"}],"outputs":[{"name":"","type":"bool","internalType":"bool"}],"stateMutability":"nonpayable"},{"type":"function","name":"underlying","inputs":[],"outputs":[{"name":"","type":"address","internalType":"address"}],"stateMutability":"view"}],"bytecode":{"object":"0x6080604052348015600e575f5ffd5b5060405161054f38038061054f833981016040819052602b916074565b5f80546001600160a01b039384166001600160a01b0319918216179091556001805492909316911617905560a0565b80516001600160a01b0381168114606f575f5ffd5b919050565b5f5f604083850312156084575f5ffd5b608b83605a565b9150609760208401605a565b90509250929050565b6104a2806100ad5f395ff3fe608060405260043610610057575f3560e01c806317bfdfbc146100625780636f307dc31461009457806370a0823114610062578063a0712d68146100ba578063a9059cbb146100e4578063f5e3c46214610103575f5ffd5b3661005e57005b5f5ffd5b34801561006d575f5ffd5b5061008161007c36600461039e565b505f90565b6040519081526020015b60405180910390f35b34801561009f575f5ffd5b505f546040516001600160a01b03909116815260200161008b565b3480156100c5575f5ffd5b506100d461007c3660046103be565b604051901515815260200161008b565b3480156100ef575f5ffd5b506100d46100fe3660046103d5565b610125565b34801561010e575f5ffd5b5061008161011d3660046103fd565b5f9392505050565b60405163095ea7b360e01b815273ee894c051c402301bc19be46c231d2a8e38b045160048201525f1960248201525f90730bffdd787c83235f6f0afa0faed42061a4619b7a9063095ea7b3906044016020604051808303815f875af1158015610190573d5f5f3e3d5ffd5b505050506040513d601f19601f820116820180604052508101906101b49190610436565b5060018054604051637af1e23160e11b81526001600160a01b0390911660048201526024810191909152732ccb7d00a9e10d0c3408b5eefb67011abfacb075604482015273ee894c051c402301bc19be46c231d2a8e38b04519063f5e3c462906064016020604051808303815f875af1158015610233573d5f5f3e3d5ffd5b505050506040513d601f19601f820116820180604052508101906102579190610455565b506040516370a0823160e01b81523060048201525f90732ccb7d00a9e10d0c3408b5eefb67011abfacb075906370a0823190602401602060405180830381865afa1580156102a7573d5f5f3e3d5ffd5b505050506040513d601f19601f820116820180604052508101906102cb9190610455565b60405163db006a7560e01b815260048101829052909150732ccb7d00a9e10d0c3408b5eefb67011abfacb0759063db006a75906024016020604051808303815f875af115801561031d573d5f5f3e3d5ffd5b505050506040513d601f19601f820116820180604052508101906103419190610455565b506001546040516001600160a01b03909116904780156108fc02915f818181858888f19350505050158015610378573d5f5f3e3d5ffd5b506001949350505050565b80356001600160a01b0381168114610399575f5ffd5b919050565b5f602082840312156103ae575f5ffd5b6103b782610383565b9392505050565b5f602082840312156103ce575f5ffd5b5035919050565b5f5f604083850312156103e6575f5ffd5b6103ef83610383565b946020939093013593505050565b5f5f5f6060848603121561040f575f5ffd5b61041884610383565b92506020840135915061042d60408501610383565b90509250925092565b5f60208284031215610446575f5ffd5b815180151581146103b7575f5ffd5b5f60208284031215610465575f5ffd5b505191905056fea2646970667358221220698ec7edd9b4befda8556f8a8e1bd94a8cdcb2387df968c3b8f500bbd858850b64736f6c634300081c0033","linkReferences":{}},"methodIdentifiers":{"balanceOf(address)":"70a08231","borrowBalanceCurrent(address)":"17bfdfbc","liquidateBorrow(address,uint256,address)":"f5e3c462","mint(uint256)":"a0712d68","transfer(address,uint256)":"a9059cbb","underlying()":"6f307dc3"},"id":541}