{"abi":[{"type":"function","name":"collectUBIInterest","inputs":[{"name":"_recipient","type":"address","internalType":"address"}],"outputs":[{"name":"","type":"uint256","internalType":"uint256"},{"name":"","type":"uint256","internalType":"uint256"},{"name":"","type":"uint256","internalType":"uint256"}],"stateMutability":"nonpayable"},{"type":"function","name":"deposit","inputs":[],"outputs":[],"stateMutability":"nonpayable"},{"type":"function","name":"transferTokens","inputs":[],"outputs":[],"stateMutability":"nonpayable"}],"bytecode":{"object":"0x6080604052348015600e575f5ffd5b506106788061001c5f395ff3fe608060405234801561000f575f5ffd5b506004361061003f575f3560e01c80631792b0bc14610043578063374559901461004d578063d0e30db01461007f575b5f5ffd5b61004b610087565b005b61006061005b366004610551565b610171565b6040805193845260208401929092529082015260600160405180910390f35b61004b61030c565b6040516370a0823160e01b8152306004820152735d3a536e4d6dbd6114cc1ead35777bab948e36439063a9059cbb90339083906370a0823190602401602060405180830381865afa1580156100de573d5f5f3e3d5ffd5b505050506040513d601f19601f82011682018060405250810190610102919061057e565b6040516001600160e01b031960e085901b1681526001600160a01b03909216600483015260248201526044016020604051808303815f875af115801561014a573d5f5f3e3d5ffd5b505050506040513d601f19601f8201168201806040525081019061016e9190610595565b50565b60405163095ea7b360e01b815273a150a825d425b36329d8294eef8bd0fe68f8f6e060048201525f1960248201525f9081908190735d3a536e4d6dbd6114cc1ead35777bab948e36439063095ea7b3906044016020604051808303815f875af11580156101e0573d5f5f3e3d5ffd5b505050506040513d601f19601f820116820180604052508101906102049190610595565b506040516370a0823160e01b815230600482015273a150a825d425b36329d8294eef8bd0fe68f8f6e0906359a87bc190735d3a536e4d6dbd6114cc1ead35777bab948e3643906370a0823190602401602060405180830381865afa15801561026e573d5f5f3e3d5ffd5b505050506040513d601f19601f82011682018060405250810190610292919061057e565b6040516001600160e01b031960e084901b1681526004810191909152600160248201523060448201526064016020604051808303815f875af11580156102da573d5f5f3e3d5ffd5b505050506040513d601f19601f820116820180604052508101906102fe919061057e565b505f94859450849350915050565b6040805160018082528183019092525f916020808301908036833701905050905030815f81518110610340576103406105b4565b6001600160a01b039092166020928302919091019091015260405163b6eee2c960e01b8152730c6c80d2061afa35e160f3799411d83bdeea0a5a9063b6eee2c9906103929084906001906004016105c8565b5f604051808303815f87803b1580156103a9575f5ffd5b505af11580156103bb573d5f5f3e3d5ffd5b505060405163095ea7b360e01b815273a150a825d425b36329d8294eef8bd0fe68f8f6e060048201525f1960248201527367c5870b4a41d4ebef24d2456547a03f1f3e094b925063095ea7b391506044016020604051808303815f875af1158015610428573d5f5f3e3d5ffd5b505050506040513d601f19601f8201168201806040525081019061044c9190610595565b506040516370a0823160e01b815230600482015273a150a825d425b36329d8294eef8bd0fe68f8f6e090634f8f0218907367c5870b4a41d4ebef24d2456547a03f1f3e094b906370a0823190602401602060405180830381865afa1580156104b6573d5f5f3e3d5ffd5b505050506040513d601f19601f820116820180604052508101906104da919061057e565b6040516001600160e01b031960e084901b1681526004810191909152600160248201523060448201819052606482015260840160408051808303815f875af1158015610528573d5f5f3e3d5ffd5b505050506040513d601f19601f8201168201806040525081019061054c9190610620565b505050565b5f60208284031215610561575f5ffd5b81356001600160a01b0381168114610577575f5ffd5b9392505050565b5f6020828403121561058e575f5ffd5b5051919050565b5f602082840312156105a5575f5ffd5b81518015158114610577575f5ffd5b634e487b7160e01b5f52603260045260245ffd5b604080825283519082018190525f9060208501906060840190835b8181101561060a5783516001600160a01b03168352602093840193909201916001016105e3565b5050809250505082151560208301529392505050565b5f5f60408385031215610631575f5ffd5b50508051602090910151909290915056fea2646970667358221220f975bd067d558a85381bade2fdd6e0c6fdaa3c77a0f24eb112edc266b69a4f6b64736f6c634300081c0033","linkReferences":{}},"methodIdentifiers":{"collectUBIInterest(address)":"37455990","deposit()":"d0e30db0","transferTokens()":"1792b0bc"},"id":389}