{"abi":[{"type":"constructor","inputs":[],"stateMutability":"nonpayable"},{"type":"function","name":"OKC","inputs":[],"outputs":[{"name":"","type":"address","internalType":"contract IERC20"}],"stateMutability":"view"},{"type":"function","name":"PancakePair_USDT_OKC","inputs":[],"outputs":[{"name":"","type":"address","internalType":"contract IPancakePair"}],"stateMutability":"view"},{"type":"function","name":"USDT","inputs":[],"outputs":[{"name":"","type":"address","internalType":"contract IERC20"}],"stateMutability":"view"},{"type":"function","name":"transfer_all","inputs":[{"name":"token","type":"address","internalType":"address"},{"name":"to","type":"address","internalType":"address"}],"outputs":[{"name":"","type":"uint256","internalType":"uint256"}],"stateMutability":"nonpayable"}],"bytecode":{"object":"0x60806040525f80546001600160a01b03199081167355d398326f99059ff775485246999027b31979551790915560018054821673abba891c633fb27f8aa656ea6244dedb15153fe017905560028054909116739cc7283d8f8b92654e6097aca2acb9655fd5ed96179055348015610074575f5ffd5b505f80546040516370a0823160e01b81523060048201526001600160a01b03909116906370a0823190602401602060405180830381865afa1580156100bb573d5f5f3e3d5ffd5b505050506040513d601f19601f820116820180604052508101906100df9190610241565b5f5460025460405163a9059cbb60e01b81526001600160a01b03918216600482015260248101849052929350169063a9059cbb906044016020604051808303815f875af1158015610132573d5f5f3e3d5ffd5b505050506040513d601f19601f820116820180604052508101906101569190610258565b506001546040516370a0823160e01b81523060048201525f916001600160a01b0316906370a0823190602401602060405180830381865afa15801561019d573d5f5f3e3d5ffd5b505050506040513d601f19601f820116820180604052508101906101c19190610241565b60015460025460405163a9059cbb60e01b81526001600160a01b03918216600482015260248101849052929350169063a9059cbb906044016020604051808303815f875af1158015610215573d5f5f3e3d5ffd5b505050506040513d601f19601f820116820180604052508101906102399190610258565b50505061027e565b5f60208284031215610251575f5ffd5b5051919050565b5f60208284031215610268575f5ffd5b81518015158114610277575f5ffd5b9392505050565b61039f8061028b5f395ff3fe608060405234801561000f575f5ffd5b506004361061004a575f3560e01c806337a8bb501461004e57806393ca36691461007e578063c54e44eb14610091578063dc701194146100a3575b5f5ffd5b600154610061906001600160a01b031681565b6040516001600160a01b0390911681526020015b60405180910390f35b600254610061906001600160a01b031681565b5f54610061906001600160a01b031681565b6100b66100b13660046102bf565b6100c4565b604051908152602001610075565b60408051808201909152601681527503a3930b739b332b92fb0b6361039b4bd329034b99d160551b60208201525f9030803b91610101908361022f565b6040516370a0823160e01b81523060048201525f906001600160a01b038716906370a0823190602401602060405180830381865afa158015610145573d5f5f3e3d5ffd5b505050506040513d601f19601f8201168201806040525081019061016991906102f0565b60405163a9059cbb60e01b81526001600160a01b038781166004830152602482018390529192509087169063a9059cbb906044016020604051808303815f875af11580156101b9573d5f5f3e3d5ffd5b505050506040513d601f19601f820116820180604052508101906101dd9190610307565b156101ec579250610229915050565b60405162461bcd60e51b815260206004820152600e60248201526d3a3930b739b332b91032b93937b960911b604482015260640160405180910390fd5b92915050565b610274828260405160240161024592919061032d565b60408051601f198184030181529190526020810180516001600160e01b0316632d839cb360e21b179052610278565b5050565b61028181610284565b50565b80516a636f6e736f6c652e6c6f67602083015f808483855afa5050505050565b80356001600160a01b03811681146102ba575f5ffd5b919050565b5f5f604083850312156102d0575f5ffd5b6102d9836102a4565b91506102e7602084016102a4565b90509250929050565b5f60208284031215610300575f5ffd5b5051919050565b5f60208284031215610317575f5ffd5b81518015158114610326575f5ffd5b9392505050565b604081525f83518060408401528060208601606085015e5f606082850101526060601f19601f830116840101915050826020830152939250505056fea2646970667358221220ea6b26a0548e2c3af8e5a6d543942dc48156b4c086d7bc5a9aa4df86e023252064736f6c634300081c0033","linkReferences":{}},"methodIdentifiers":{"OKC()":"37a8bb50","PancakePair_USDT_OKC()":"93ca3669","USDT()":"c54e44eb","transfer_all(address,address)":"dc701194"},"id":365}