{"abi":[{"type":"function","name":"attack","inputs":[],"outputs":[],"stateMutability":"nonpayable"},{"type":"function","name":"borrow","inputs":[{"name":"amount","type":"uint256","internalType":"uint256"}],"outputs":[{"name":"","type":"uint8","internalType":"uint8"}],"stateMutability":"pure"},{"type":"function","name":"executeOperation","inputs":[{"name":"asset","type":"address","internalType":"address"},{"name":"amount","type":"uint256","internalType":"uint256"},{"name":"premium","type":"uint256","internalType":"uint256"},{"name":"initator","type":"address","internalType":"address"},{"name":"params","type":"bytes","internalType":"bytes"}],"outputs":[{"name":"","type":"bool","internalType":"bool"}],"stateMutability":"nonpayable"},{"type":"function","name":"getProfit","inputs":[],"outputs":[],"stateMutability":"nonpayable"},{"type":"function","name":"mint","inputs":[{"name":"amount","type":"uint256","internalType":"uint256"}],"outputs":[{"name":"","type":"uint8","internalType":"uint8"}],"stateMutability":"pure"},{"type":"function","name":"redeem","inputs":[],"outputs":[],"stateMutability":"nonpayable"},{"type":"function","name":"returnFunds","inputs":[],"outputs":[],"stateMutability":"nonpayable"}],"bytecode":{"object":"0x60806040525f80546001600160a01b031990811673794a61358d6845594f94dc1db02a252b5b4814ad17909155600180548216738e08617b0d66359d73aa11e11017834c2915552517905560028054821673d9b45e2c389b6ad55dd3631abc1de6f2d222984717905560038054909116730b2c639c533813f4aa9d7837caf62653d097ff851790553480156091575f5ffd5b506108f98061009f5f395ff3fe608060405234801561000f575f5ffd5b506004361061007a575f3560e01c80639e5faafc116100585780639e5faafc146100b8578063a0712d68146100c0578063be040fb0146100e5578063c5ebeaec146100c0575f5ffd5b80631b11d0ff1461007e5780631eb5ea2e146100a6578063679dffb4146100b0575b5f5ffd5b61009161008c3660046106bc565b6100ed565b60405190151581526020015b60405180910390f35b6100ae6101ae565b005b6100ae61033f565b6100ae610420565b6100d36100ce36600461075d565b505f90565b60405160ff909116815260200161009d565b6100ae610495565b5f805b600481101561011157610101610495565b6101096101ae565b6001016100f0565b506003545f546001600160a01b039182169163095ea7b39116610134888a610774565b6040516001600160e01b031960e085901b1681526001600160a01b03909216600483015260248201526044016020604051808303815f875af115801561017c573d5f5f3e3d5ffd5b505050506040513d601f19601f820116820180604052508101906101a09190610799565b506001979650505050505050565b6003546002546040516370a0823160e01b81526001600160a01b0391821660048201525f9291909116906370a0823190602401602060405180830381865afa1580156101fc573d5f5f3e3d5ffd5b505050506040513d601f19601f8201168201806040525081019061022091906107bf565b604080515f6020820181905230928201929092526060810182905291925090819060800160408051601f1981840301815290829052600254600354631b11d0ff60e01b84529193506001600160a01b0390811692631b11d0ff9261029092169087905f9030908890600401610804565b5f604051808303815f87803b1580156102a7575f5ffd5b505af11580156102b9573d5f5f3e3d5ffd5b50506003546002546040516323b872dd60e01b81526001600160a01b03918216600482015230602482015260448101889052911692506323b872dd91506064016020604051808303815f875af1158015610315573d5f5f3e3d5ffd5b505050506040513d601f19601f820116820180604052508101906103399190610799565b50505050565b6003546040516370a0823160e01b81523060048201525f916001600160a01b0316906370a0823190602401602060405180830381865afa158015610385573d5f5f3e3d5ffd5b505050506040513d601f19601f820116820180604052508101906103a991906107bf565b60035460405163a9059cbb60e01b8152336004820152602481018390529192506001600160a01b03169063a9059cbb906044016020604051808303815f875af11580156103f8573d5f5f3e3d5ffd5b505050506040513d601f19601f8201168201806040525081019061041c9190610799565b5050565b5f80546003546040805184815260208101918290526310ac2ddf60e21b9091526001600160a01b03928316936342b0b77c9361046c93309391169164cdcd9dd252919060248201610848565b5f604051808303815f87803b158015610483575f5ffd5b505af1158015610339573d5f5f3e3d5ffd5b6001546002546040516305eff7ef60e21b81526001600160a01b0391821660048201525f9291909116906317bfdfbc906024016020604051808303815f875af11580156104e4573d5f5f3e3d5ffd5b505050506040513d601f19601f8201168201806040525081019061050891906107bf565b6001546002546040516361bfb47160e11b81526001600160a01b0391821660048201529293505f9291169063c37f68e2906024016080604051808303815f875af1158015610558573d5f5f3e3d5ffd5b505050506040513d601f19601f8201168201806040525081019061057c9190610890565b505060035460025460405163a9059cbb60e01b81526001600160a01b0391821660048201526024810187905292945016915063a9059cbb906044016020604051808303815f875af11580156105d3573d5f5f3e3d5ffd5b505050506040513d601f19601f820116820180604052508101906105f79190610799565b506001805460408051602081018490526001600160a01b0390921690820152606081018390525f9060800160408051601f1981840301815290829052600254600354631b11d0ff60e01b84529193506001600160a01b0390811692631b11d0ff9261066e92169088905f9030908890600401610804565b5f604051808303815f87803b158015610685575f5ffd5b505af1158015610697573d5f5f3e3d5ffd5b5050505050505050565b80356001600160a01b03811681146106b7575f5ffd5b919050565b5f5f5f5f5f5f60a087890312156106d1575f5ffd5b6106da876106a1565b955060208701359450604087013593506106f6606088016106a1565b9250608087013567ffffffffffffffff811115610711575f5ffd5b8701601f81018913610721575f5ffd5b803567ffffffffffffffff811115610737575f5ffd5b896020828401011115610748575f5ffd5b60208201935080925050509295509295509295565b5f6020828403121561076d575f5ffd5b5035919050565b8082018082111561079357634e487b7160e01b5f52601160045260245ffd5b92915050565b5f602082840312156107a9575f5ffd5b815180151581146107b8575f5ffd5b9392505050565b5f602082840312156107cf575f5ffd5b5051919050565b5f81518084528060208401602086015e5f602082860101526020601f19601f83011685010191505092915050565b6001600160a01b03868116825260208201869052604082018590528316606082015260a0608082018190525f9061083d908301846107d6565b979650505050505050565b6001600160a01b038681168252851660208201526040810184905260a0606082018190525f9061087a908301856107d6565b905061ffff831660808301529695505050505050565b5f5f5f5f608085870312156108a3575f5ffd5b50508251602084015160408501516060909501519196909550909250905056fea26469706673582212209fe8a7667feaa3fc255e9ad9fd87b5f84ce6378dc743a41a3a9cc79d1986b6cd64736f6c634300081c0033","linkReferences":{}},"methodIdentifiers":{"attack()":"9e5faafc","borrow(uint256)":"c5ebeaec","executeOperation(address,uint256,uint256,address,bytes)":"1b11d0ff","getProfit()":"679dffb4","mint(uint256)":"a0712d68","redeem()":"be040fb0","returnFunds()":"1eb5ea2e"},"id":555}