{"abi":[{"type":"function","name":"accounts","inputs":[{"name":"owner","type":"address","internalType":"address"}],"outputs":[{"name":"","type":"tuple","internalType":"struct FakeMarket.Account","components":[{"name":"fixedDeposits","type":"uint256","internalType":"uint256"},{"name":"fixedBorrows","type":"uint256","internalType":"uint256"},{"name":"floatingBorrowShares","type":"uint256","internalType":"uint256"}]}],"stateMutability":"view"},{"type":"function","name":"allowance","inputs":[{"name":"","type":"address","internalType":"address"},{"name":"","type":"address","internalType":"address"}],"outputs":[{"name":"","type":"uint256","internalType":"uint256"}],"stateMutability":"view"},{"type":"function","name":"approve","inputs":[{"name":"spender","type":"address","internalType":"address"},{"name":"amount","type":"uint256","internalType":"uint256"}],"outputs":[{"name":"","type":"bool","internalType":"bool"}],"stateMutability":"nonpayable"},{"type":"function","name":"asset","inputs":[],"outputs":[{"name":"","type":"address","internalType":"address"}],"stateMutability":"view"},{"type":"function","name":"balanceOf","inputs":[{"name":"","type":"address","internalType":"address"}],"outputs":[{"name":"","type":"uint256","internalType":"uint256"}],"stateMutability":"view"},{"type":"function","name":"burn","inputs":[{"name":"amount","type":"uint256","internalType":"uint256"}],"outputs":[],"stateMutability":"nonpayable"},{"type":"function","name":"decimals","inputs":[],"outputs":[{"name":"","type":"uint8","internalType":"uint8"}],"stateMutability":"view"},{"type":"function","name":"deposit","inputs":[{"name":"assets","type":"uint256","internalType":"uint256"},{"name":"receiver","type":"address","internalType":"address"}],"outputs":[{"name":"shares","type":"uint256","internalType":"uint256"}],"stateMutability":"nonpayable"},{"type":"function","name":"init","inputs":[{"name":"a","type":"address","internalType":"address"},{"name":"b","type":"address","internalType":"address"},{"name":"c","type":"address","internalType":"address"},{"name":"d","type":"address","internalType":"address"},{"name":"e","type":"address","internalType":"address"},{"name":"f","type":"address","internalType":"address"},{"name":"g","type":"address","internalType":"address"},{"name":"base","type":"uint256","internalType":"uint256"}],"outputs":[],"stateMutability":"nonpayable"},{"type":"function","name":"maxWithdraw","inputs":[{"name":"owner","type":"address","internalType":"address"}],"outputs":[{"name":"","type":"uint256","internalType":"uint256"}],"stateMutability":"view"},{"type":"function","name":"mint","inputs":[{"name":"amount","type":"uint256","internalType":"uint256"}],"outputs":[],"stateMutability":"nonpayable"},{"type":"function","name":"name","inputs":[],"outputs":[{"name":"","type":"string","internalType":"string"}],"stateMutability":"view"},{"type":"function","name":"nonces","inputs":[{"name":"owner","type":"address","internalType":"address"}],"outputs":[{"name":"","type":"uint256","internalType":"uint256"}],"stateMutability":"view"},{"type":"function","name":"permit","inputs":[{"name":"owner","type":"address","internalType":"address"},{"name":"spender","type":"address","internalType":"address"},{"name":"value","type":"uint256","internalType":"uint256"},{"name":"deadline","type":"uint256","internalType":"uint256"},{"name":"v","type":"uint8","internalType":"uint8"},{"name":"r","type":"bytes32","internalType":"bytes32"},{"name":"s","type":"bytes32","internalType":"bytes32"}],"outputs":[],"stateMutability":"nonpayable"},{"type":"function","name":"previewRefund","inputs":[{"name":"shares","type":"uint256","internalType":"uint256"}],"outputs":[{"name":"","type":"uint256","internalType":"uint256"}],"stateMutability":"view"},{"type":"function","name":"repay","inputs":[{"name":"assets","type":"uint256","internalType":"uint256"},{"name":"borrower","type":"address","internalType":"address"}],"outputs":[{"name":"actualRepay","type":"uint256","internalType":"uint256"},{"name":"borrowShares","type":"uint256","internalType":"uint256"}],"stateMutability":"nonpayable"},{"type":"function","name":"setVictim","inputs":[{"name":"v","type":"address","internalType":"address"}],"outputs":[],"stateMutability":"nonpayable"},{"type":"function","name":"symbol","inputs":[],"outputs":[{"name":"","type":"string","internalType":"string"}],"stateMutability":"view"},{"type":"function","name":"totalSupply","inputs":[],"outputs":[{"name":"","type":"uint256","internalType":"uint256"}],"stateMutability":"view"},{"type":"function","name":"transfer","inputs":[{"name":"recipient","type":"address","internalType":"address"},{"name":"amount","type":"uint256","internalType":"uint256"}],"outputs":[{"name":"","type":"bool","internalType":"bool"}],"stateMutability":"nonpayable"},{"type":"function","name":"transferFrom","inputs":[{"name":"sender","type":"address","internalType":"address"},{"name":"recipient","type":"address","internalType":"address"},{"name":"amount","type":"uint256","internalType":"uint256"}],"outputs":[{"name":"","type":"bool","internalType":"bool"}],"stateMutability":"nonpayable"},{"type":"error","name":"InvalidAccountNonce","inputs":[{"name":"account","type":"address","internalType":"address"},{"name":"currentNonce","type":"uint256","internalType":"uint256"}]}],"bytecode":{"object":"0x600180546001600160a01b031990811673c36442b4a4522e871399cd717abdd847ab11fe881790915560028054821673aeb62e6f27bc103702e7bc879ae98bcea56f027e17905560038054821673675d410dcf6f343219aae8d1dde0bfab46f521061790556004805482167381c9a7b55a4df39a9b7b5f781ec0e5353969487317905560058054821673b27308f9f90d607463bb33ea1bebb41c27ce5ab6179055600680548216737f5c764cbc14f9669b88837ca1490cca17c31607179055600780549091167316a9fa2fda030272ce99b29cf780dfa30361e0f3179055620f424060095560c0604052600b60809081526a19985ad9481b585c9ad95d60aa1b60a05260109061010f90826101ec565b50604080518082019091526002815261666d60f01b602082015260119061013690826101ec565b506012805460ff19168117905534801561014e575f5ffd5b506102a6565b634e487b7160e01b5f52604160045260245ffd5b600181811c9082168061017c57607f821691505b60208210810361019a57634e487b7160e01b5f52602260045260245ffd5b50919050565b601f8211156101e757805f5260205f20601f840160051c810160208510156101c55750805b601f840160051c820191505b818110156101e4575f81556001016101d1565b50505b505050565b81516001600160401b0381111561020557610205610154565b610219816102138454610168565b846101a0565b6020601f82116001811461024b575f83156102345750848201515b5f19600385901b1c1916600184901b1784556101e4565b5f84815260208120601f198516915b8281101561027a578785015182556020948501946001909201910161025a565b508482101561029757868401515f19600387901b60f8161c191681555b50505050600190811b01905550565b61179c806102b35f395ff3fe608060405234801561000f575f5ffd5b5060043610610132575f3560e01c80636e553f65116100b4578063a847c90011610079578063a847c900146102da578063a9059cbb146102ed578063acb7081514610300578063ce96cb771461032b578063d505accf1461033e578063dd62ed3e14610351575f5ffd5b80636e553f651461027a57806370a082311461028d5780637ecebe00146102ac57806395d89b41146102bf578063a0712d68146102c7575f5ffd5b8063313ce567116100fa578063313ce567146101d357806338d52e0f146101f257806342966c681461021d57806347dffde0146102305780635e5c06e214610245575f5ffd5b806306fdde0314610136578063095ea7b3146101545780630b4396211461017757806318160ddd146101a957806323b872dd146101c0575b5f5ffd5b61013e61037b565b60405161014b919061125b565b60405180910390f35b6101676101623660046112a7565b610407565b604051901515815260200161014b565b6101a76101853660046112d1565b600880546001600160a01b0319166001600160a01b0392909216919091179055565b005b6101b2600d5481565b60405190815260200161014b565b6101676101ce3660046112ec565b610435565b6012546101e09060ff1681565b60405160ff909116815260200161014b565b600b54610205906001600160a01b031681565b6040516001600160a01b03909116815260200161014b565b6101a761022b36600461132a565b6104d0565b6101b261023e36600461132a565b50600a5490565b6102586102533660046112d1565b61050e565b604080518251815260208084015190820152918101519082015260600161014b565b6101b2610288366004611341565b610551565b6101b261029b3660046112d1565b600e6020525f908152604090205481565b6101b26102ba3660046112d1565b610f4c565b61013e610f69565b6101a76102d536600461132a565b610f76565b6101a76102e836600461136f565b610fac565b6101676102fb3660046112a7565b61119e565b61031661030e366004611341565b505f91829150565b6040805192835260208301919091520161014b565b6101b26103393660046112d1565b505f90565b6101a761034c366004611418565b6111f8565b6101b261035f366004611484565b600f60209081525f928352604080842090915290825290205481565b60108054610388906114b0565b80601f01602080910402602001604051908101604052809291908181526020018280546103b4906114b0565b80156103ff5780601f106103d6576101008083540402835291602001916103ff565b820191905f5260205f20905b8154815290600101906020018083116103e257829003601f168201915b505050505081565b335f908152600f602090815260408083206001600160a01b0386168452909152902081905560015b92915050565b6001600160a01b0383165f908152600f602090815260408083203384529091528120805483919083906104699084906114fc565b90915550506001600160a01b0384165f908152600e6020526040812080548492906104959084906114fc565b90915550506001600160a01b0383165f908152600e6020526040812080548492906104c190849061150f565b90915550600195945050505050565b335f908152600e6020526040812080548392906104ee9084906114fc565b9250508190555080600d5f82825461050691906114fc565b909155505050565b61052f60405180606001604052805f81526020015f81526020015f81525090565b60405180606001604052805f81526020015f81526020015f8152509050919050565b600254600854604051639e9d796760e01b81526001600160a01b0391821660048201525f60248201819052604482018190529283928392911690639e9d7967906064016040805180830381865afa1580156105ae573d5f5f3e3d5ffd5b505050506040513d601f19601f820116820180604052508101906105d29190611522565b90925090505f6105e282846114fc565b60025460048054604051638e8f294b60e01b81526001600160a01b03918216928101929092529293505f9290911690638e8f294b9060240160a060405180830381865afa158015610635573d5f5f3e3d5ffd5b505050506040513d601f19601f820116820180604052508101906106599190611584565b8051600254600754604051631710760b60e31b81526001600160a01b03918216600482015293945091925f929091169063b883b05890602401602060405180830381865afa1580156106ad573d5f5f3e3d5ffd5b505050506040513d601f19601f820116820180604052508101906106d1919061161e565b90505f6106fe600954836106f7866001600160801b03168961121d90919063ffffffff16565b9190611238565b905061070b6002826114fc565b60048054600854600354604051636eb1769f60e11b81526001600160a01b039283169481019490945281166024840152929350839216906307a2d13a90829063dd62ed3e90604401602060405180830381865afa15801561076e573d5f5f3e3d5ffd5b505050506040513d601f19601f82011682018060405250810190610792919061161e565b6040518263ffffffff1660e01b81526004016107b091815260200190565b602060405180830381865afa1580156107cb573d5f5f3e3d5ffd5b505050506040513d601f19601f820116820180604052508101906107ef919061161e565b10156108d75760048054600854600354604051636eb1769f60e11b81526001600160a01b03928316948101949094528116602484015216906307a2d13a90829063dd62ed3e90604401602060405180830381865afa158015610853573d5f5f3e3d5ffd5b505050506040513d601f19601f82011682018060405250810190610877919061161e565b6040518263ffffffff1660e01b815260040161089591815260200190565b602060405180830381865afa1580156108b0573d5f5f3e3d5ffd5b505050506040513d601f19601f820116820180604052508101906108d4919061161e565b90505b600480546008546040516370a0823160e01b81526001600160a01b039182169381019390935283929116906307a2d13a9082906370a0823190602401602060405180830381865afa15801561092e573d5f5f3e3d5ffd5b505050506040513d601f19601f82011682018060405250810190610952919061161e565b6040518263ffffffff1660e01b815260040161097091815260200190565b602060405180830381865afa15801561098b573d5f5f3e3d5ffd5b505050506040513d601f19601f820116820180604052508101906109af919061161e565b1015610a8857600480546040516370a0823160e01b815230928101929092526001600160a01b0316906307a2d13a9082906370a0823190602401602060405180830381865afa158015610a04573d5f5f3e3d5ffd5b505050506040513d601f19601f82011682018060405250810190610a28919061161e565b6040518263ffffffff1660e01b8152600401610a4691815260200190565b602060405180830381865afa158015610a61573d5f5f3e3d5ffd5b505050506040513d601f19601f82011682018060405250810190610a85919061161e565b90505b60035460405163095ea7b360e01b81526001600160a01b0390911660048201525f1960248201528190309063095ea7b3906044016020604051808303815f875af1158015610ad8573d5f5f3e3d5ffd5b505050506040513d601f19601f82011682018060405250810190610afc9190611635565b5060015460405163095ea7b360e01b81526001600160a01b0390911660048201525f196024820152309063095ea7b3906044016020604051808303815f875af1158015610b4b573d5f5f3e3d5ffd5b505050506040513d601f19601f82011682018060405250810190610b6f9190611635565b5060065430906001600160a01b031669d3c21bcecceda10000005f80600a73fffd8963efd1fc6a506488495d951d5263988d2585871115610bda5750506006546001600160a01b031694503093505f925069d3c21bcecceda100000091506009199050826401000276a45b60015460408051610160810182526001600160a01b038a8116825289811660208301526101f482840152600287810b606084015286900b608083015260a0820189905260c082018890525f60e08301819052610100830181905230610120840152426101408401529251634418b22b60e11b815292938493911691638831645691610c68919060040161164e565b6080604051808303815f875af1158015610c84573d5f5f3e3d5ffd5b505050506040513d601f19601f82011682018060405250810190610ca89190611712565b505060055460065460405163f7729d4360e01b81526001600160a01b0391821660048201523060248201526101f46044820152606481018f90528782166084820152939550919350169063f7729d439060a4016020604051808303815f875af1158015610d17573d5f5f3e3d5ffd5b505050506040513d601f19601f82011682018060405250810190610d3b919061161e565b600a556003546004805460405163d232fa9360e01b81526001600160a01b03918216928101929092523060248301526101f460448301525f60648301819052608483015285811660a48301529091169063d232fa939060c4015f604051808303815f87803b158015610dab575f5ffd5b505af1158015610dbd573d5f5f3e3d5ffd5b50506001546040805160a0810182528681526001600160801b03868116602083019081525f8385018181526060850191825242608086019081529551630624e65f60e11b81529451600486015291519092166024840152516044830152516064820152905160848201526001600160a01b039091169250630c49ccbe915060a40160408051808303815f875af1158015610e59573d5f5f3e3d5ffd5b505050506040513d601f19601f82011682018060405250810190610e7d9190611522565b505060015460408051608081018252848152600c546001600160a01b03908116602083019081526001600160801b0383850181815260608501828152955163fc6f786560e01b8152945160048601529151831660248501529051811660448401529251909216606482015291169063fc6f78659060840160408051808303815f875af1158015610f0f573d5f5f3e3d5ffd5b505050506040513d601f19601f82011682018060405250810190610f339190611522565b5050505050505050505050505050505050505092915050565b6001600160a01b0381165f9081526020819052604081205461042f565b60118054610388906114b0565b335f908152600e602052604081208054839290610f9490849061150f565b9250508190555080600d5f828254610506919061150f565b600180546001600160a01b03199081166001600160a01b038b8116919091179092556002805482168a841617905560038054821689841617905560048054821688841617905560058054821687841617905560068054821686841617905560078054821692851692909217909155600b80543092168217905560098290555f908152600e6020526040812080546c0c9f2c9cd04674edea40000000929061105490849061150f565b9091555050600c80546001600160a01b031916331790556006546001600160a01b031630101561110b576001546006546040516309f56ab160e11b81523060048201526001600160a01b0391821660248201526101f46044820152600160601b60648201529116906313ead562906084016020604051808303815f875af11580156110e1573d5f5f3e3d5ffd5b505050506040513d601f19601f82011682018060405250810190611105919061174b565b50611194565b6001546006546040516309f56ab160e11b81526001600160a01b0391821660048201523060248201526101f46044820152600160601b60648201529116906313ead562906084016020604051808303815f875af115801561116e573d5f5f3e3d5ffd5b505050506040513d601f19601f82011682018060405250810190611192919061174b565b505b5050505050505050565b335f908152600e60205260408120805483919083906111be9084906114fc565b90915550506001600160a01b0383165f908152600e6020526040812080548492906111ea90849061150f565b909155506001949350505050565b6001600160a01b0387165f908152602081905260409020805460018101909155611194565b5f61123183670de0b6b3a764000084611238565b9392505050565b5f825f19048411830215820261124c575f5ffd5b50910281810615159190040190565b602081525f82518060208401528060208501604085015e5f604082850101526040601f19601f83011684010191505092915050565b6001600160a01b03811681146112a4575f5ffd5b50565b5f5f604083850312156112b8575f5ffd5b82356112c381611290565b946020939093013593505050565b5f602082840312156112e1575f5ffd5b813561123181611290565b5f5f5f606084860312156112fe575f5ffd5b833561130981611290565b9250602084013561131981611290565b929592945050506040919091013590565b5f6020828403121561133a575f5ffd5b5035919050565b5f5f60408385031215611352575f5ffd5b82359150602083013561136481611290565b809150509250929050565b5f5f5f5f5f5f5f5f610100898b031215611387575f5ffd5b883561139281611290565b975060208901356113a281611290565b965060408901356113b281611290565b955060608901356113c281611290565b945060808901356113d281611290565b935060a08901356113e281611290565b925060c08901356113f281611290565b979a969950949793969295919450919260e001359150565b60ff811681146112a4575f5ffd5b5f5f5f5f5f5f5f60e0888a03121561142e575f5ffd5b873561143981611290565b9650602088013561144981611290565b9550604088013594506060880135935060808801356114678161140a565b9699959850939692959460a0840135945060c09093013592915050565b5f5f60408385031215611495575f5ffd5b82356114a081611290565b9150602083013561136481611290565b600181811c908216806114c457607f821691505b6020821081036114e257634e487b7160e01b5f52602260045260245ffd5b50919050565b634e487b7160e01b5f52601160045260245ffd5b8181038181111561042f5761042f6114e8565b8082018082111561042f5761042f6114e8565b5f5f60408385031215611533575f5ffd5b505080516020909101519092909150565b80516001600160801b038116811461155a575f5ffd5b919050565b805161155a8161140a565b8051801515811461155a575f5ffd5b805161155a81611290565b5f60a0828403128015611595575f5ffd5b5060405160a0810167ffffffffffffffff811182821017156115c557634e487b7160e01b5f52604160045260245ffd5b6040526115d183611544565b81526115df6020840161155f565b60208201526115f06040840161155f565b60408201526116016060840161156a565b606082015261161260808401611579565b60808201529392505050565b5f6020828403121561162e575f5ffd5b5051919050565b5f60208284031215611645575f5ffd5b6112318261156a565b81516001600160a01b031681526101608101602083015161167a60208401826001600160a01b03169052565b506040830151611691604084018262ffffff169052565b5060608301516116a6606084018260020b9052565b5060808301516116bb608084018260020b9052565b5060a083015160a083015260c083015160c083015260e083015160e08301526101008301516101008301526101208301516117026101208401826001600160a01b03169052565b5061014092830151919092015290565b5f5f5f5f60808587031215611725575f5ffd5b8451935061173560208601611544565b6040860151606090960151949790965092505050565b5f6020828403121561175b575f5ffd5b81516112318161129056fea264697066735822122084887923d6944d728596fba577338ee94a93049da2e67af7a8fcd8e725b3873464736f6c634300081c0033","linkReferences":{}},"methodIdentifiers":{"accounts(address)":"5e5c06e2","allowance(address,address)":"dd62ed3e","approve(address,uint256)":"095ea7b3","asset()":"38d52e0f","balanceOf(address)":"70a08231","burn(uint256)":"42966c68","decimals()":"313ce567","deposit(uint256,address)":"6e553f65","init(address,address,address,address,address,address,address,uint256)":"a847c900","maxWithdraw(address)":"ce96cb77","mint(uint256)":"a0712d68","name()":"06fdde03","nonces(address)":"7ecebe00","permit(address,address,uint256,uint256,uint8,bytes32,bytes32)":"d505accf","previewRefund(uint256)":"47dffde0","repay(uint256,address)":"acb70815","setVictim(address)":"0b439621","symbol()":"95d89b41","totalSupply()":"18160ddd","transfer(address,uint256)":"a9059cbb","transferFrom(address,address,uint256)":"23b872dd"},"id":293}