{"abi":[{"type":"constructor","inputs":[],"stateMutability":"nonpayable"},{"type":"function","name":"remove","inputs":[{"name":"_amountOfShares","type":"uint256","internalType":"uint256"}],"outputs":[],"stateMutability":"payable"}],"bytecode":{"object":"0x60806040525f80546001600160a01b0319908116737f39c581f595b53c5cb19bd0b3f8da6c935e2ca01790915560018054821673c5c9fb6223a989208df27dcee33fc59ff5c26fff1790556002805490911673638a98bbb92a7582d07c52ff407d49664dc8b3ee179055348015610074575f5ffd5b505f8054600254604080516001600160a01b0392831660208201525f19818301528151808203830181526060820190925291909216916100c09163095ea7b360e01b9190608001610151565b60408051601f19818403018152908290526100da91610174565b5f604051808303815f865af19150503d805f8114610113576040519150601f19603f3d011682016040523d82523d5f602084013e610118565b606091505b509150505f818060200190518101906101319190610186565b905050506101a5565b5f81518060208401855e5f93019283525090919050565b6001600160e01b0319831681525f61016c600483018461013a565b949350505050565b5f61017f828461013a565b9392505050565b5f60208284031215610196575f5ffd5b8151801515811461017f575f5ffd5b6103bf806101b25f395ff3fe60806040526004361061001d575f3560e01c80634cc8221514610021575b5f5ffd5b61003461002f36600461030f565b610036565b005b6002545f546040516370a0823160e01b81523060048201526001600160a01b039283169263617ba03760e01b92169081906370a0823190602401602060405180830381865afa15801561008b573d5f5f3e3d5ffd5b505050506040513d601f19601f820116820180604052508101906100af9190610326565b604080516001600160a01b0390931660208401528201523060608201525f608082015260a00160408051601f19818403018152908290526100f39291602001610354565b60408051601f198184030181529082905261010d91610377565b5f604051808303815f865af19150503d805f8114610146576040519150601f19603f3d011682016040523d82523d5f602084013e61014b565b606091505b5050600254600154604080516001600160a01b0392831660208201529081018590525f606082015230608082015291169150631d5d723760e01b9060a00160408051601f19818403018152908290526101a79291602001610354565b60408051601f19818403018152908290526101c191610377565b5f604051808303815f865af19150503d805f81146101fa576040519150601f19603f3d011682016040523d82523d5f602084013e6101ff565b606091505b50506001546040516370a0823160e01b81523060048201526001600160a01b03909116915063a9059cbb60e01b90339083906370a0823190602401602060405180830381865afa158015610255573d5f5f3e3d5ffd5b505050506040513d601f19601f820116820180604052508101906102799190610326565b604080516001600160a01b03909316602084015282015260600160408051601f19818403018152908290526102b19291602001610354565b60408051601f19818403018152908290526102cb91610377565b5f604051808303815f865af19150503d805f8114610304576040519150601f19603f3d011682016040523d82523d5f602084013e610309565b606091505b50505050565b5f6020828403121561031f575f5ffd5b5035919050565b5f60208284031215610336575f5ffd5b5051919050565b5f81518060208401855e5f93019283525090919050565b6001600160e01b0319831681525f61036f600483018461033d565b949350505050565b5f610382828461033d565b939250505056fea2646970667358221220bb2ca5547d6e31c4ab8ab32049d49108607481a13689c23cbc9c3c99ce63d4f264736f6c634300081c0033","linkReferences":{}},"methodIdentifiers":{"remove(uint256)":"4cc82215"},"id":197}