{"abi":[{"type":"function","name":"borrow","inputs":[],"outputs":[],"stateMutability":"nonpayable"},{"type":"function","name":"uniswapV3SwapCallback","inputs":[{"name":"amount0Delta","type":"int256","internalType":"int256"},{"name":"amount1Delta","type":"int256","internalType":"int256"},{"name":"data","type":"bytes","internalType":"bytes"}],"outputs":[],"stateMutability":"nonpayable"}],"bytecode":{"object":"0x60806040525f80546001600160a01b031990811673c02aaa39b223fe8d0a0e5c4f27ead9083c756cc2179091556001805482167367fadbd9bf8899d7c578db22d7af5e2e500e13e5179055600280548216739d39a5de30e57443bff2a8307a4256c8797a3497179055600380548216732409af0251dcb89ee3dee572629291f9b087c66817905560048054821673f1293141fc6ab23b2a0143acc196e3429e0b67a6179055600580548216736b175474e89094c44da98b954eedeac495271d0f179055600680548216732260fac5e5542a773aa44fbcfedf7c193bc2c599179055600780548216736ace5c946a3abd8241f31f182c479e67a4d8fc8d17905560088054821673b95bd0793bcc5524af358ffaae3e38c3903c762617905560098054821673dac17f958d2ee523a2206206994597c13d831ec7179055600a805482167324959f75d7bda1884f1ec9861f644821ce233c7d179055600b805482167311b815efb8f581194ae79006d24e0d814b7697f6179055600c805490911673ac4a2ac76d639e10f2c05a41274c1af85b7725981790553480156101a0575f5ffd5b506108bb806101ae5f395ff3fe608060405234801561000f575f5ffd5b5060043610610034575f3560e01c8063e68d356914610038578063fa461e3314610042575b5f5ffd5b610040610055565b005b6100406100503660046106fd565b61065e565b6003546005546008546040516370a0823160e01b81526001600160a01b0391821660048201529281169263a415bcad92919091169081906370a0823190602401602060405180830381865afa1580156100b0573d5f5f3e3d5ffd5b505050506040513d601f19601f820116820180604052508101906100d49190610779565b60025f306040518663ffffffff1660e01b81526004016100f8959493929190610790565b5f604051808303815f87803b15801561010f575f5ffd5b505af1158015610121573d5f5f3e3d5ffd5b5050600354600954600a546040516370a0823160e01b81526001600160a01b039182166004820152928116945063a415bcad9350169081906370a0823190602401602060405180830381865afa15801561017d573d5f5f3e3d5ffd5b505050506040513d601f19601f820116820180604052508101906101a19190610779565b60025f306040518663ffffffff1660e01b81526004016101c5959493929190610790565b5f604051808303815f87803b1580156101dc575f5ffd5b505af11580156101ee573d5f5f3e3d5ffd5b50506003545f546001546040516370a0823160e01b81526001600160a01b039182166004820152928116945063a415bcad9350169081906370a0823190602401602060405180830381865afa158015610249573d5f5f3e3d5ffd5b505050506040513d601f19601f8201168201806040525081019061026d9190610779565b60025f306040518663ffffffff1660e01b8152600401610291959493929190610790565b5f604051808303815f87803b1580156102a8575f5ffd5b505af11580156102ba573d5f5f3e3d5ffd5b50506003546006546007546040516370a0823160e01b81526001600160a01b039182166004820152928116945063a415bcad9350169081906370a0823190602401602060405180830381865afa158015610316573d5f5f3e3d5ffd5b505050506040513d601f19601f8201168201806040525081019061033a9190610779565b60025f306040518663ffffffff1660e01b815260040161035e959493929190610790565b5f604051808303815f87803b158015610375575f5ffd5b505af1158015610387573d5f5f3e3d5ffd5b5050600354600254600480546040516370a0823160e01b81526001600160a01b039182169281019290925292831694506369328dec935091169081906370a0823190602401602060405180830381865afa1580156103e7573d5f5f3e3d5ffd5b505050506040513d601f19601f8201168201806040525081019061040b9190610779565b6040516001600160e01b031960e085901b1681526001600160a01b03909216600483015260248201523360448201526064016020604051808303815f875af1158015610459573d5f5f3e3d5ffd5b505050506040513d601f19601f8201168201806040525081019061047d9190610779565b50600b546009546040516370a0823160e01b815230600482018190526001600160a01b039384169363128acb089391925f9291909116906370a0823190602401602060405180830381865afa1580156104d8573d5f5f3e3d5ffd5b505050506040513d601f19601f820116820180604052508101906104fc9190610779565b604080515f815260208101918290526001600160e01b031960e087901b1690915261053a939291906a0469ae9a8d527e2bc6cdf890602481016107c4565b60408051808303815f875af1158015610555573d5f5f3e3d5ffd5b505050506040513d601f19601f820116820180604052508101906105799190610827565b50506005546040516370a0823160e01b81523060048201526001600160a01b039091169063a9059cbb90339083906370a0823190602401602060405180830381865afa1580156105cb573d5f5f3e3d5ffd5b505050506040513d601f19601f820116820180604052508101906105ef9190610779565b6040516001600160e01b031960e085901b1681526001600160a01b03909216600483015260248201526044016020604051808303815f875af1158015610637573d5f5f3e3d5ffd5b505050506040513d601f19601f8201168201806040525081019061065b9190610849565b50565b60095460408051336024820152604480820187905282518083039091018152606490910182526020810180516001600160e01b031663a9059cbb60e01b17905290516001600160a01b03909216916106b6919061086f565b5f604051808303815f865af19150503d805f81146106ef576040519150601f19603f3d011682016040523d82523d5f602084013e6106f4565b606091505b50505050505050565b5f5f5f5f60608587031215610710575f5ffd5b8435935060208501359250604085013567ffffffffffffffff811115610734575f5ffd5b8501601f81018713610744575f5ffd5b803567ffffffffffffffff81111561075a575f5ffd5b87602082840101111561076b575f5ffd5b949793965060200194505050565b5f60208284031215610789575f5ffd5b5051919050565b6001600160a01b0395861681526020810194909452604084019290925261ffff166060830152909116608082015260a00190565b60018060a01b0386168152841515602082015283604082015260018060a01b038316606082015260a060808201525f82518060a0840152806020850160c085015e5f60c0828501015260c0601f19601f8301168401019150509695505050505050565b5f5f60408385031215610838575f5ffd5b505080516020909101519092909150565b5f60208284031215610859575f5ffd5b81518015158114610868575f5ffd5b9392505050565b5f82518060208501845e5f92019182525091905056fea2646970667358221220dba5dc67482e93ebf20426265da6681d3e378955da86ceb3068047fdc96dc14864736f6c634300081c0033","linkReferences":{}},"methodIdentifiers":{"borrow()":"e68d3569","uniswapV3SwapCallback(int256,int256,bytes)":"fa461e33"},"id":511}