{"abi":[{"type":"function","name":"openPosition","inputs":[],"outputs":[],"stateMutability":"nonpayable"},{"type":"function","name":"withdrawCollateralToLiquidationThreshold","inputs":[],"outputs":[],"stateMutability":"nonpayable"}],"bytecode":{"object":"0x60806040525f80546001600160a01b031990811673c02aaa39b223fe8d0a0e5c4f27ead9083c756cc217909155600180548216739d39a5de30e57443bff2a8307a4256c8797a3497179055600280548216732409af0251dcb89ee3dee572629291f9b087c66817905560038054821673f1293141fc6ab23b2a0143acc196e3429e0b67a61790556004805490911673ac4a2ac76d639e10f2c05a41274c1af85b77259817905534801560af575f5ffd5b50610e6e806100bd5f395ff3fe608060405234801561000f575f5ffd5b5060043610610034575f3560e01c8063350245c214610038578063e6bcf83414610042575b5f5ffd5b61004061004a565b005b6100406108a3565b5f5460025460405163095ea7b360e01b81526001600160a01b0391821660048201525f19602482015291169063095ea7b3906044016020604051808303815f875af115801561009b573d5f5f3e3d5ffd5b505050506040513d601f19601f820116820180604052508101906100bf9190610c2f565b506002545f546040516370a0823160e01b81523060048201526001600160a01b039283169263e8eda9df92169081906370a0823190602401602060405180830381865afa158015610112573d5f5f3e3d5ffd5b505050506040513d601f19601f820116820180604052508101906101369190610c55565b6040516001600160e01b031960e085901b1681526001600160a01b03909216600483015260248201523060448201525f60648201526084015f604051808303815f87803b158015610185575f5ffd5b505af1158015610197573d5f5f3e3d5ffd5b50506004805460015460405163b3596f0760e01b81526001600160a01b03918216938101939093525f945016915063b3596f0790602401602060405180830381865afa1580156101e9573d5f5f3e3d5ffd5b505050506040513d601f19601f8201168201806040525081019061020d9190610c55565b600254604051632fe4a15f60e21b81523060048201529192505f916001600160a01b039091169063bf92857c9060240160c060405180830381865afa158015610258573d5f5f3e3d5ffd5b505050506040513d601f19601f8201168201806040525081019061027c9190610c6c565b505050925050505b60015f9054906101000a90046001600160a01b03166001600160a01b031663313ce5676040518163ffffffff1660e01b8152600401602060405180830381865afa1580156102d4573d5f5f3e3d5ffd5b505050506040513d601f19601f820116820180604052508101906102f89190610cb2565b61030390600a610dcb565b6001546003546040516370a0823160e01b81526001600160a01b039182166004820152859291909116906370a0823190602401602060405180830381865afa158015610351573d5f5f3e3d5ffd5b505050506040513d601f19601f820116820180604052508101906103759190610c55565b61037f9190610dd9565b6103899190610df0565b81106106ab576002546001546003546040516370a0823160e01b81526001600160a01b0391821660048201529281169263a415bcad92919091169081906370a0823190602401602060405180830381865afa1580156103ea573d5f5f3e3d5ffd5b505050506040513d601f19601f8201168201806040525081019061040e9190610c55565b6040516001600160e01b031960e085901b1681526001600160a01b0390921660048301526024820152600260448201525f606482015230608482015260a4015f604051808303815f87803b158015610464575f5ffd5b505af1158015610476573d5f5f3e3d5ffd5b50506001546040516370a0823160e01b81523060048201526001600160a01b03909116925063a9059cbb9150339083906370a0823190602401602060405180830381865afa1580156104ca573d5f5f3e3d5ffd5b505050506040513d601f19601f820116820180604052508101906104ee9190610c55565b6040516001600160e01b031960e085901b1681526001600160a01b03909216600483015260248201526044016020604051808303815f875af1158015610536573d5f5f3e3d5ffd5b505050506040513d601f19601f8201168201806040525081019061055a9190610c2f565b5060408051600481526024810182526020810180516001600160e01b031663220336e160e11b17905290515f9133916105939190610e0f565b5f604051808303815f865af19150503d805f81146105cc576040519150601f19603f3d011682016040523d82523d5f602084013e6105d1565b606091505b50509050806106325760405162461bcd60e51b8152602060048201526024808201527f6465706f73697473555344454261636b546f5557554c656e64506f6f6c2066616044820152631a5b195960e21b606482015260840160405180910390fd5b600254604051632fe4a15f60e21b81523060048201526001600160a01b039091169063bf92857c9060240160c060405180830381865afa158015610678573d5f5f3e3d5ffd5b505050506040513d601f19601f8201168201806040525081019061069c9190610c6c565b50919550610284945050505050565b5f8260015f9054906101000a90046001600160a01b03166001600160a01b031663313ce5676040518163ffffffff1660e01b8152600401602060405180830381865afa1580156106fd573d5f5f3e3d5ffd5b505050506040513d601f19601f820116820180604052508101906107219190610cb2565b61072c90600a610dcb565b6107369084610dd9565b6107409190610df0565b6002805460015460405163a415bcad60e01b81526001600160a01b0391821660048201526024810185905260448101939093525f6064840152306084840152929350919091169063a415bcad9060a4015f604051808303815f87803b1580156107a7575f5ffd5b505af11580156107b9573d5f5f3e3d5ffd5b50506001546040516370a0823160e01b81523060048201526001600160a01b03909116925063a9059cbb9150339083906370a0823190602401602060405180830381865afa15801561080d573d5f5f3e3d5ffd5b505050506040513d601f19601f820116820180604052508101906108319190610c55565b6040516001600160e01b031960e085901b1681526001600160a01b03909216600483015260248201526044016020604051808303815f875af1158015610879573d5f5f3e3d5ffd5b505050506040513d601f19601f8201168201806040525081019061089d9190610c2f565b50505050565b6004805460015460405163b3596f0760e01b81526001600160a01b03918216938101939093525f9291169063b3596f0790602401602060405180830381865afa1580156108f2573d5f5f3e3d5ffd5b505050506040513d601f19601f820116820180604052508101906109169190610c55565b600480545f805460405163b3596f0760e01b81526001600160a01b039182169481019490945293945092169063b3596f0790602401602060405180830381865afa158015610966573d5f5f3e3d5ffd5b505050506040513d601f19601f8201168201806040525081019061098a9190610c55565b600254604051632fe4a15f60e21b81523060048201529192505f91829182918291829182916001600160a01b03169063bf92857c9060240160c060405180830381865afa1580156109dd573d5f5f3e3d5ffd5b505050506040513d601f19601f82011682018060405250810190610a019190610c6c565b9550955095509550955095505f8386612710610a1d9190610dd9565b610a279190610df0565b610a319088610e25565b9050875f5f9054906101000a90046001600160a01b03166001600160a01b031663313ce5676040518163ffffffff1660e01b8152600401602060405180830381865afa158015610a83573d5f5f3e3d5ffd5b505050506040513d601f19601f82011682018060405250810190610aa79190610cb2565b610ab290600a610dcb565b610abc9083610dd9565b610ac69190610df0565b6002545f54604051631a4ca37b60e21b81526001600160a01b0391821660048201526024810184905230604482015292935016906369328dec906064016020604051808303815f875af1158015610b1f573d5f5f3e3d5ffd5b505050506040513d601f19601f82011682018060405250810190610b439190610c55565b505f546040516370a0823160e01b81523060048201526001600160a01b039091169063a9059cbb90339083906370a0823190602401602060405180830381865afa158015610b93573d5f5f3e3d5ffd5b505050506040513d601f19601f82011682018060405250810190610bb79190610c55565b6040516001600160e01b031960e085901b1681526001600160a01b03909216600483015260248201526044016020604051808303815f875af1158015610bff573d5f5f3e3d5ffd5b505050506040513d601f19601f82011682018060405250810190610c239190610c2f565b50505050505050505050565b5f60208284031215610c3f575f5ffd5b81518015158114610c4e575f5ffd5b9392505050565b5f60208284031215610c65575f5ffd5b5051919050565b5f5f5f5f5f5f60c08789031215610c81575f5ffd5b50508451602086015160408701516060880151608089015160a090990151939a929950909790965094509092509050565b5f60208284031215610cc2575f5ffd5b815160ff81168114610c4e575f5ffd5b634e487b7160e01b5f52601160045260245ffd5b6001815b6001841115610d2157808504811115610d0557610d05610cd2565b6001841615610d1357908102905b60019390931c928002610cea565b935093915050565b5f82610d3757506001610dc5565b81610d4357505f610dc5565b8160018114610d595760028114610d6357610d7f565b6001915050610dc5565b60ff841115610d7457610d74610cd2565b50506001821b610dc5565b5060208310610133831016604e8410600b8410161715610da2575081810a610dc5565b610dae5f198484610ce6565b805f1904821115610dc157610dc1610cd2565b0290505b92915050565b5f610c4e60ff841683610d29565b8082028115828204841417610dc557610dc5610cd2565b5f82610e0a57634e487b7160e01b5f52601260045260245ffd5b500490565b5f82518060208501845e5f920191825250919050565b81810381811115610dc557610dc5610cd256fea26469706673582212209bac5ba280e6b819077700074f660947785004eafe21707d0a7e6a77b7dd166064736f6c634300081c0033","linkReferences":{}},"methodIdentifiers":{"openPosition()":"350245c2","withdrawCollateralToLiquidationThreshold()":"e6bcf834"},"id":511}