{"abi":[{"type":"constructor","inputs":[],"stateMutability":"nonpayable"},{"type":"function","name":"approve","inputs":[],"outputs":[],"stateMutability":"nonpayable"},{"type":"function","name":"attack","inputs":[],"outputs":[{"name":"","type":"bool","internalType":"bool"}],"stateMutability":"nonpayable"},{"type":"function","name":"joker","inputs":[],"outputs":[],"stateMutability":"nonpayable"},{"type":"function","name":"onERC721Received","inputs":[{"name":"","type":"address","internalType":"address"},{"name":"","type":"address","internalType":"address"},{"name":"","type":"uint256","internalType":"uint256"},{"name":"","type":"bytes","internalType":"bytes"}],"outputs":[{"name":"","type":"bytes4","internalType":"bytes4"}],"stateMutability":"pure"},{"type":"function","name":"withdrawAll","inputs":[],"outputs":[{"name":"","type":"bool","internalType":"bool"}],"stateMutability":"nonpayable"}],"bytecode":{"object":"0x60a06040525f80546001600160a01b031990811673c02aaa39b223fe8d0a0e5c4f27ead9083c756cc217909155600180548216732f131c4dad4be81683abb966b4de05a549144443179055600280548216738a90cab2b38dba80c64b7734e58ee1db38b8992e1790556003805490911673ebe72cdafebc1abf26517dd64b28762df77912a9179055348015610092575f5ffd5b50336080526080516115fb6100d85f395f818160c7015281816102050152818161056b015281816106250152818161095b01528181610a470152610ad901526115fb5ff3fe608060405234801561000f575f5ffd5b5060043610610055575f3560e01c806312424e3f14610059578063150b7a02146100635780634dd2f3a214610094578063853828b61461009c5780639e5faafc146100b4575b5f5ffd5b6100616100bc565b005b61007661007136600461137f565b6101e8565b6040516001600160e01b031990911681526020015b60405180910390f35b6100616101fa565b6100a4610619565b604051901515815260200161008b565b6100a4610acd565b336001600160a01b037f0000000000000000000000000000000000000000000000000000000000000000161461010d5760405162461bcd60e51b815260040161010490611414565b60405180910390fd5b60025460035460405163a22cb46560e01b81526001600160a01b0391821660048201526001602482015291169063a22cb465906044015f604051808303815f87803b15801561015a575f5ffd5b505af115801561016c573d5f5f3e3d5ffd5b50505f5460035460405163095ea7b360e01b81526001600160a01b0391821660048201525f1960248201529116925063095ea7b391506044016020604051808303815f875af11580156101c1573d5f5f3e3d5ffd5b505050506040513d601f19601f820116820180604052508101906101e5919061143b565b50565b630a85bd0160e11b5b95945050505050565b336001600160a01b037f000000000000000000000000000000000000000000000000000000000000000016146102425760405162461bcd60e51b815260040161010490611414565b604080516003808252608082019092525f91816020015b604080518082019091525f80825260208201528152602001906001900390816102595790505090506102d0815f8151811061029657610296611461565b60200260200101515f0181815250506001815f815181106102b9576102b9611461565b60200260200101516020019015159081151581525050611483816001815181106102e5576102e5611461565b60200260200101515f01818152505060018160018151811061030957610309611461565b60200260200101516020019015159081151581525050611d018160028151811061033557610335611461565b60200260200101515f01818152505060018160028151811061035957610359611461565b602090810291909101810151911515910152600354600254604051635755257360e11b81526001600160a01b039283169263aeaa4ae6926103a592911690859030905f90600401611475565b5f604051808303815f87803b1580156103bc575f5ffd5b505af11580156103ce573d5f5f3e3d5ffd5b5050600354604051632fe4a15f60e21b81523060048201525f93506001600160a01b03909116915063bf92857c9060240160e060405180830381865afa15801561041a573d5f5f3e3d5ffd5b505050506040513d601f19601f8201168201806040525081019061043e91906114f5565b50506003545f805460405163a415bcad60e01b81526001600160a01b039182166004820152602481018790526002604482015260648101929092523060848301529497509316945063a415bcad93505060a490910190505f604051808303815f87803b1580156104ac575f5ffd5b505af11580156104be573d5f5f3e3d5ffd5b505f9250600291506104cd9050565b6040519080825280602002602001820160405280156104f6578160200160208202803683370190505b5090506102d0815f8151811061050e5761050e611461565b6020026020010181815250506114838160018151811061053057610530611461565b6020908102919091010152600354600254604051630de1b77f60e21b81526001600160a01b0392831692633786ddfc926105939291169085907f000000000000000000000000000000000000000000000000000000000000000090600401611544565b6020604051808303815f875af11580156105af573d5f5f3e3d5ffd5b505050506040513d601f19601f820116820180604052508101906105d391906115ae565b6002146106145760405162461bcd60e51b815260206004820152600f60248201526e2bb4ba34323930bb9022b93937b91760891b6044820152606401610104565b505050565b5f336001600160a01b037f000000000000000000000000000000000000000000000000000000000000000016146106625760405162461bcd60e51b815260040161010490611414565b6040805160148082526102a082019092525f9160208201610280803683370190505090506112a9815f8151811061069b5761069b611461565b6020026020010181815250506112b0816001815181106106bd576106bd611461565b602002602001018181525050610b8c816002815181106106df576106df611461565b602002602001018181525050611e7e8160038151811061070157610701611461565b6020026020010181815250506110da8160048151811061072357610723611461565b602002602001018181525050611ed68160058151811061074557610745611461565b60200260200101818152505061256e8160068151811061076757610767611461565b6020026020010181815250506106438160078151811061078957610789611461565b60200260200101818152505061119e816008815181106107ab576107ab611461565b602002602001018181525050611b14816009815181106107cd576107cd611461565b6020026020010181815250506104e581600a815181106107ef576107ef611461565b602002602001018181525050611a6881600b8151811061081157610811611461565b6020026020010181815250506124bb81600c8151811061083357610833611461565b60200260200101818152505061042b81600d8151811061085557610855611461565b60200260200101818152505060b381600e8151811061087657610876611461565b602002602001018181525050610fb181600f8151811061089857610898611461565b602002602001018181525050611bfd816010815181106108ba576108ba611461565b6020026020010181815250506102d0816011815181106108dc576108dc611461565b602002602001018181525050611483816012815181106108fe576108fe611461565b602002602001018181525050611d018160138151811061092057610920611461565b6020908102919091010152600354600254604051630de1b77f60e21b81526001600160a01b0392831692633786ddfc926109839291169085907f000000000000000000000000000000000000000000000000000000000000000090600401611544565b6020604051808303815f875af115801561099f573d5f5f3e3d5ffd5b505050506040513d601f19601f820116820180604052508101906109c391906115ae565b505f80546040516370a0823160e01b81523060048201526001600160a01b03909116906370a0823190602401602060405180830381865afa158015610a0a573d5f5f3e3d5ffd5b505050506040513d601f19601f82011682018060405250810190610a2e91906115ae565b5f5460405163a9059cbb60e01b81526001600160a01b037f0000000000000000000000000000000000000000000000000000000000000000811660048301526024820184905292935091169063a9059cbb906044016020604051808303815f875af1158015610a9f573d5f5f3e3d5ffd5b505050506040513d601f19601f82011682018060405250810190610ac3919061143b565b5060019250505090565b5f336001600160a01b037f00000000000000000000000000000000000000000000000000000000000000001614610b165760405162461bcd60e51b815260040161010490611414565b60025460035460405163a22cb46560e01b81526001600160a01b0391821660048201526001602482015291169063a22cb465906044015f604051808303815f87803b158015610b63575f5ffd5b505af1158015610b75573d5f5f3e3d5ffd5b505f925060149150610b849050565b604051908082528060200260200182016040528015610bc857816020015b604080518082019091525f8082526020820152815260200190600190039081610ba25790505b5090506112a9815f81518110610be057610be0611461565b60200260200101515f0181815250506001815f81518110610c0357610c03611461565b602002602001015160200190151590811515815250506112b081600181518110610c2f57610c2f611461565b60200260200101515f018181525050600181600181518110610c5357610c53611461565b60200260200101516020019015159081151581525050610b8c81600281518110610c7f57610c7f611461565b60200260200101515f018181525050600181600281518110610ca357610ca3611461565b60200260200101516020019015159081151581525050611e7e81600381518110610ccf57610ccf611461565b60200260200101515f018181525050600181600381518110610cf357610cf3611461565b602002602001015160200190151590811515815250506110da81600481518110610d1f57610d1f611461565b60200260200101515f018181525050600181600481518110610d4357610d43611461565b60200260200101516020019015159081151581525050611ed681600581518110610d6f57610d6f611461565b60200260200101515f018181525050600181600581518110610d9357610d93611461565b6020026020010151602001901515908115158152505061256e81600681518110610dbf57610dbf611461565b60200260200101515f018181525050600181600681518110610de357610de3611461565b6020026020010151602001901515908115158152505061064381600781518110610e0f57610e0f611461565b60200260200101515f018181525050600181600781518110610e3357610e33611461565b6020026020010151602001901515908115158152505061119e81600881518110610e5f57610e5f611461565b60200260200101515f018181525050600181600881518110610e8357610e83611461565b60200260200101516020019015159081151581525050611b1481600981518110610eaf57610eaf611461565b60200260200101515f018181525050600181600981518110610ed357610ed3611461565b602002602001015160200190151590811515815250506104e581600a81518110610eff57610eff611461565b60200260200101515f018181525050600181600a81518110610f2357610f23611461565b60200260200101516020019015159081151581525050611a6881600b81518110610f4f57610f4f611461565b60200260200101515f018181525050600181600b81518110610f7357610f73611461565b602002602001015160200190151590811515815250506124bb81600c81518110610f9f57610f9f611461565b60200260200101515f018181525050600181600c81518110610fc357610fc3611461565b6020026020010151602001901515908115158152505061042b81600d81518110610fef57610fef611461565b60200260200101515f018181525050600181600d8151811061101357611013611461565b6020026020010151602001901515908115158152505060b381600e8151811061103e5761103e611461565b60200260200101515f018181525050600181600e8151811061106257611062611461565b60200260200101516020019015159081151581525050610fb181600f8151811061108e5761108e611461565b60200260200101515f018181525050600181600f815181106110b2576110b2611461565b60200260200101516020019015159081151581525050611bfd816010815181106110de576110de611461565b60200260200101515f01818152505060018160108151811061110257611102611461565b602002602001015160200190151590811515815250506102d08160118151811061112e5761112e611461565b60200260200101515f01818152505060018160118151811061115257611152611461565b602002602001015160200190151590811515815250506114838160128151811061117e5761117e611461565b60200260200101515f0181815250506001816012815181106111a2576111a2611461565b60200260200101516020019015159081151581525050611d01816013815181106111ce576111ce611461565b60200260200101515f0181815250506001816013815181106111f2576111f2611461565b602090810291909101810151911515910152600354600254604051635755257360e11b81526001600160a01b039283169263aeaa4ae69261123e92911690859030905f90600401611475565b5f604051808303815f87803b158015611255575f5ffd5b505af1158015611267573d5f5f3e3d5ffd5b5050600354604051632fe4a15f60e21b81523060048201525f93506001600160a01b03909116915063bf92857c9060240160e060405180830381865afa1580156112b3573d5f5f3e3d5ffd5b505050506040513d601f19601f820116820180604052508101906112d791906114f5565b50506003545f805460405163a415bcad60e01b81526001600160a01b039182166004820152602481018790526002604482015260648101929092523060848301529497509316945063a415bcad93505060a490910190505f604051808303815f87803b158015611345575f5ffd5b505af1158015611357573d5f5f3e3d5ffd5b5050505060019250505090565b80356001600160a01b038116811461137a575f5ffd5b919050565b5f5f5f5f5f60808688031215611393575f5ffd5b61139c86611364565b94506113aa60208701611364565b935060408601359250606086013567ffffffffffffffff8111156113cc575f5ffd5b8601601f810188136113dc575f5ffd5b803567ffffffffffffffff8111156113f2575f5ffd5b886020828401011115611403575f5ffd5b959894975092955050506020019190565b6020808252600d908201526c4e6f7420796f75722062697a2160981b604082015260600190565b5f6020828403121561144b575f5ffd5b8151801515811461145a575f5ffd5b9392505050565b634e487b7160e01b5f52603260045260245ffd5b6001600160a01b03851681526080602080830182905285519183018290525f919086019060a0840190835b818110156114cc57835180518452602090810151151581850152909301926040909201916001016114a0565b50506001600160a01b038616604085015291506114e69050565b61ffff831660608301526101f1565b5f5f5f5f5f5f5f60e0888a03121561150b575f5ffd5b5050855160208701516040880151606089015160808a015160a08b015160c0909b0151949c939b50919990985090965094509092509050565b6001600160a01b03841681526060602080830182905284519183018290525f91908501906080840190835b8181101561158d57835183526020938401939092019160010161156f565b50506001600160a01b03949094166040939093019290925250909392505050565b5f602082840312156115be575f5ffd5b505191905056fea26469706673582212204699bd391f07e028661c33e2a7717a2db0afb73c25d96391a7edbaec8fc0c49664736f6c634300081c0033","linkReferences":{}},"methodIdentifiers":{"approve()":"12424e3f","attack()":"9e5faafc","joker()":"4dd2f3a2","onERC721Received(address,address,uint256,bytes)":"150b7a02","withdrawAll()":"853828b6"},"id":83}