{"abi":[{"type":"function","name":"assetInfo","inputs":[],"outputs":[{"name":"","type":"uint8","internalType":"uint8"},{"name":"","type":"address","internalType":"address"},{"name":"","type":"uint8","internalType":"uint8"}],"stateMutability":"view"},{"type":"function","name":"attack","inputs":[],"outputs":[],"stateMutability":"nonpayable"},{"type":"function","name":"balanceOf","inputs":[{"name":"","type":"address","internalType":"address"}],"outputs":[{"name":"","type":"uint256","internalType":"uint256"}],"stateMutability":"view"},{"type":"function","name":"claimRewards","inputs":[{"name":"user","type":"address","internalType":"address"}],"outputs":[{"name":"rewardAmounts","type":"uint256[]","internalType":"uint256[]"}],"stateMutability":"nonpayable"},{"type":"function","name":"createMarket","inputs":[],"outputs":[],"stateMutability":"nonpayable"},{"type":"function","name":"decimals","inputs":[],"outputs":[{"name":"","type":"uint8","internalType":"uint8"}],"stateMutability":"view"},{"type":"function","name":"exchangeRate","inputs":[],"outputs":[{"name":"res","type":"uint256","internalType":"uint256"}],"stateMutability":"view"},{"type":"function","name":"getRewardTokens","inputs":[],"outputs":[{"name":"","type":"address[]","internalType":"address[]"}],"stateMutability":"view"},{"type":"function","name":"name","inputs":[],"outputs":[{"name":"","type":"string","internalType":"string"}],"stateMutability":"view"},{"type":"function","name":"receiveFlashLoan","inputs":[{"name":"tokens","type":"address[]","internalType":"address[]"},{"name":"amounts","type":"uint256[]","internalType":"uint256[]"},{"name":"feeAmounts","type":"uint256[]","internalType":"uint256[]"},{"name":"userData","type":"bytes","internalType":"bytes"}],"outputs":[],"stateMutability":"nonpayable"},{"type":"function","name":"rewardIndexesCurrent","inputs":[],"outputs":[{"name":"","type":"uint256[]","internalType":"uint256[]"}],"stateMutability":"nonpayable"},{"type":"function","name":"symbol","inputs":[],"outputs":[{"name":"","type":"string","internalType":"string"}],"stateMutability":"view"},{"type":"function","name":"transfer","inputs":[{"name":"to","type":"address","internalType":"address"},{"name":"amount","type":"uint256","internalType":"uint256"}],"outputs":[{"name":"","type":"bool","internalType":"bool"}],"stateMutability":"nonpayable"}],"bytecode":{"object":"0x60c06040525f60a081815261001490826100df565b5060408051602081019091525f815260019061003090826100df565b506012608052348015610041575f5ffd5b50610199565b634e487b7160e01b5f52604160045260245ffd5b600181811c9082168061006f57607f821691505b60208210810361008d57634e487b7160e01b5f52602260045260245ffd5b50919050565b601f8211156100da57805f5260205f20601f840160051c810160208510156100b85750805b601f840160051c820191505b818110156100d7575f81556001016100c4565b50505b505050565b81516001600160401b038111156100f8576100f8610047565b61010c81610106845461005b565b84610093565b6020601f82116001811461013e575f83156101275750848201515b5f19600385901b1c1916600184901b1784556100d7565b5f84815260208120601f198516915b8281101561016d578785015182556020948501946001909201910161014d565b508482101561018a57868401515f19600387901b60f8161c191681555b50505050600190811b01905550565b60805161257d6101b05f395f60f2015261257d5ff3fe608060405234801561000f575f5ffd5b50600436106100cb575f3560e01c8063a40bee5011610088578063c4f59f9b11610063578063c4f59f9b146101b8578063ef5cfb8c146101cd578063f04f2707146101ed578063f8b2f99114610200575f5ffd5b8063a40bee501461016f578063a9059cbb1461018d578063aea0e35f146101b0575f5ffd5b806306fdde03146100cf578063313ce567146100ed5780633ba0b9a91461012657806370a082311461013e57806395d89b411461015d5780639e5faafc14610165575b5f5ffd5b6100d7610207565b6040516100e49190611cd4565b60405180910390f35b6101147f000000000000000000000000000000000000000000000000000000000000000081565b60405160ff90911681526020016100e4565b670de0b6b3a76400005b6040519081526020016100e4565b61013061014c366004611d04565b60026020525f908152604090205481565b6100d7610292565b61016d61029f565b005b604080515f81523060208201526008918101919091526060016100e4565b6101a061019b366004611d1f565b610526565b60405190151581526020016100e4565b61016d61055b565b6101c0610a11565b6040516100e49190611d8c565b6101e06101db366004611d04565b610ad7565b6040516100e49190611dce565b61016d6101fb366004611f1e565b611259565b60606101e0565b5f805461021390612037565b80601f016020809104026020016040519081016040528092919081815260200182805461023f90612037565b801561028a5780601f106102615761010080835404028352916020019161028a565b820191905f5260205f20905b81548152906001019060200180831161026d57829003601f168201915b505050505081565b6001805461021390612037565b6040805160028082526060820183525f9260208301908036833701905050905073e1b4d34e8754600962cd944b535180bd758e6c2e815f815181106102e6576102e661206f565b60200260200101906001600160a01b031690816001600160a01b03168152505073fae103dc9cf190ed75350761e95403b7b8afa6c08160018151811061032e5761032e61206f565b6001600160a01b03929092166020928302919091018201526040805160028082526060820183525f939192909183019080368337019050506040516370a0823160e01b815273ba12222222228d8ba445958a75a0704d566bf2c8600482015290915073e1b4d34e8754600962cd944b535180bd758e6c2e906370a0823190602401602060405180830381865afa1580156103ca573d5f5f3e3d5ffd5b505050506040513d601f19601f820116820180604052508101906103ee9190612083565b6005819055815182905f906104055761040561206f565b60209081029190910101526040516370a0823160e01b815273ba12222222228d8ba445958a75a0704d566bf2c8600482015273fae103dc9cf190ed75350761e95403b7b8afa6c0906370a0823190602401602060405180830381865afa158015610471573d5f5f3e3d5ffd5b505050506040513d601f19601f820116820180604052508101906104959190612083565b60068190558151829060019081106104af576104af61206f565b6020908102919091010152604051632e1c224f60e11b815273ba12222222228d8ba445958a75a0704d566bf2c890635c38449e906104f59030908690869060040161209a565b5f604051808303815f87803b15801561050c575f5ffd5b505af115801561051e573d5f5f3e3d5ffd5b505050505050565b6001600160a01b0382165f9081526002602052604081208054839190839061054f9084906120fe565b90915550909392505050565b604051637145345b60e11b815230600482015263676c9c806024820152600160448201525f9081907335a338522a435d46f77be32c70e215b813d0e3ac9063e28a68b69060640160408051808303815f875af11580156105bd573d5f5f3e3d5ffd5b505050506040513d601f19601f820116820180604052508101906105e19190612117565b60405163f661cf6b60e01b81526001600160a01b038316600482015268014413b0492241ea006024820152670e541ba6d95da40060448201526607192c3eedc58060648201529193509150736fcf753f2c67b83f7b09746bbc4fa0047b35d0509063f661cf6b906084016020604051808303815f875af1158015610667573d5f5f3e3d5ffd5b505050506040513d601f19601f8201168201806040525081019061068b919061214f565b600380546001600160a01b0319166001600160a01b0392909216918217905560405163bbf92ba360e01b8152600481019190915273d20c245e1224fc2e8652a283a8f5cae1d83b353a9063bbf92ba3906024015f604051808303815f87803b1580156106f5575f5ffd5b505af1158015610707573d5f5f3e3d5ffd5b5050505061071d81670de0b6b3a7640000611bc5565b60405163db74aa1560e01b8152306004820181905260248201526001600160a01b0382169063db74aa15906044016020604051808303815f875af1158015610767573d5f5f3e3d5ffd5b505050506040513d601f19601f8201168201806040525081019061078b9190612083565b506040516370a0823160e01b81523060048201525f906001600160a01b038416906370a0823190602401602060405180830381865afa1580156107d0573d5f5f3e3d5ffd5b505050506040513d601f19601f820116820180604052508101906107f49190612083565b60035460405163a9059cbb60e01b81529192506001600160a01b038086169263a9059cbb92610829921690859060040161216a565b6020604051808303815f875af1158015610845573d5f5f3e3d5ffd5b505050506040513d601f19601f820116820180604052508101906108699190612183565b50600354610888906001600160a01b0316670de0b6b3a7640000611bc5565b600354604051630ab714fb60e11b8152306004820152670de0b6b3a76400006024820181905260448201526001600160a01b039091169063156e29f6906064016060604051808303815f875af11580156108e4573d5f5f3e3d5ffd5b505050506040513d601f19601f8201168201806040525081019061090891906121a2565b505060035460405163095ea7b360e01b81526001600160a01b03909116915063095ea7b39061095290736e799758cee75dae3d84e09d40dc416ecf713652905f199060040161216a565b6020604051808303815f875af115801561096e573d5f5f3e3d5ffd5b505050506040513d601f19601f820116820180604052508101906109929190612183565b5060035460405163bad55ca160e01b8152731c1fb35334290b5ff1bf7b4c09130885b10fc0f49163bad55ca1916109df916001600160a01b031690670de0b6b3a763fc189060040161216a565b5f604051808303815f87803b1580156109f6575f5ffd5b505af1158015610a08573d5f5f3e3d5ffd5b50505050505050565b600354606090336001600160a01b0390911603610ad4576040805160028082526060820183525f92602083019080368337019050509050736010676bc2534652ad1ef5fa8073dcf9ad7ebfbe815f81518110610a6f57610a6f61206f565b60200260200101906001600160a01b031690816001600160a01b03168152505073038c1b03dab3b891afbca4371ec807edaa3e6eb681600181518110610ab757610ab761206f565b6001600160a01b0390921660209283029190910190910152919050565b90565b60606008545f03610b0a5760088054905f610af1836121cd565b9091555050604080515f81526020810190915292915050565b6008546001036112545760405163095ea7b360e01b815273e1b4d34e8754600962cd944b535180bd758e6c2e9063095ea7b390610b629073888888888889758f76e7103c6cbf23abbf58f946905f199060040161216a565b6020604051808303815f875af1158015610b7e573d5f5f3e3d5ffd5b505050506040513d601f19601f82011682018060405250810190610ba29190612183565b506040516370a0823160e01b81523060048201525f9073e1b4d34e8754600962cd944b535180bd758e6c2e906370a0823190602401602060405180830381865afa158015610bf2573d5f5f3e3d5ffd5b505050506040513d601f19601f82011682018060405250810190610c169190612083565b90505f60405180608001604052805f6003811115610c3657610c366121e5565b81525f6020808301829052604080518083018252838152818501526060938401839052805160a08101825273e1b4d34e8754600962cd944b535180bd758e6c2e8082529281018890528082019290925292810191909152608081018390529051633dbe1c5560e01b81529192509073888888888889758f76e7103c6cbf23abbf58f94690633dbe1c5590610ceb903090736010676bc2534652ad1ef5fa8073dcf9ad7ebfbe90600190819088906004016122b3565b6080604051808303815f875af1158015610d07573d5f5f3e3d5ffd5b505050506040513d601f19601f82011682018060405250810190610d2b91906122f7565b50506040516370a0823160e01b8152306004820152736010676bc2534652ad1ef5fa8073dcf9ad7ebfbe94506370a0823193506024019150610d6a9050565b602060405180830381865afa158015610d85573d5f5f3e3d5ffd5b505050506040513d601f19601f82011682018060405250810190610da99190612083565b600481815560405163095ea7b360e01b8152736010676bc2534652ad1ef5fa8073dcf9ad7ebfbe9263095ea7b392610df892736e799758cee75dae3d84e09d40dc416ecf71365292910161216a565b6020604051808303815f875af1158015610e14573d5f5f3e3d5ffd5b505050506040513d601f19601f82011682018060405250810190610e389190612183565b506004805460405163bad55ca160e01b8152731c1fb35334290b5ff1bf7b4c09130885b10fc0f49263bad55ca192610e8692736010676bc2534652ad1ef5fa8073dcf9ad7ebfbe920161216a565b5f604051808303815f87803b158015610e9d575f5ffd5b505af1158015610eaf573d5f5f3e3d5ffd5b505060405163095ea7b360e01b815273fae103dc9cf190ed75350761e95403b7b8afa6c0925063095ea7b39150610f019073888888888889758f76e7103c6cbf23abbf58f946905f199060040161216a565b6020604051808303815f875af1158015610f1d573d5f5f3e3d5ffd5b505050506040513d601f19601f82011682018060405250810190610f419190612183565b506040516370a0823160e01b81523060048201525f9073fae103dc9cf190ed75350761e95403b7b8afa6c0906370a0823190602401602060405180830381865afa158015610f91573d5f5f3e3d5ffd5b505050506040513d601f19601f82011682018060405250810190610fb59190612083565b90505f60405180608001604052805f6003811115610fd557610fd56121e5565b81525f6020808301829052604080518083018252838152818501526060938401839052805160a08101825273fae103dc9cf190ed75350761e95403b7b8afa6c08082529281018890528082019290925292810191909152608081018390529051633dbe1c5560e01b81529192509073888888888889758f76e7103c6cbf23abbf58f94690633dbe1c559061108a90309073038c1b03dab3b891afbca4371ec807edaa3e6eb690600190819088906004016122b3565b6080604051808303815f875af11580156110a6573d5f5f3e3d5ffd5b505050506040513d601f19601f820116820180604052508101906110ca91906122f7565b50505060075550506040516370a0823160e01b81523060048201525f9073038c1b03dab3b891afbca4371ec807edaa3e6eb6906370a0823190602401602060405180830381865afa158015611121573d5f5f3e3d5ffd5b505050506040513d601f19601f820116820180604052508101906111459190612083565b60405163095ea7b360e01b815290915073038c1b03dab3b891afbca4371ec807edaa3e6eb69063095ea7b39061119590736e799758cee75dae3d84e09d40dc416ecf71365290859060040161216a565b6020604051808303815f875af11580156111b1573d5f5f3e3d5ffd5b505050506040513d601f19601f820116820180604052508101906111d59190612183565b5060405163bad55ca160e01b8152731c1fb35334290b5ff1bf7b4c09130885b10fc0f49063bad55ca1906112239073038c1b03dab3b891afbca4371ec807edaa3e6eb690859060040161216a565b5f604051808303815f87803b15801561123a575f5ffd5b505af115801561124c573d5f5f3e3d5ffd5b505050505050505b919050565b6040805160018082528183019092525f9160208083019080368337505060035482519293506001600160a01b0316918391505f906112995761129961206f565b6001600160a01b03909216602092830291909101909101526040516367398cd760e11b8152736e799758cee75dae3d84e09d40dc416ecf7136529063ce7319ae906112ea9084905f9060040161232a565b5f604051808303815f87803b158015611301575f5ffd5b505af1158015611313573d5f5f3e3d5ffd5b505060405163cf94fdf560e01b81527316296859c15289731521f199f0a5f762df6347d0925063cf94fdf5915061134e908490600401611d8c565b5f604051808303815f87803b158015611365575f5ffd5b505af1158015611377573d5f5f3e3d5ffd5b5050600480546040516310ee444960e01b8152731c1fb35334290b5ff1bf7b4c09130885b10fc0f494506310ee444993506113c992736010676bc2534652ad1ef5fa8073dcf9ad7ebfbe92910161216a565b5f604051808303815f87803b1580156113e0575f5ffd5b505af11580156113f2573d5f5f3e3d5ffd5b50506040516370a0823160e01b81523060048201525f9250736010676bc2534652ad1ef5fa8073dcf9ad7ebfbe91506370a0823190602401602060405180830381865afa158015611445573d5f5f3e3d5ffd5b505050506040513d601f19601f820116820180604052508101906114699190612083565b60405163095ea7b360e01b8152909150736010676bc2534652ad1ef5fa8073dcf9ad7ebfbe9063095ea7b3906114b99073888888888889758f76e7103c6cbf23abbf58f94690859060040161216a565b6020604051808303815f875af11580156114d5573d5f5f3e3d5ffd5b505050506040513d601f19601f820116820180604052508101906114f99190612183565b506040805160a0810182525f808252602080830182905283518281529081018452909282019083611540565b61152d611bf5565b8152602001906001900390816115255790505b5081526020015f60405190808252806020026020018201604052801561158057816020015b61156d611bf5565b8152602001906001900390816115655790505b50815260408051602080820183525f8083529381019190915281516080808201845284825281830185905283518084018552858152828501526060808301869052845160a08101865273e1b4d34e8754600962cd944b535180bd758e6c2e808252948101879052808601949094528301949094529281018390529051630306d04360e51b8152929350909173888888888889758f76e7103c6cbf23abbf58f946906360da086090611651903090736010676bc2534652ad1ef5fa8073dcf9ad7ebfbe90899087908a9060040161249d565b6060604051808303815f875af115801561166d573d5f5f3e3d5ffd5b505050506040513d601f19601f8201168201806040525081019061169191906121a2565b50506007546040516310ee444960e01b8152731c1fb35334290b5ff1bf7b4c09130885b10fc0f495506310ee444994506116e5935073038c1b03dab3b891afbca4371ec807edaa3e6eb6925060040161216a565b5f604051808303815f87803b1580156116fc575f5ffd5b505af115801561170e573d5f5f3e3d5ffd5b50506040516370a0823160e01b81523060048201525f925073038c1b03dab3b891afbca4371ec807edaa3e6eb691506370a0823190602401602060405180830381865afa158015611761573d5f5f3e3d5ffd5b505050506040513d601f19601f820116820180604052508101906117859190612083565b60405163095ea7b360e01b815290915073038c1b03dab3b891afbca4371ec807edaa3e6eb69063095ea7b3906117d59073888888888889758f76e7103c6cbf23abbf58f94690859060040161216a565b6020604051808303815f875af11580156117f1573d5f5f3e3d5ffd5b505050506040513d601f19601f820116820180604052508101906118159190612183565b506040805160a0810182525f80825260208083018290528351828152908101845290928201908361185c565b611849611bf5565b8152602001906001900390816118415790505b5081526020015f60405190808252806020026020018201604052801561189c57816020015b611889611bf5565b8152602001906001900390816118815790505b50815260408051602080820183525f8083529381019190915281516080808201845284825281830185905283518084018552858152828501526060808301869052845160a08101865273fae103dc9cf190ed75350761e95403b7b8afa6c0808252948101879052808601949094528301949094529281018390529051630306d04360e51b8152929350909173888888888889758f76e7103c6cbf23abbf58f946906360da08609061196d90309073038c1b03dab3b891afbca4371ec807edaa3e6eb690899087908a9060040161249d565b6060604051808303815f875af1158015611989573d5f5f3e3d5ffd5b505050506040513d601f19601f820116820180604052508101906119ad91906121a2565b50506040516370a0823160e01b815230600482015273e1b4d34e8754600962cd944b535180bd758e6c2e94506370a08231935060240191506119ec9050565b602060405180830381865afa158015611a07573d5f5f3e3d5ffd5b505050506040513d601f19601f82011682018060405250810190611a2b9190612083565b5060055460405163a9059cbb60e01b815273e1b4d34e8754600962cd944b535180bd758e6c2e9163a9059cbb91611a7a9173ba12222222228d8ba445958a75a0704d566bf2c89160040161216a565b6020604051808303815f875af1158015611a96573d5f5f3e3d5ffd5b505050506040513d601f19601f82011682018060405250810190611aba9190612183565b506040516370a0823160e01b815230600482015273fae103dc9cf190ed75350761e95403b7b8afa6c0906370a0823190602401602060405180830381865afa158015611b08573d5f5f3e3d5ffd5b505050506040513d601f19601f82011682018060405250810190611b2c9190612083565b5060065460405163a9059cbb60e01b815273fae103dc9cf190ed75350761e95403b7b8afa6c09163a9059cbb91611b7b9173ba12222222228d8ba445958a75a0704d566bf2c89160040161216a565b6020604051808303815f875af1158015611b97573d5f5f3e3d5ffd5b505050506040513d601f19601f82011682018060405250810190611bbb9190612183565b5050505050505050565b6001600160a01b0382165f9081526002602052604081208054839290611bec9084906120fe565b90915550505050565b6040518060600160405280611c08611c1b565b8152602001606081526020015f81525090565b6040518061018001604052805f81526020015f81526020015f81526020015f6003811115611c4b57611c4b6121e5565b81526020015f6001600160a01b031681526020015f6001600160a01b031681526020015f6001600160a01b031681526020015f6001600160a01b031681526020015f81526020015f81526020015f8152602001606081525090565b5f81518084528060208401602086015e5f602082860101526020601f19601f83011685010191505092915050565b602081525f611ce66020830184611ca6565b9392505050565b6001600160a01b0381168114611d01575f5ffd5b50565b5f60208284031215611d14575f5ffd5b8135611ce681611ced565b5f5f60408385031215611d30575f5ffd5b8235611d3b81611ced565b946020939093013593505050565b5f8151808452602084019350602083015f5b82811015611d825781516001600160a01b0316865260209586019590910190600101611d5b565b5093949350505050565b602081525f611ce66020830184611d49565b5f8151808452602084019350602083015f5b82811015611d82578151865260209586019590910190600101611db0565b602081525f611ce66020830184611d9e565b634e487b7160e01b5f52604160045260245ffd5b604051601f8201601f1916810167ffffffffffffffff81118282101715611e1d57611e1d611de0565b604052919050565b5f67ffffffffffffffff821115611e3e57611e3e611de0565b5060051b60200190565b5f82601f830112611e57575f5ffd5b8135611e6a611e6582611e25565b611df4565b8082825260208201915060208360051b860101925085831115611e8b575f5ffd5b602085015b83811015611ea8578035835260209283019201611e90565b5095945050505050565b5f82601f830112611ec1575f5ffd5b813567ffffffffffffffff811115611edb57611edb611de0565b611eee601f8201601f1916602001611df4565b818152846020838601011115611f02575f5ffd5b816020850160208301375f918101602001919091529392505050565b5f5f5f5f60808587031215611f31575f5ffd5b843567ffffffffffffffff811115611f47575f5ffd5b8501601f81018713611f57575f5ffd5b8035611f65611e6582611e25565b8082825260208201915060208360051b850101925089831115611f86575f5ffd5b6020840193505b82841015611fb1578335611fa081611ced565b825260209384019390910190611f8d565b9650505050602085013567ffffffffffffffff811115611fcf575f5ffd5b611fdb87828801611e48565b935050604085013567ffffffffffffffff811115611ff7575f5ffd5b61200387828801611e48565b925050606085013567ffffffffffffffff81111561201f575f5ffd5b61202b87828801611eb2565b91505092959194509250565b600181811c9082168061204b57607f821691505b60208210810361206957634e487b7160e01b5f52602260045260245ffd5b50919050565b634e487b7160e01b5f52603260045260245ffd5b5f60208284031215612093575f5ffd5b5051919050565b6001600160a01b03841681526080602082018190525f906120bd90830185611d49565b82810360408401526120cf8185611d9e565b83810360609094019390935250505f81526020019392505050565b634e487b7160e01b5f52601160045260245ffd5b80820180821115612111576121116120ea565b92915050565b5f5f60408385031215612128575f5ffd5b825161213381611ced565b602084015190925061214481611ced565b809150509250929050565b5f6020828403121561215f575f5ffd5b8151611ce681611ced565b6001600160a01b03929092168252602082015260400190565b5f60208284031215612193575f5ffd5b81518015158114611ce6575f5ffd5b5f5f5f606084860312156121b4575f5ffd5b5050815160208301516040909301519094929350919050565b5f600182016121de576121de6120ea565b5060010190565b634e487b7160e01b5f52602160045260245ffd5b60048110611d0157634e487b7160e01b5f52602160045260245ffd5b60018060a01b0381511682526020810151602083015260018060a01b03604082015116604083015260018060a01b0360608201511660608301525f608082015160a060808501528051612267816121f9565b60a085015260208101516001600160a01b031660c08501526040810151608060e0860152612299610120860182611ca6565b905060608201511515610100860152809250505092915050565b6001600160a01b03868116825285166020820152604081018490526060810183905260a0608082018190525f906122ec90830184612215565b979650505050505050565b5f5f5f5f6080858703121561230a575f5ffd5b505082516020840151604085015160609095015191969095509092509050565b604081525f61233c6040830185611d49565b90508260208301529392505050565b612354816121f9565b9052565b5f82825180855260208501945060208160051b830101602085015f5b8381101561249157848303601f1901885281518051606080865281518187015260208201516080870152604082015160a08701528101516123b860c087018261234b565b5060808101516001600160a01b03811660e08701525060a08101516001600160a01b0381166101008701525060c08101516001600160a01b0381166101208701525060e08101516001600160a01b038116610140870152506101008101516101608601526101208101516101808601526101408101516101a086015261016081015190506101806101c08601526124536101e0860182611ca6565b90506020820151858203602087015261246c8282611ca6565b6040938401519690930195909552506020988901989093509190910190600101612374565b50909695505050505050565b6001600160a01b038681168252851660208201526040810184905260a0606082018190525f906124cf90830185612215565b828103608084015260018060a01b03845116815260208401516020820152604084015160a0604083015261250660a0830182612358565b90506060850151828203606084015261251f8282612358565b915050608085015182820360808401526125398282611ca6565b9a995050505050505050505056fea2646970667358221220d76de7f02d958930b1fda9a918411f8df6f8c845d8ba494c33e510cf5cdc30f864736f6c634300081c0033","linkReferences":{}},"methodIdentifiers":{"assetInfo()":"a40bee50","attack()":"9e5faafc","balanceOf(address)":"70a08231","claimRewards(address)":"ef5cfb8c","createMarket()":"aea0e35f","decimals()":"313ce567","exchangeRate()":"3ba0b9a9","getRewardTokens()":"c4f59f9b","name()":"06fdde03","receiveFlashLoan(address[],uint256[],uint256[],bytes)":"f04f2707","rewardIndexesCurrent()":"f8b2f991","symbol()":"95d89b41","transfer(address,uint256)":"a9059cbb"},"id":542}