{"abi":[{"type":"constructor","inputs":[],"stateMutability":"nonpayable"},{"type":"function","name":"getPair","inputs":[{"name":"","type":"address","internalType":"address"},{"name":"","type":"address","internalType":"address"}],"outputs":[{"name":"pair","type":"address","internalType":"address"}],"stateMutability":"view"},{"type":"function","name":"getReserves","inputs":[],"outputs":[{"name":"reserve0","type":"uint112","internalType":"uint112"},{"name":"reserve1","type":"uint112","internalType":"uint112"},{"name":"blockTimestampLast","type":"uint32","internalType":"uint32"}],"stateMutability":"pure"},{"type":"function","name":"swap","inputs":[{"name":"","type":"uint256","internalType":"uint256"},{"name":"","type":"uint256","internalType":"uint256"},{"name":"","type":"address","internalType":"address"},{"name":"","type":"bytes","internalType":"bytes"}],"outputs":[],"stateMutability":"nonpayable"}],"bytecode":{"object":"0x6080604052348015600e575f5ffd5b505f80546001600160a01b031916331790556103768061002d5f395ff3fe608060405234801561000f575f5ffd5b506004361061003f575f3560e01c8063022c0d9f146100435780630902f1ac14610058578063e6a4390514610087575b5f5ffd5b610056610051366004610244565b6100b4565b005b604080516b204fce5e3e250261100000008152600160208201525f918101919091526060015b60405180910390f35b61009c6100953660046102d2565b5030919050565b6040516001600160a01b03909116815260200161007e565b6040516370a0823160e01b81523060048201525f9073bb4cdb9cbd36b01bd1cbaebf2de08d9173bc095c906370a0823190602401602060405180830381865afa158015610103573d5f5f3e3d5ffd5b505050506040513d601f19601f820116820180604052508101906101279190610303565b1115610222575f546040516370a0823160e01b815230600482015273bb4cdb9cbd36b01bd1cbaebf2de08d9173bc095c9163a9059cbb916001600160a01b039091169083906370a0823190602401602060405180830381865afa158015610190573d5f5f3e3d5ffd5b505050506040513d601f19601f820116820180604052508101906101b49190610303565b6040516001600160e01b031960e085901b1681526001600160a01b03909216600483015260248201526044016020604051808303815f875af11580156101fc573d5f5f3e3d5ffd5b505050506040513d601f19601f82011682018060405250810190610220919061031a565b505b5050505050565b80356001600160a01b038116811461023f575f5ffd5b919050565b5f5f5f5f5f60808688031215610258575f5ffd5b853594506020860135935061026f60408701610229565b9250606086013567ffffffffffffffff81111561028a575f5ffd5b8601601f8101881361029a575f5ffd5b803567ffffffffffffffff8111156102b0575f5ffd5b8860208284010111156102c1575f5ffd5b959894975092955050506020019190565b5f5f604083850312156102e3575f5ffd5b6102ec83610229565b91506102fa60208401610229565b90509250929050565b5f60208284031215610313575f5ffd5b5051919050565b5f6020828403121561032a575f5ffd5b81518015158114610339575f5ffd5b939250505056fea264697066735822122035391d92b7be24ce0aaf74a2f9345441ab9a36fb52164739750efed3c8831c3164736f6c634300081c0033","linkReferences":{}},"methodIdentifiers":{"getPair(address,address)":"e6a43905","getReserves()":"0902f1ac","swap(uint256,uint256,address,bytes)":"022c0d9f"},"id":110}