{"abi":[{"type":"constructor","inputs":[],"stateMutability":"nonpayable"},{"type":"function","name":"airDropReward","inputs":[{"name":"receiver","type":"address","internalType":"address"}],"outputs":[],"stateMutability":"nonpayable"}],"bytecode":{"object":"0x60806040525f80546001600160a01b0319908116734bbfae575dd47bcfd5770ab4bc54eb83db0888881790915560018054821673335ddce3f07b0bdafc03f56c1b30d3b2693666661790556002805490911673d9578d4009d9cc284b32d19fe58ffe5113c04a5e179055348015610074575f5ffd5b505f805460405163a9059cbb60e01b815230600482015260248101929092526001600160a01b03169063a9059cbb906044016020604051808303815f875af11580156100c2573d5f5f3e3d5ffd5b505050506040513d601f19601f820116820180604052508101906100e691906100ec565b50610112565b5f602082840312156100fc575f5ffd5b8151801515811461010b575f5ffd5b9392505050565b6102f78061011f5f395ff3fe608060405234801561000f575f5ffd5b5060043610610029575f3560e01c806343aa2a9a1461002d575b5f5ffd5b61004061003b36600461025e565b610042565b005b60015460405163144a8ec560e31b81523060048201526001600160a01b039091169063a2547628906024015f604051808303815f87803b158015610084575f5ffd5b505af1158015610096573d5f5f3e3d5ffd5b50505f546040516370a0823160e01b81523060048201526001600160a01b03909116925063a9059cbb9150839083906370a0823190602401602060405180830381865afa1580156100e9573d5f5f3e3d5ffd5b505050506040513d601f19601f8201168201806040525081019061010d919061028b565b6040516001600160e01b031960e085901b1681526001600160a01b03909216600483015260248201526044016020604051808303815f875af1158015610155573d5f5f3e3d5ffd5b505050506040513d601f19601f8201168201806040525081019061017991906102a2565b506002546040516370a0823160e01b81523060048201526001600160a01b039091169063a9059cbb90839083906370a0823190602401602060405180830381865afa1580156101ca573d5f5f3e3d5ffd5b505050506040513d601f19601f820116820180604052508101906101ee919061028b565b6040516001600160e01b031960e085901b1681526001600160a01b03909216600483015260248201526044016020604051808303815f875af1158015610236573d5f5f3e3d5ffd5b505050506040513d601f19601f8201168201806040525081019061025a91906102a2565b5050565b5f6020828403121561026e575f5ffd5b81356001600160a01b0381168114610284575f5ffd5b9392505050565b5f6020828403121561029b575f5ffd5b5051919050565b5f602082840312156102b2575f5ffd5b81518015158114610284575f5ffdfea264697066735822122013ea230dba1dbed100d3a54ecd4d5b33ba0e82fdc29d94ec8498b2b0f709812064736f6c634300081c0033","linkReferences":{}},"methodIdentifiers":{"airDropReward(address)":"43aa2a9a"},"id":122}