{"abi":[{"type":"constructor","inputs":[],"stateMutability":"payable"},{"type":"receive","stateMutability":"payable"},{"type":"function","name":"borrow","inputs":[{"name":"amount","type":"uint256","internalType":"uint256"}],"outputs":[],"stateMutability":"nonpayable"}],"bytecode":{"object":"0x6080604052600180546001600160a01b03199081167342000000000000000000000000000000000000061790915560028054821673833589fcd6edb6e08f4c7c32d4f71b54bda02913179055600380548216732ae3f1ec7f1f5012cfeab0185bfc7aa3cf0dec22179055600480548216737b5969bb51fa3b002579d7ee41a454ac691716dc17905560058054821673142017b52c99d3dfe55e49d79df0baf7f4478c0c179055600680548216736345af6da3ebd9df468e37b473128fd3079c4a4b17905560078054821673549d0cdc753601fbe29f9de186868429a8558e071790555f8054909116331790556105fe806100f85f395ff3fe608060405260043610610020575f3560e01c8063c5ebeaec146100b7575f5ffd5b366100b357346001036100b1575f5460408051600481526024810182526020810180516001600160e01b0316632797eabf60e21b17905290516001600160a01b039092169161006f91906104e3565b5f604051808303815f865af19150503d805f81146100a8576040519150601f19603f3d011682016040523d82523d5f602084013e6100ad565b606091505b5050505b005b5f5ffd5b3480156100c2575f5ffd5b506100b16100d13660046104f9565b60025460055460405163095ea7b360e01b81526001600160a01b0391821660048201526024810184905291169063095ea7b3906044016020604051808303815f875af1158015610123573d5f5f3e3d5ffd5b505050506040513d601f19601f820116820180604052508101906101479190610510565b5060055460405163140e25ad60e31b8152600481018390526001600160a01b039091169063a0712d68906024016020604051808303815f875af1158015610190573d5f5f3e3d5ffd5b505050506040513d601f19601f820116820180604052508101906101b49190610536565b506004805460405163317afabb60e21b81526001600160a01b0390911680319282018390529063c5ebeaec906024016020604051808303815f875af11580156101ff573d5f5f3e3d5ffd5b505050506040513d601f19601f820116820180604052508101906102239190610536565b506004546001600160a01b031663e597461961024083600161054d565b6040516001600160e01b031960e084901b1681523060048201526024015f604051808303818588803b158015610274575f5ffd5b505af1158015610286573d5f5f3e3d5ffd5b50506005546040516370a0823160e01b81523060048201526001600160a01b03909116935063db006a7592508391506370a0823190602401602060405180830381865afa1580156102d9573d5f5f3e3d5ffd5b505050506040513d601f19601f820116820180604052508101906102fd9190610536565b6040518263ffffffff1660e01b815260040161031b91815260200190565b6020604051808303815f875af1158015610337573d5f5f3e3d5ffd5b505050506040513d601f19601f8201168201806040525081019061035b9190610536565b506040805160018082528183019092525f9160208083019080368337019050509050610137815f8151811061039257610392610572565b6020908102919091010152600754604051630d74982760e31b81526001600160a01b0390911690636ba4c138906103cd908490600401610586565b5f604051808303815f87803b1580156103e4575f5ffd5b505af11580156103f6573d5f5f3e3d5ffd5b50506002545f546040516370a0823160e01b81523060048201526001600160a01b03928316945063a9059cbb935091169083906370a0823190602401602060405180830381865afa15801561044d573d5f5f3e3d5ffd5b505050506040513d601f19601f820116820180604052508101906104719190610536565b6040516001600160e01b031960e085901b1681526001600160a01b03909216600483015260248201526044016020604051808303815f875af11580156104b9573d5f5f3e3d5ffd5b505050506040513d601f19601f820116820180604052508101906104dd9190610510565b50505050565b5f82518060208501845e5f920191825250919050565b5f60208284031215610509575f5ffd5b5035919050565b5f60208284031215610520575f5ffd5b8151801515811461052f575f5ffd5b9392505050565b5f60208284031215610546575f5ffd5b5051919050565b8082018082111561056c57634e487b7160e01b5f52601160045260245ffd5b92915050565b634e487b7160e01b5f52603260045260245ffd5b602080825282518282018190525f918401906040840190835b818110156105bd57835183526020938401939092019160010161059f565b50909594505050505056fea26469706673582212200095f31a7983c3077ed137adf719de52a2b05c1e96ebf9558a30b73f5900b9ed64736f6c634300081c0033","linkReferences":{}},"methodIdentifiers":{"borrow(uint256)":"c5ebeaec"},"id":477}