{"abi":[{"type":"function","name":"act","inputs":[{"name":"user","type":"address","internalType":"address"},{"name":"cgt","type":"address","internalType":"contract IMERC20"}],"outputs":[],"stateMutability":"nonpayable"}],"bytecode":{"object":"0x6080604052348015600e575f5ffd5b5061028e8061001c5f395ff3fe608060405234801561000f575f5ffd5b5060043610610029575f3560e01c8063eaf45b511461002d575b5f5ffd5b61004061003b366004610221565b610042565b005b60405163f24e23eb60e01b815230600482018190526024820152760a70c3c40a64e6c51999090b65f67d92400000000000006044820152738b2b0c101adb9c3654b226a3273e256a74688e579073e35fc6305984a6811bd832b0d7a2e6694e37dfaf90829063f24e23eb906064015f604051808303815f87803b1580156100c7575f5ffd5b505af11580156100d9573d5f5f3e3d5ffd5b50506040516328ec8bf160e21b81526001600160a01b0384811660048301528516925063a3b22fc491506024015f604051808303815f87803b15801561011d575f5ffd5b505af115801561012f573d5f5f3e3d5ffd5b505060405163ef693bed60e01b81526001600160a01b0387811660048301526b033b2e3c9fd0803ce800000060248301528416925063ef693bed91506044015f604051808303815f87803b158015610185575f5ffd5b505af1158015610197573d5f5f3e3d5ffd5b50506040516340c10f1960e01b81526001600160a01b0387811660048301526c0c9f2c9cd04674edea400000006024830152861692506340c10f1991506044015f604051808303815f87803b1580156101ee575f5ffd5b505af1158015610200573d5f5f3e3d5ffd5b5050505050505050565b6001600160a01b038116811461021e575f5ffd5b50565b5f5f60408385031215610232575f5ffd5b823561023d8161020a565b9150602083013561024d8161020a565b80915050925092905056fea2646970667358221220cb7246fc54f1d784027a3ced27f7098d82c7989ff0764aa3f4d826f16b7901c764736f6c634300081c0033","linkReferences":{}},"methodIdentifiers":{"act(address,address)":"eaf45b51"},"id":445}